:020000040800F2
:10000000C0B9062489030008072500080525000853
:10001000591C0090C30500080128000800000000DA
:10002000000000000000000000000000552700084C
:10003000C505000800000000092500085727000832
:10004000A3030008A3030008A3030008A3030008F8
:10005000A3030008A3030008A3030008A3030008E8
:10006000A3030008A3030008A3030008A3030008D8
:10007000A3030008A3030008A3030008A3030008C8
:10008000A3030008A3030008A3030008A3030008B8
:10009000A3030008A3030008A3030008A3030008A8
:1000A000A3030008A3030008A3030008A303000898
:1000B000A3030008A3030008A3030008A303000888
:1000C000A3030008A3030008A3030008A303000878
:1000D000A3030008F5270008A3030008A3030008F2
:1000E000A3030008A303000800000000A303000806
:1000F000A3030008A3030008A3030008A303000848
:10010000A3030008A3030008A3030008A303000837
:10011000A3030008A3030008D11C0090A303000858
:10012000A3030008A3030008A3030008A303000817
:10013000A3030008A3030008A3030008A303000807
:1001400000000000000000000000000000000000AF
:10015000A3030008A3030008A3030008A3030008E7
:10016000A3030008A3030008A3030008A3030008D7
:10017000A3030008A3030008A3030008A3030008C7
:10018000A3030008A3030008A3030008A3030008B7
:10019000A3030008A3030008A3030008A3030008A7
:1001A000A3030008A3030008A3030008A303000897
:1001B000A3030008A3030008A3030008A303000887
:1001C000A3030008A3030008A3030008A303000877
:1001D000A3030008A3030008A3030008A303000867
:1001E000A3030008A3030008A3030008A303000857
:1001F000A3030008A3030008A3030008A303000847
:10020000A3030008A3030008A3030008A303000836
:10021000A3030008A3030008A3030008A303000826
:10022000A3030008A3030008A303000800000000C4
:10023000A3030008A303000800000000A3030008B4
:10024000A3030008A3030008A3030008A3030008F6
:10025000A3030008A3030008A3030008A3030008E6
:10026000A3030008A3030008A3030008A3030008D6
:10027000A3030008A3030008A30300080000000074
:10028000A3030008A3030008A30300080000000064
:1002900000000000A303000800F002F800F064F87A
:1002A0000AA090E8000C82448344AAF10107DA45D1
:1002B00001D100F059F8AFF2090EBAE80F0013F0BF
:1002C000010F18BFFB1A43F001031847BC290000B7
:1002D000DC2900000A444FF0000C10F8013B13F039
:1002E000070408BF10F8014B1D1108BF10F8015B8F
:1002F000641E05D010F8016B641E01F8016BF9D182
:1003000013F0080F1EBF10F8014BAD1C0C1B09D1D8
:100310006D1E58BF01F801CBFAD505E014F8016B4A
:1003200001F8016B6D1EF9D59142D6D370470000DC
:100330000023002400250026103A28BF78C1FBD8EE
:10034000520728BF30C148BF0B6070471FB502F08D
:100350008DFC00F0B5F804000020002102F070FCD4
:10036000E0601FBD10B510BD00F0B2F81146FFF7F8
:10037000EDFF02F0A3FA00F0D0F803B4FFF7F2FFAC
:1003800003BC02F04EFA00000948804709480047C4
:10039000FEE7FEE7FEE7FEE7FEE7FEE7FEE7FEE735
:1003A000FEE7FEE704480549054A064B7047000092
:1003B0005D27000899020008C0AF0624C0B90624D2
:1003C000C0B10624C0B10624704753EA020C00F005
:1003D00069802DE9F04B4FF00006002B1FBFB3FAE8
:1003E00083F503FA05F424FA05F65E4012BF1643BE
:1003F000B2FA82F502FA05F4C5F120051EBF22FA11
:1004000005FC44EA0C04203556EA044C4FEA144437
:1004100018BF641C4FF000084FF00009904271EBC8
:10042000030C39D3002919BFB1FA81F701FA07F695
:10043000B0FA80F700FA07F6C7F120071EBF20FACE
:1004400007FC46EA0C062037B6FBF4FCA7EB0507D1
:10045000103F07F01F0BCBF120060CFA0BFB2CFA18
:1004600006F644BFB3460026202FA4BF5E464FF0D9
:10047000000B5BEA060C08BF4FF0010B19EB0B09F0
:10048000ABFB027C48EB0608C01B06FB02CC0BFB57
:1004900003CC71EB0C01C1E70B46024641464846CE
:1004A000BDE8F08B13B54FF000004FF00001AFF343
:1004B0000080BDE81C407047704770477047704728
:1004C0000048704780AF06240048704760AF06249C
:1004D0007546FFF7F9FFAE4605006946534620F022
:1004E0000700854618B020B5FFF75CFFBDE8204047
:1004F0004FF000064FF000074FF000084FF0000BE0
:1005000021F00701AC46ACE8C009ACE8C009ACE892
:10051000C009ACE8C0098D46704710B50446AFF37A
:1005200000802046BDE81040FFF727BF41F6453C5C
:10053000C9F2000C604741F6051CC9F2000C604787
:1005400047F2394CC9F2010C604749F6793CC9F2CF
:10055000020C604746F6252CC9F2010C604743F6B1
:10056000E94CC9F2010C604749F6E55CC9F2020C9E
:10057000604746F6113CC9F2000C60474FF61D0C6F
:10058000C9F2010C604745F6796CC9F2020C60476C
:1005900045F6C56CC9F2020C60474AF6ED0CC9F28B
:1005A000010C604748F6953CC9F2020C604741F6E1
:1005B000D52CC9F2000C604740F27D4CC9F2000C0A
:1005C0006047FEE7704700002DE9F05F002808D083
:1005D00090F83510022906D0802141650120BDE840
:1005E000F09F0120FBE79E4A9D4B9D4C18329C4D8D
:1005F00030339B4E48349A4F6035DFF864B278361A
:10060000DFF85CE29037DFF85C82DFF858920EF199
:10061000A80EDFF850A208F11808016809F1900946
:10062000DFF840C20AF1A80A59452ED091422CD0D9
:1006300099422AD0A14228D0A94226D0B14224D042
:10064000B94222D0F34659451FD061451DD04145DE
:100650001BD0DFF810B20BF1300B594515D0DFF885
:1006600004B20BF1480B59450FD0DFF8F8B10BF18C
:10067000600B594509D0DFF8ECB10BF1780B594507
:1006800003D0494501D0514536D14FF0040B80F8D5
:1006900035B07348814225D0914223D0994221D070
:1006A000A1421FD0A9421DD0B1421BD0B94219D0DE
:1006B000714517D0614515D0414513D06948303098
:1006C00081420FD06748483081420BD06548603086
:1006D000814207D063487830814203D0494501D038
:1006E000514504D1086820F001000860B6E00868B0
:1006F00020F001000860B1E0D1F800E02EF00E0E0D
:10070000C1F800E0DFF858E1016871452DD0914251
:100710002BD0994229D0A14227D0A94225D0B1425D
:1007200023D0B94221D0DFF838E10EF1A80E71458F
:100730001BD0614519D0414517D0DFF828E10EF1F3
:10074000300E714511D0DFF81CE10EF1480E7145F5
:100750000BD0DFF810E10EF1600E714505D0594560
:1007600003D0494501D0514506D1D1F800E02EF023
:10077000010EC1F800E005E0D1F800E02EF0010E16
:10078000C1F800E0DFF8D8E00168714544D091423B
:1007900042D0994240D0A1423ED0A9423CD0B14281
:1007A0003AD0B94238D02E4AA832914234D061456D
:1007B00032D0414530D02B4A303291422CD0294A98
:1007C0004832914228D0274A6032914224D059457C
:1007D00022D0494520D051451ED0234A91421BD0FA
:1007E000214A1432914217D01F4A2832914213D025
:1007F0001D4A3C3291420FD01B4A503291420BD0DD
:10080000194A6432914207D0174A7832914203D094
:10081000154A8C32914218D1016E0A6822F4807216
:100820000A60816D90F85C2002F01F0301229A405B
:100830004A60D0E919215160C16E31B10A6822F4D1
:1008400080720A60D0E91C215160002180F83410C8
:10085000012180F83510016D01B188470020BEE606
:100860001000024010040240085402580248016877
:1008700041F0010101607047200400582DE9F84F54
:1008800000226E4C4FF0B0494FF0010A4FF0030EBA
:100890004FF00F08CAE00AFA02F73B40002B70D075
:1008A0004D68022D01D0122D12D1D50800EB850C18
:1008B000DCF820605507ED0E08FA05FB26EA0B066A
:1008C000D1F810B00BFA05FB4BEA060BCCF820B0C0
:1008D000D0F800C055000EFA05F62CEA060C91F887
:1008E00004B00BF0030B0BFA05FB4BEA0C0BC0F842
:1008F00000B0D1F804C0BCF1010F08D0BCF1020F68
:1009000005D0BCF1110F02D0BCF1120F16D1D0F8F6
:1009100008C02CEA060CD1F80CB00BFA05FB4BEA28
:100920000C0BC0F808B0D0F804C02CEA070C0F7903
:10093000C7F30017974047EA0C074760C768B743FB
:100940008E68AE403E43C6604D68ED006DD53C4DAF
:100950002E6846F002062E602D6805F0020500950F
:1009600022F0030606F1B046D6F808C495072F0F0B
:1009700008FA07F52CEA050C324DA84202D10025F1
:100980002EE052E0304DA84201D1012528E02F4D44
:10099000A84201D1022523E02D4DA84201D1032513
:1009A0001EE02C4DA84201D1042519E02A4DA84291
:1009B00001D1052514E0294DA84201D106250FE0FB
:1009C000274DA84201D107250AE0264DA84201D1B2
:1009D000082505E0244DA84201D1092500E00A259B
:1009E000BD4045EA0C05C6F8085425689D434E688D
:1009F000F60300D51D43256065689D434E68B60328
:100A000000D51D436560D9F800509D434E68F6023D
:100A100000D51D43C9F80050D9F804509D434E68D5
:100A2000B60200D51D43C9F80450521C0B6833FAB6
:100A300002F57FF430AFBDE8F88F00008000005869
:100A4000F4440258000002580004025800080258FA
:100A5000000C0258001002580014025800180258E6
:100A6000001C025800200258002402580069084265
:100A700001D00120704700207047002A01D0816119
:100A8000704709048161704701480068000C704795
:100A90000010005C014880687047000014000024CA
:100AA0000248816802781144816070471400002474
:100AB00010B5032000F0C8F801F0ACF80E4A116838
:100AC000C1F303230D49CB5C03F01F03D8400C4B4B
:100AD0001860126802F00F02895C01F01F01C84023
:100AE000084908600F2000F00FF808B1012010BD80
:100AF00000F07CF8002010BD18440258762C000845
:100B0000000000240400002470B504460F4D2A782C
:100B1000002A0CD04FF47A700D49B0FBF2F009684E
:100B2000B1FBF0F001F05CFC18B1012070BD0120B8
:100B300070BD102C07D200222146501E00F064F830
:100B40006C60002070BD012070BD00001400002406
:100B500000000024144A41781160111D03780A1D19
:100B6000002B1CD043680B60017BC37A090741EA64
:100B70000361837A41EAC341437B41EA8341837B3A
:100B800041EA4341C37B41EA0341437A41EA0321FD
:100B9000037A007841EA4301014311607047002065
:100BA000086010607047000098ED00E0BFF35F8FB1
:100BB0000448016821F4803101600249002070314D
:100BC0000860704724ED00E0074940F0010008602C
:100BD00005487038016841F480310160BFF34F8FE0
:100BE000BFF36F8F7047000094ED00E0704700285E
:100BF00009DB012100F01F0291404009800000F153
:100C0000E020C0F800117047F0B40D460D4B1B6892
:100C1000C3F30223C3F10704042C00D90424191DD3
:100C2000072901D2002300E0DB1E012606FA04F1A9
:100C3000491E294099409E40761E16403143F0BC23
:100C400001F0DFBD0CED00E000F00701054A10687F
:100C50004FF6FF03184040EA0120034908431060A3
:100C6000704700000CED00E00000FA050248016842
:100C700041F08071016070470C48025810B500F0D7
:100C8000C9FF06490968064AC1F30321515C01F016
:100C90001F01C8400349086010BD000018440258F5
:100CA000762C00080000002410B500F079FF0549FB
:100CB0000968054AC1F30211515C01F01F01C840E7
:100CC00010BD000020440258762C000810B5694978
:100CD0000A6802F003020968C1F30531654B1B1D68
:100CE0001B68C3F30013634C14342468C4F3CC04AE
:100CF00014FB03F300EE103AB8EE400A002971D05D
:100D00009FED5D1A5B4BF7EE000A1033F2B39FEDD7
:100D10005B2A012A7FD0022A7CD001EE901A196842
:100D2000F8EE611AC2EE212AC1F3080101EE901A11
:100D3000F8EE611A40EE011A31EEA00A22EE800AA6
:100D40001968C1F3462101EE101AB8EE411A31EECE
:100D5000201AC0EE011ABCEEE11A80ED001A1968E3
:100D6000C1F3064101EE101AB8EE411A31EE201A15
:100D7000C0EE011ABCEEE11A80ED011A1968C1F348
:100D8000066101EE101AB8EE411A00E008E071EEBB
:100D9000200A80EE201ABCEEC10A80ED020A10BDC6
:100DA000344A283A1468A4061ED51268C2F3C10456
:100DB000334AE24001EE902AF8EE612A01EE901AE1
:100DC0001968F8EE611A82EEA12AC1F3080101EE5A
:100DD000901AF8EE611A40EE011A31EEA00A22EEE6
:100DE000000AADE741E016E001EE901ADFED252A9A
:100DF0001968F8EE611A82EEA12AC1F3080101EE2A
:100E0000901AF8EE611A40EE011A31EEA00A22EEB5
:100E1000000A95E713E001EE901A1968F8EE611ADE
:100E2000C2EE212AC1F3080101EE901AF8EE611A10
:100E300040EE011A31EEA00A22EE800A80E701EEB0
:100E4000901ADFED112A1968F8EE611A82EEA12AD4
:100E5000C1F3080101EE901AF8EE611A40EE011A92
:100E600031EEA00A22EE000A6AE70021016041602B
:100E7000816010BD28440258000000390024744AE3
:100E80000090D0030024744C0024F44A10B5694942
:100E90000A6802F003020968C1F30551654B1B1D86
:100EA0001B68C3F30023634C1C342468C4F3CC04D4
:100EB00014FB03F300EE103AB8EE400A002971D09B
:100EC0009FED5D1A5B4BF7EE000A1833F2B39FED0E
:100ED0005B2A012A7FD0022A7CD001EE901A196881
:100EE000F8EE611AC2EE212AC1F3080101EE901A50
:100EF000F8EE611A40EE011A31EEA00A22EE800AE5
:100F00001968C1F3462101EE101AB8EE411A31EE0C
:100F1000201AC0EE011ABCEEE11A80ED001A196821
:100F2000C1F3064101EE101AB8EE411A31EE201A53
:100F3000C0EE011ABCEEE11A80ED011A1968C1F386
:100F4000066101EE101AB8EE411A00E008E071EEF9
:100F5000200A80EE201ABCEEC10A80ED020A10BD04
:100F6000344A283A1468A4061ED51268C2F3C10494
:100F7000334AE24001EE902AF8EE612A01EE901A1F
:100F80001968F8EE611A82EEA12AC1F3080101EE98
:100F9000901AF8EE611A40EE011A31EEA00A22EE24
:100FA000000AADE741E016E001EE901ADFED252AD8
:100FB0001968F8EE611A82EEA12AC1F3080101EE68
:100FC000901AF8EE611A40EE011A31EEA00A22EEF4
:100FD000000A95E713E001EE901A1968F8EE611A1D
:100FE000C2EE212AC1F3080101EE901AF8EE611A4F
:100FF00040EE011A31EEA00A22EE800A80E701EEEF
:10100000901ADFED112A1968F8EE611A82EEA12A12
:10101000C1F3080101EE901AF8EE611A40EE011AD0
:1010200031EEA00A22EE000A6AE700210160416069
:10103000816010BD28440258000000390024744A21
:101040000090D0030024744C0024F44A2DE9F84F9A
:10105000044600250026FB4F2068DFF8EC830101E1
:1010600004F1240000900DD5606EB0B1B0F5801F82
:1010700018D0B0F5001F1BD0B0F5401F00D00125DF
:10108000E5B12E462088C00535D5606D05282FD2E4
:10109000DFE800F01D22282F2F00386840F40030D0
:1010A0003860EDE70221201D01F030FA0546E7E740
:1010B0000098022101F0BCFA0546E1E7D8F80000EB
:1010C000616E20F440100843C8F80000DAE7386881
:1010D00040F4003038600CE00021201D01F016FAC9
:1010E000054606E00098002101F0A2FA054600E05E
:1010F00001255DB12E462088800518D5A06D802879
:1011000030D00CDC18B340280ED125E0D8F8000010
:10111000616D20F007000843C8F80000EBE7C02825
:1011200003D0B0F5807F00D001250DB32E46208876
:10113000DFF8189340052DD5D4F8A400B0F5800F42
:1011400042D01EDCA0B3B0F5001F20D136E03868D5
:1011500040F400303860E8E70021201D01F0D6F9A6
:101160000546E2E70098002101F062FA0546DCE757
:10117000D8F80000A16D20F4E0700843C8F8000022
:10118000D5E7B0F5C00F03D0B0F5000F00D00125B2
:1011900005B32E46208800052FD5D4F8A800B0F15D
:1011A000007F54D020DCE8B3B0F1807F22D148E04A
:1011B000FFE7386840F400303860E9E70021201D7F
:1011C00001F0A4F90546E3E70098002101F030FAA8
:1011D0000546DDE7D9F80000D4F8A41020F460003B
:1011E0000843C9F80000D5E7B0F1407F03D0B0F163
:1011F000806F00D0012585B32E462068DFF850B2FD
:1012000080010AD5A06C30B1102831D0202835D00B
:10121000302800D0012585B32E462088C00446D54D
:10122000E06D00E008E0B0F5005F5BD036DCA0B315
:10123000B0F5805F38D14FE0386840F40030386056
:10124000D9E70021201D01F061F90546D3E7009898
:10125000002101F0EDF90546CDE7FFE7D9F80000E0
:10126000D4F8A81020F0E0600843C9F80000C4E7F3
:10127000386840F400303860CDE705E00221201DD9
:1012800001F044F90546C6E7DBF80000A16C20F048
:1012900030000843CBF80000BFE718E0B0F5405F2E
:1012A00003D0B0F5804F00D001250DB32E46208825
:1012B00080042FD5206EB0F5403F29D021DC38B313
:1012C000B0F5803F37D0B0F5003F20D139E0386825
:1012D00040F400303860E8E70021201D01F016F9E5
:1012E0000546E2E70098002101F0A2F90546DCE797
:1012F000D8F80000E16D20F4E0400843C8F8000091
:10130000D5E7B0F5802F03D0B0F5A02F00D0012590
:10131000EDB12E46208840042BD5D4F8AC00B0F1B6
:10132000405F24D01CDC10B3B0F1805F49D0B0F135
:10133000005F1BD14CE00121201D01F0E7F80546BC
:10134000E6E70098012101F073F90546E0E7D8F8D7
:101350000000216E20F4E0200843C8F80000D9E71F
:10136000B0F1804F03D0B0F1A04F00D0012575B38C
:101370002E46208800040AD5E06E30B1B0F1805FBF
:1013800037D0B0F1005F39D001258DB32E462068EB
:10139000C0010AD5606C30B101283FD0022842D08C
:1013A000032800D001257DB32E462068400261D578
:1013B0002848016841F480710160FFF76BFB8246A9
:1013C00052E00121201D01F0A1F80546CFE705E01C
:1013D0000098012101F02CF90546C8E7D9F8000072
:1013E000D4F8AC1020F0E0400843C9F80000C0E792
:1013F0000BE0386840F400303860C6E70121201D5A
:1014000001F084F80546C0E713E0D8F80000E16E6B
:1014100020F040500843C8F80000B8E7386840F4AE
:1014200000303860BFE70221201D01F06FF805464B
:10143000B9E7DBF80000616C20F003000843CBF84B
:101440000000B2E72C440258504402585844025855
:101450004C44025800480258FFF71CFBA0EB0A005E
:10146000642801D9032503E0FE480068C005F3D5D0
:101470007DB12E462078DFF8F0A3C00766D0A06FBC
:10148000182861D05BDC80B308286AD010285AD1B4
:101490006DE0F5481C300068B4F8B01000F44070FE
:1014A00001F4407188420DD0EF481C30016821F4EE
:1014B0004071026842F480320260026822F4803295
:1014C00002600160D4F8B000B0F5807F13D1FFF75F
:1014D000E1FA82460AE0FFF7DDFAA0EB0A0141F2E9
:1014E0008830814202D9032505E02DE0DE481C301A
:1014F00000688007EFD50DB12E46BBE7D4F8B000E9
:10150000C0F3012103290FD0D7484438016821F4E2
:101510007C510160D4481C300168B4F8B020C2F39B
:101520000B0211430160A5E7CF4944390A68CF4B4C
:1015300022F47C52184042EA10100860EAE72028A2
:1015400002D0282800D00125BDB12E462078800782
:101550002BD5606F062825D2DFE800F025181E2560
:1015600025250121201D00F0D1FF0546ECE700985C
:10157000012101F05DF80546E6E7DAF80000A16F09
:1015800020F038000843CAF80000DFE70121201DE1
:1015900000F0BCFF054606E00098012101F048F884
:1015A000054600E0012565B12E462078400720D58C
:1015B000D4F89000062819D2DFE800F0190C1219AF
:1015C0001919DAF80000616F20F007000843CAF823
:1015D0000000EAE70121201D00F098FF054606E023
:1015E0000098012101F024F8054600E001258DB1A5
:1015F0002E462078800620D5D4F88C00B0F1405FCC
:1016000019D011DCB8B1B0F1805F27D0B0F1005F24
:1016100010D129E0D9F80000D4F8901020F007008C
:101620000843C9F80000E4E7B0F1804F03D0B0F1FF
:10163000A04F00D00125EDB12E46207840062CD5D4
:10164000D4F89800B0F5406F25D01DDC18B3B0F584
:10165000806F33D0B0F5006F1CD135E00021201D24
:1016600000F054FF0546E6E70098022100F0E0FF95
:101670000546E0E7DAF80000D4F88C1020F0E040EE
:101680000843CAF80000D8E7B0F5805F03D0B0F592
:10169000A05F00D00125EDB12E46207800062CD5A4
:1016A000D4F89C00B0F5C04F25D01DDC18B3B0F5C0
:1016B000005F2BD0B0F5804F1CD12DE00021201D04
:1016C00000F024FF0546E6E70098022100F0B0FF95
:1016D0000546E0E7D9F80000D4F8981020F4E0506F
:1016E0000843C9F80000D8E7B0F5004F03D0B0F5C3
:1016F000204F00D00125ADB12E46207800072AD515
:10170000D4F88000B0F5805F16D01BE00021201DCA
:1017100000F0FCFE0546EEE70098022100F088FF8D
:101720000546E8E7D9F80000D4F89C1020F46040A2
:101730000843C9F80000E0E70098022100F078FFB4
:1017400000B10126DAF80000D4F8801020F44050EF
:101750000843CAF800002078C00613D5D4F89400D6
:10176000B0F5807F05D10098022100F061FF00B143
:101770000126D9F80000D4F8941020F440700843F2
:10178000C9F80000206800030BD5D4F8A000E8B326
:10179000B0F5803F6DD0B0F5003F00D00125B5B366
:1017A0002E46206840030DD5D4F88400B0F5801F84
:1017B00070D0B0F5001F6ED0B0F5401F00D00125ED
:1017C00035B32E462068C00307D5E06CF0B3B0F502
:1017D000803F77D00125D5B32E462068800005D5FF
:1017E0000098022100F024FF00B101262068800348
:1017F00011D5E06F48B1B0F5807F6FD0B0F5007FB4
:1018000003D0B0F5407F00D0012502E044E04FE076
:1018100066E06DB32E462068C00207D5D8F80000F8
:10182000216F20F000400843C8F8000020688002C3
:1018300007D5D8F80000A16E20F080700843C8F8E2
:1018400000002068400016D5074801E052E05CE047
:101850004438016821F4004101600168D4F8B820DF
:10186000114307E00048025854440258FFFCFF0FA0
:1018700059E017E001602068002807DADBF8000073
:10188000216D20F040500843CBF800003EB301200A
:10189000BDE8F88F17E01BE00021201D00F036FEA8
:1018A00005467CE70098022100F0C2FE054676E777
:1018B000D9F80000D4F8A01020F440300843C9F84B
:1018C00000006EE71BE0386840F40030386077E7CE
:1018D0000098012100F0ACFE054671E71EE02BE008
:1018E000DAF80000D4F8841020F440100843CAF855
:1018F000000067E7386840F4003038606BE7022189
:10190000201D00F003FE054665E7DBF80000E16CF2
:1019100020F480300843CBF800005EE7386840F4DC
:101920000030386071E7DAF80000E16F20F44070B1
:101930000843CAF800006EE70020A9E72DE9F05F30
:1019400004460D46002C17D0DFF83882D8F8000086
:1019500000F00F00A84211D2D8F8000020F00F00CC
:101960002843C8F80000D8F8000000F00F00A84293
:1019700004D00120BDE8F09F0120FBE72078824ED3
:1019800040070AD52069316801F07001884204D906
:10199000316821F070010143316020787B4F0007EE
:1019A0000AD56069396801F07001884204D9396844
:1019B00021F07001014339602078C0060AD5A06982
:1019C000396801F4E061884204D9396821F4E061A2
:1019D000014339602078DFF8B89180060DD5E069C1
:1019E000D9F8001001F07001884206D9D9F800102A
:1019F00021F070010143C9F80010207880070AD552
:101A0000E068316801F00F01884204D9316821F0A3
:101A10000F01014331602078C00743D03068A168CE
:101A200020F4706008433060574960681839022814
:101A300008D003280BD001280ED00968490710D41C
:101A4000012097E7096889030BD4012092E7096810
:101A5000890106D401208DE70968C90501D4012058
:101A600088E7DFF824A1AAF1080ADAF8001021F0CB
:101A700007010143CAF80010FFF70CF8834609E09C
:101A8000FFF708F8A0EB0B0141F28830814201D941
:101A900003206FE7DAF80000616800F03800B0EB6F
:101AA000C10FEDD1207880070AD5E068316801F0D8
:101AB0000F01884204D2316821F00F0101433160E7
:101AC000D8F8000000F00F00A8420ED9D8F80000A6
:101AD00020F00F002843C8F80000D8F8000000F0FC
:101AE0000F00A84201D0012044E7207840070AD522
:101AF0002069316801F07001884204D2316821F018
:101B0000700101433160207800070AD560693968A7
:101B100001F07001884204D2396821F0700101435C
:101B200039602078C0060AD5A069396801F4E061FF
:101B3000884204D2396821F4E06101433960207899
:101B400080060DD5E069D9F8001001F070018842D7
:101B500006D2D9F8001021F070010143C9F8001035
:101B600000F058F831680B4AC1F30321515C01F0D1
:101B70001F01C8400849086008480068BDE8F05FD8
:101B8000FEF7C2BF00200052184402581C440258FD
:101B900020440258762C000800000024180000247D
:101BA00010B5FFF76BF806490968064A01F00F0106
:101BB000515C01F01F01C8400349086010BD0000DE
:101BC00018440258762C00080400002410B5FFF7D2
:101BD000E7FF05490968054AC1F30211515C01F0AC
:101BE0001F01C84010BD00001C440258762C00089C
:101BF00010B5FFF7D5FF05490968054AC1F3022171
:101C0000515C01F01F01C84010BD00001C44025887
:101C1000762C000830B564480068654C10F0380137
:101C2000624808D0021108290DD010290DD01829BA
:101C30000DD0104630BD21688906FBD52168C1F35F
:101C4000C101C84030BD104630BD5A4830BD56496C
:101C500018310A6802F003020968C1F30511524BFA
:101C60001C331B6803F001034F4D24352D68C5F369
:101C7000CC0515FB03F300EE103AB8EE400A00293C
:101C800077D0DFED4D0A484BB7EE001A20333AB358
:101C90009FED4A2A012A58D0022A6CD001EE901AF0
:101CA0001868F8EE611AC2EE212AC0F3080001EEAE
:101CB000900AF8EE611A40EE201A31EE810A22EE07
:101CC000800A1868C0F34620401C00EE900AF8EE27
:101CD000600A80EE201ABCEEC10A10EE100A30BD78
:101CE000226892061BD52268C2F3C102D04001EEE1
:101CF000900A1868F8EE612A01EE901AF8EE611A5F
:101D000082EEA12AC0F3080001EE900AF8EE611AF3
:101D100040EE201A31EE810A22EE000AD1E701EEF0
:101D2000901ADFED272A1868F8EE611A82EEA12AD0
:101D3000C0F3080001EE900AF8EE611A40EE201A96
:101D400031EE810A22EE000ABBE701EE901A186814
:101D5000F8EE611AC2EE212AC0F3080001EE900AE3
:101D6000F8EE611A40EE201A31EE810A22EE800A66
:101D7000A7E716E0FFE701EE901ADFED122A1868D8
:101D8000F8EE611A82EEA12AC0F3080001EE900A73
:101D9000F8EE611A40EE201A31EE810A22EE000AB6
:101DA0008FE7002030BD0000104402580090D0039F
:101DB0000044025800127A00000000390024744ADE
:101DC0000024744C0024F44A2DE9F05F0446002CF2
:101DD00012D0207841F28837DFF8D883F64EF74DDD
:101DE000C0075FD0D8F8000000F038003168102834
:101DF0001FD0182803D006E00120BDE8F09F01F0B5
:101E00000300022815D06068B0F5803F18D0E0B11B
:101E1000B0F5A02F22D0286820F4803028602868F0
:101E200020F480202860606868B3FEF733FE8146A6
:101E300025E02868800335D5606818BB0120DCE701
:101E4000286840F480302860EDE7286820F480306E
:101E50002860286820F480202860E4E7286840F49F
:101E600080202860286840F480302860DBE7FEF797
:101E700011FEA0EB0900B84201D90320BDE7286894
:101E80008003F4D50EE0FEF705FE814607E0FEF77D
:101E900001FEA0EB0900B84201D90320ADE7286894
:101EA0008003F4D4207841F2030BDFF81493800709
:101EB0006AD5D8F8000000F03800316870B11828F1
:101EC00001D188070AD0E06878B3296821F01901A8
:101ED00001432960FEF7DEFD824627E028684007BF
:101EE00001D5E06868B1FEF7CFFD58450BD8D9F8A9
:101EF0000000216920F47C3040EA0130C9F800007C
:101F000042E0012079E7D9F80000217C20F0FE4072
:101F100040EA0160C9F8000036E0FEF7BBFDA0EB27
:101F20000A00022802D9032067E71AE02868400760
:101F3000F3D5FEF7A9FD584509D8D9F80000216965
:101F400020F47C3040EA0130C9F800001CE0D9F8E8
:101F50000000217C20F0FE4040EA0160C9F800004A
:101F600012E0286820F001002860FEF793FD824609
:101F700007E0FEF78FFDA0EB0A00022801D903203D
:101F80003BE728684007F4D42078C00671D5D8F81C
:101F9000000000F03800316808280FD0182803D15D
:101FA00001F00300012809D0E06988B3286840F0F7
:101FB00080002860FEF76EFD82462AE02868C00592
:101FC00004D5E069802801D0012016E7FEF75CFD0A
:101FD00058450AD8D9F8000094F8201020F0F840AD
:101FE00040EA8160C9F8000043E07248001F0168C0
:101FF00094F8202021F07C5141EA0261016038E030
:10200000FEF748FDA0EB0A00022802D90320F4E6FF
:102010001CE02868C005F3D5FEF736FD58450AD800
:10202000D9F8000094F8201020F0F84040EA8160D0
:10203000C9F800001DE05F48001F016894F82020E7
:1020400021F07C5141EA0261016012E0286820F031
:1020500080002860FEF71EFD814607E0FEF71AFDAE
:10206000A0EB0900022801D90320C6E62868C005B4
:10207000F4D42078000732D5DFF83CA160690AF17A
:102080004C0AB0B1DAF8000040F00100CAF80000D4
:10209000FEF700FD814607E0FEF7FCFCA0EB09001F
:1020A000022801D90320A8E6DAF800008007F3D55A
:1020B00015E0DAF8000020F00100CAF80000FEF791
:1020C000E9FC814607E0FEF7E5FCA0EB09000228E9
:1020D00001D9032091E6DAF800008007F3D42078D4
:1020E000800628D5A06998B1286840F480502860FF
:1020F000FEF7D0FC814607E0FEF7CCFCA0EB090020
:10210000022801D9032078E628688004F4D512E07B
:10211000286820F480502860FEF7BCFC814607E068
:10212000FEF7B8FCA0EB0900022801D9032064E601
:1021300028688004F4D4207840077DD5DFF884A097
:10214000DAF8000040F48070CAF80000FEF7A2FC44
:10215000814607E0FEF79EFCA0EB0900642801D948
:1021600003204AE6DAF80000C005F3D5DFF848900E
:10217000A06809F14809012814D0D0B1052830D051
:10218000D9F8000020F00100C9F80000D9F80000DB
:1021900020F00400C9F80000A06878B3FEF77AFCCC
:1021A000824634E0D9F8000040F00100C9F8000090
:1021B000F2E709E01044025828440258004402584B
:1021C0000444025800480258D9F8000020F00100E9
:1021D000C9F80000D9F8000020F00400C9F8000098
:1021E000DAE7D9F8000040F00400C9F80000D9F897
:1021F000000040F00100C9F80000CDE70CE0FEF758
:1022000049FCA0EB0A00B84201D90320F5E5D9F852
:1022100000008007F3D50FE0FEF73CFC824607E0A4
:10222000FEF738FCA0EB0A00B84201D90320E4E530
:10223000D9F800008007F3D4616AE9B3D8F8000048
:10224000DFF87C81C0F3C200032876D0022907D0D2
:10225000286820F080702860FEF71CFC04467FE0B0
:10226000286820F080702860FEF714FC074606E01E
:10227000FEF710FCC01B022801D90320BDE5286829
:102280008001F5D4306840F2F3318843E16A40EAD6
:102290000110A16A08433060208E4FF6FF72616B17
:1022A000401E491EC0F3080002EA41210843218F65
:1022B0004FF4FE02491E00E07FE002EA01410843BC
:1022C00094F83C10491E120202EA01610843C8F862
:1022D00000003B48001F016821F0010101603849FE
:1022E000091D0A684FF6F8739A43A36C42EAC302C9
:1022F0000A600168226C21F00C0111430160016841
:10230000626C21F0020111430160016841F48031E7
:102310000160016841F400310160016841F48021ED
:102320000160016841F001010160286840F080709F
:102330002860FEF7AFFB044607E015E0FEF7AAFBB6
:10234000001B022801D9032057E528688001F5D534
:1023500033E0FEF79FFB001B022801D903204CE568
:1023600028688001F5D428E03268D8F800000129F7
:1023700021D0A36A02F0030199421CD1E16AC2F3A1
:102380000512914217D1216BC0F30802491E8A42FF
:1023900011D1616BC0F34622491E91420BD1A16B52
:1023A000C0F30642491E914205D1E16BC0F30660BD
:1023B000491E814201D001201FE500201DE50000DB
:1023C0003044025804284FF0E02104D0086920F07E
:1023D000040008617047086940F004000861704714
:1023E00010B5401EB0F1807F01D3012010BD4FF029
:1023F000E02460610F21601700F003FA0020A06163
:1024000007202061002010BD30B587B000681F494B
:10241000884239D11E48016841F01001016000680E
:1024200000F0100001901A481038016841F00101D5
:102430000160016801F001010191016841F00101B1
:102440000160006800F0010001904FF400700290FC
:10245000022003900121049105900724069402A90B
:102460000C4D2846FEF70AFA4FF48061029106945B
:1024700002A92846FEF702FA2520FEF7B8FB032240
:1024800025201146FEF7C0FB07B030BD001001400B
:10249000F04402580000025830B4006816498842DF
:1024A00028D1164A5088010419D411464FF0000370
:1024B0004404097807D50A2901D053800FE040F47D
:1024C000004050800BE00D2910D00D4DC0F30D04DD
:1024D0002955401C80B25080C72800D95380012262
:1024E000074830BC0549C830FEF720B840F48040AA
:1024F0005080F4E730BC7047001001400C0000240D
:1025000018050024FEE77047704700002DE9F047EA
:10251000044688460027DFF81491D9F80000C0432C
:10252000800709D0414D283D286820F08060286050
:10253000FEF7B0FA064609E00120BDE8F087FEF795
:10254000A9FA801B022801D90320F6E728680001B8
:10255000F5D4D9F80000216820F47C3040EA01303D
:10256000C9F80000A0884FF6FF72A168401E491EFE
:10257000C0F3080002EA41210843A1894FF4FE029A
:10258000491E02EA01410843217C1202491E02EA67
:10259000016108432549103108602448001D016885
:1025A000626921F0C001114301600168A26921F054
:1025B000200111430160016821F0100101601B49F5
:1025C00014310A684FF6F8739A43E36942EAC3028A
:1025D0000A60016841F010010160B8F1000F0ED0EF
:1025E000B8F1010F10D0016841F4001101602868B2
:1025F00040F080602860FEF74DFA044610E0016864
:1026000041F400210160F2E7016841F480110160AA
:10261000EDE7FEF73FFA001B022801D903208CE703
:1026200028680001F5D5384687E70000284402589D
:102630002DE9F047044688460027DFF81491D9F8C1
:102640000000C043800709D0414D283D286820F094
:1026500080502860FEF71EFA064609E00120BDE81A
:10266000F087FEF717FA801B022801D90320F6E74E
:1026700028688000F5D4D9F80000218820F07C700B
:1026800040EA0150C9F80000A0884FF6FF72A16827
:10269000401E491EC0F3080002EA41210843A189F7
:1026A0004FF4FE02491E02EA01410843217C120256
:1026B000491E02EA0161084325491831086024488F
:1026C000001D0168626921F44061114301600168E5
:1026D000A26921F4007111430160016821F4807145
:1026E00001601B491C310A684FF6F8739A43E3698D
:1026F00042EAC3020A60016841F480710160B8F1E6
:10270000000F0ED0B8F1010F10D0016841F08071B8
:102710000160286840F080502860FEF7BBF904464D
:1027200010E0016841F480010160F2E7016841F4C2
:1027300000010160EDE7FEF7ADF9001B022801D9A9
:1027400003208CE728688000F5D5384687E700002D
:10275000284402587047FEF7A3B9000020480168DA
:1027600041F4700101601F49086840F001000860F1
:102770001C4A0020103210600A681B4B1A400A6085
:10278000184A18321060121D1060121D1060154A90
:1027900028321060121D1060121D1060121D106092
:1027A000121D1060121D1060121D1060121D1060AD
:1027B0000A6822F480220A600A49603108600B48E6
:1027C00000686FF30F00B0F1005F02D208490120EA
:1027D00008604FF0006002498039086070470000CF
:1027E00088ED00E0004402587FEDF6EA0010005C3E
:1027F000088100510148FDF79EBE0000E00500245D
:10280000FEE70907090E002804DB00F1E02080F84C
:102810000014704700F00F0000F1E02080F8141D54
:102820007047704710B504460420FFF7CBFD014800
:10283000046010BD0800002470B51E21B0FBF1F447
:10284000B0FBF1F201FB120547F2305603E03046CF
:1028500000F00EF8641E002CF9D1002D06D04FF4C4
:102860007A706843BDE8704000F002B870BD0000A7
:1028700070B500214FF0E0256C690A4A1268504398
:10288000AB69AA699A42FCD003D2A3EB02031944B4
:1028900003E0A4EB02063344194413468142F0D30B
:1028A00070BD0000080000240349CA695206FCD527
:1028B000C2B28A62704700000010014000F02CF89C
:1028C000FEF7F6F8022204231146F02000F018F972
:1028D0004FF4F070FFF7A6FF4FF4E13000F094F9E9
:1028E000FDF72EFEFDF731FEFDF734FEFDF737FE56
:1028F0000020FDF739FE092045F6BF51FDF739FEEE
:10290000FDF73CFEFDF73FFEFDF742FEFDF745FEFD
:10291000FDF748FEFCE70000F0B5BFF34F8FBFF3B3
:102920006F8F1E4900200860BFF34F8FBFF36F8F7A
:102930001B4E316841F400313160BFF34F8FBFF35C
:102940006F8F174970310860BFF34F8F081F006801
:10295000C0F34E31114A43F6FF771032C0F3C90578
:10296000284607EA411343EA80741460401E441C61
:10297000F9D1491E481CF3D1BFF34F8F306840F4A2
:1029800080303060BFF34F8FBFF36F8F03484C3000
:10299000016841F004010160F0BD000050EF00E06B
:1029A00014ED00E0F0B587B004464C49086840F0EB
:1029B00002000860086800F002000190086840F01A
:1029C00008000860086800F008000190086840F0FE
:1029D00010000860086800F0100001903F480C38B3
:1029E000016841F480410160006800F4804001907A
:1029F00040200290022003900320059001200490C3
:102A00000A200690364F02A93846FDF737FF042604
:102A100002960925069502A93846FDF72FFF4FF4C7
:102A200060500290069502A92E48FDF727FF0296F6
:102A3000069502A92C48FDF721FF28486438016853
:102A400041F480410160016821F48041016027491F
:102A50008A689206FCD426480860264848600868C0
:102A600040F00100086088688006FCD44FF4837051
:102A7000486188688007FCD5C86840F00200C860DB
:102A800088688006FCD40022CA6140F6EB50A41C82
:102A900040EA043040F4404040F4801040F0407080
:102AA00040F0406048611448016821F480310160C1
:102AB000114970310B6823F001030B600B1D1A6084
:102AC00082061B1D1A601B1D0C4A1A6005220A6033
:102AD000016841F48031016007B0F0BDE044025864
:102AE00000040258000C0258001002580050005216
:102AF000100300010102180024ED00E02D00030383
:102B000070B5CCB03C4C256825F004052560002646
:102B10003A4C256825F0010525602468364C0C34B4
:102B2000256845F440452560256805F44045019534
:102B30002568AD04FCD5212431944FF480343294BF
:102B4000349638960124379402243A943B943D906D
:102B50003C913E923F93429608254195439631A879
:102B6000FFF732F910B101204CB070BD3F20449006
:102B700003204590469647954020499001014A918F
:102B800048904B90042144A8FEF7D8FE08B10120DC
:102B9000EAE71B48029003954FF4DC70049005941B
:102BA00006940794089609960A9613942020149088
:102BB0001F9620964FF44010239002A8FEF746FA85
:102BC00008B10120D0E70020FFF7ECFEFEF74EF839
:102BD0000C48016841F0800101600A48F430016846
:102BE00041F002010160006800F002000190FDF771
:102BF0003DFE0020B8E700000C4802582C040058A5
:102C0000030004030044025810B50B49094A0A6046
:102C1000486000208860C860086188610C204861B5
:102C20000846FDF7C4FCBDE81040044901220248F3
:102C3000FDF77CBC00100140E00500240C000024DE
:102C400010B500290AD00878002807D00548784434
:102C5000FDF7B2FC002801D0002010BD02487844E6
:102C600010BD00005A000000520000004FF04070FC
:102C7000E1EE100A704700000000010203040102A7
:102C80000304060708090000C42C00080000002403
:102C900018050000D4020008A82E0008180500241A
:102CA000A8B40600300300081C0000004300000028
:102CB000F8FFFFFF0C0000000E0000000F000000F6
:102CC0002E000000113C90D00304B132018210129A
:102CD000052401FFFF000D3C25E40290C1E70290AE
:102CE00081DF0290100BE59D0290119E029040073B
:102CF00032243230323842201540B7042414E00325
:102D0000301AF8141CF0012008011102272D29C4E3
:102D1000011C1EDC780990D4041AE0041ACC041AB1
:102D2000D0041AD8041AC8041E3C79099044041A25
:102D3000EC0C1AF4041A300C1AE4081A34081A2895
:102D4000041A08041A20041A14041AFC181EB87B6A
:102D50000990500C2152FF1F583A0390583B041A17
:102D60003C041A3D0429109904411A08201A08202D
:102D70001A08201AAC043910990401B845D4C3B21A
:102D8000A102176F180E5594029021930290999208
:102D9000029015041A0D101AD1081AF9041E647D48
:102DA00009906C041A74041EDC7B09907C082A8448
:102DB00010C47C09901E387E099020041A9C042AB5
:102DC000D03419081AB8041A50041A84041A1004CA
:102DD0001ADC181A7C08A9041AEC141119081A90A4
:102DE000041A6004690C29040A1DA8041AC43C1AB8
:102DF000B0041A8C040A29A0040168064318FCFFD9
:102E0000FF012705E88007C8286D802B04900C1B64
:102E100048540C12602403C0061B107D0C26F8C019
:102E2000070C2D1BD0830C263CA10949478BDCB035
:102E30000C8B25F8247C6E3F053C1B7A6C0C2648D5
:102E40004002CC038B3A730C200B0677059004C02C
:102E5000E215A0F08BD27A0C7C726B060C1E125C11
:102E6000079004482380047CB24C080C8B32510C30
:102E70009BB25518175A08900540841BC00C181AAD
:102E80005E182E84210C82495419182690C004081B
:102E9000101BF4B4182640440540598BFCC40C05A3
:082EA000003C1E099000000037
:0200000490006A
:1000000066292FF04480642900F05280782900F09E
:100010008B80732900F0FD84002070470FB40449E1
:1000200010B503AA029800F0F9FC10BC5DF814FBAF
:10003000100000240FB41CB5074B06AA7B44694688
:100040000090059800F0BBFC0020694600F0CAFC57
:100050001CBC5DF814FB0000A509000070B50C463F
:100060000546012A05D02878800600D5EA690023D4
:1000700002E0012305E05B1C934202D2E05C002811
:10008000F9D1A869E618C01AA861286A184428623C
:100090002846AFF3008004E0D5E9012114F8010BF4
:1000A0009047B442F8D32846AFF3008070BD0000FB
:1000B0002DE9F0410646002410687529314616A541
:1000C00010D0AFF30080002802DA404213A507E009
:1000D00031688A0701D512A502E0490704D511A5A8
:1000E000012401E0AFF3008000210A2206F1240779
:1000F00009E0B0FBF2FCB0FBF2F302FB1C00303075
:1001000078541846491C0028F3D123462A46304625
:10011000BDE8F04100F0E6B9000000002D0000004D
:100120002B0000002000000070B504460D4621465B
:100130001068AFF300802188090502D50F4A7A4480
:1001400002E00E4A7A440E32002104F1240305E055
:1001500000F00F060009965D5E54491C0028F7D197
:1001600020780023000704D5702D02D009B10223A6
:1001700011322046BDE8704000F0B4B93A7609006B
:100180002DE9F05F894604464FF0000ADFF824B1FC
:10019000FB44C0F820A02046E168884700287DD0B5
:1001A000252806D0D4E901219047206A401C20620E
:1001B000F1E700255F462046E1688847202806468B
:1001C00007DB312E05D2B81910F8200C08B1054311
:1001D000F1E7A80701D525F00405C4F81CA0002705
:1001E000C4F818A02A2E09D0304603F0BEFA38B35E
:1001F00004EB8708303EC8F8186019E059F8041B72
:10020000204604EB87029161E1688847012F06468A
:1002100018D1E069002820DA25F020051DE0D8F883
:10022000180000EB800006EB40003038C8F81800DA
:100230002046E1688847064603F097FA0028EED189
:10024000012F0AD02E2E08D12046E16888477F1C56
:100250000646022F45F02005C4DBA069002803DA1A
:10026000404245F00105A061E80701D025F01005E6
:10027000A6B1A6F14100192802D8203645F4006540
:100280004A463146204625604D46FFF7B9FE60B12B
:10029000012807D0ED1D25F0070000E007E000F180
:1002A000080978E705F1040975E730467AE7206A1E
:1002B000BDE8F09F1076090040EA0103024630B520
:1002C0009B0710D14FF0013400E008C208C91D1B84
:1002D0009D4315EAC41FF8D013F0FF0102F8011B7B
:1002E0000DD01B0AF8E711F8013B002B02F8013B87
:1002F00005D011F8013B002B02F8013BF3D130BDD2
:1003000010B5431C02E010F8011B71B18107FAD14E
:100310004FF0013202C88C1A8C4314EAC211F9D092
:10032000C01A0A0603D0C01E10BDC01A10BD0A04B0
:1003300001D0801E10BD0902FCD0401E10BD032A52
:1003400040F2308010F0030C00F0158011F8013BF2
:10035000BCF1020F624498BF11F801CB00F8013BD9
:1003600038BF11F8013BA2F1040298BF00F801CB9D
:1003700038BF00F8013B11F0030300F02580083A74
:10038000C0F0088051F8043B083A51F804CBA0E8CB
:100390000810F5E7121D5CBF51F8043B40F8043B20
:1003A000AFF30080D20724BF11F8013B11F801CB55
:1003B00048BF11F8012B24BF00F8013B00F801CB26
:1003C00048BF00F8012B704710B5203AC0F00B80F1
:1003D000B1E81850203AA0E81850B1E81850A0E849
:1003E0001850BFF4F5AF5FEA027C24BFB1E81850A3
:1003F000A0E8185044BF18C918C0BDE810405FEA13
:10040000827C24BF51F8043B40F8043B08BF70478E
:10041000D20728BF31F8023B48BF11F8012B28BF93
:1004200020F8023B48BF00F8012B70474FF0000254
:1004300000B5134694469646203922BFA0E80C50DA
:10044000A0E80C50B1F12001BFF4F7AF090728BFB5
:10045000A0E80C5048BF0CC05DF804EB890028BF31
:1004600040F8042B08BF704748BF20F8022B11F05A
:10047000804F18BF00F8012B704700004FF0013C7F
:1004800050F8042B51F8043B9A4215D1A2EB0C030F
:10049000934313EACC130BD150F8042B51F8043BCF
:1004A0009A4209D1A2EB0C03934313EACC13E7D091
:1004B0004FF00000704700BFD01A01BAB1FA81F1C5
:1004C00001F0180122FA01F0CB40C1F12001DBB2AA
:1004D000C0B2C01A2CFA01F3D11A914311EAC31128
:1004E000E6D170472DE9F0470D46994692460446FD
:1004F00000F124080168880604D5E06921F01001A4
:10050000216000E00120A84201DD471B00E0002738
:10051000A1697A1902EB0900081AA0612078C006C7
:1005200002D42046AFF30080002608E0D4E9012180
:100530001AF806009047206A401C761C20624E453F
:10054000F4DB2078C0060AD52046AFF3008006E031
:10055000D4E9012130209047206A401C2062381ED7
:10056000A7F10107F4DC07E0D4E9012118F8050040
:100570009047206A401C2062281EA5F10105F3DC8B
:100580002046AFF300802078000602D50220BDE8A7
:10059000F0870120FBE770472DE9FF4F0C461E4610
:1005A0004FF0FF378BB0D2E90001DDF860800A9090
:1005B0008A46C1F30A5505B93D46002108464FF069
:1005C0000000BAF1000F00F4400005DA00EB8000F3
:1005D0004FF4400101EA50004FEA9059B9F1010F80
:1005E00000DDB9460A9850EA4A000ED044F6105091
:1005F000A5F2FF3545432F14B8F1000F1ED0754208
:10060000291E1EDDC9F100021CE0B8F1010F4FF0F8
:10061000000001D0302103E0F24305E02154401CEA
:10062000B042FBDB30460022002121540B99C1F877
:100630000880C1E900200FB0BDE8F08FBD1B6D1C24
:10064000DEE74A4600DA694206A800F07FFA06AB08
:1006500093E8070003AB83E8070050460A9900F0CF
:10066000EBFA8DE80700A0F500501F3800900398C2
:10067000002D0ADD42F21F014A460844002303A967
:100680000390684600F054FD09E0A0F500504A468A
:100690001F38002303A90390684600F05EFD8DE833
:1006A00007000004000C03D04FF0FF30410800E0C9
:1006B0001046B8F1000F03D00022009215461EE04C
:1006C000751E05D400F0BCF9303262556D1EF9D5A7
:1006D000B3460122084302D000227F1C04E02078A8
:1006E000302801D100227F1E002A099784D01DE006
:1006F000112D07DA00F0A4F9303262556D1C50EA72
:100700000102F5D1084302D00098C8B10EE00021E3
:10071000681E05E0235C625C63542254401E491C41
:100720008142F7DBAB46A81B401E0990002004F86D
:100730000B000B98099AC0F80880C0E9002B7AE7F3
:1007400011264FF0000857E72DE9F04F8846044680
:10075000D21D22F0070191B0D1E90001CDE90A01D3
:1007600002F0CAFF02460B98C00F01D02D2007E00F
:100770002068810701D52B2002E0202101EAC0007A
:10078000032A099001D0072A05DB0346414620468B
:1007900000F09CF90BE12078800601D5E06900E0CB
:1007A0000620B8F1650F814606D0B8F1660F18D063
:1007B000B8F1670F70D131E00020B9F1110F00904E
:1007C00001DB112301E009F101030AAA01A90CA828
:1007D000FFF7E2FEDDE90C70002609F10105834612
:1007E00047E001204B4600904FF000470AAA01A9BC
:1007F0000CA8FFF7D1FEDDE90DB00C995D4600268F
:1008000010B909F101000D18B9EB050003D4C0F1CE
:10081000FF3609F10105A5EB09002BE0B9F1010F45
:1008200001DA4FF001090020B9F1110F009048469C
:1008300001DD112300E003460AAA01A90CA8FFF775
:10084000ABFEDDE90C704D4600268346207800079C
:100850000AD4AB4500DA5D4601A8012D04DD41193B
:1008600011F8011C302907D04F4502DA17F1040FA7
:1008700004DA012082460FE06D1EEEE7002F02DC55
:10088000ED1B3E4403E0781CA84200DD7D1CB81B34
:1008900000F1010A4FF000472078000703D4AA4571
:1008A00001DB4FF0FF3A0021B7F1004F0DF1430893
:1008B0008DF8431024D002202B23002F01DA7F4231
:1008C0002D230A21021EA0F1010000DC5FB197FB7D
:1008D000F1FC97FBF1F201FB1C7C17460CF1300C8C
:1008E00008F801CDEEE7A8F10100037021880905A1
:1008F00001D5452100E06521A0F1010800F8011CA7
:1009000009980FA9A1EB0807FF1D00B101204119AB
:1009100001EBEA70A1693844081A401EA0612078F2
:10092000C00602D42046AFF30080099828B1D4E96C
:1009300001219047206A401C20622078C00622D501
:100940002046AFF300801EE0002E04DBB34502DD3D
:1009500001A8805D00E03020D4E901219047206AA1
:10096000401C2062761CAAF101005FEA000A0AD14D
:1009700000F02AFDC0680168405CD4E9012190477D
:10098000206A401C2062281EA5F10105DCDC07E07E
:10099000D4E9012118F8010B9047206A401C20621D
:1009A000381EA7F10107F3DC2046AFF300800320D7
:1009B00011B041E601694A1C02610878704700B530
:1009C0008FB0CDE901310021059105497944CDE988
:1009D000031011466846FFF7D3FB0FB000BD0000BF
:1009E000E5FFFFFF0A6802F8010B0A60704710B5C7
:1009F000436913B1AFF3008001E0FFF72FFB012043
:100A000010BD127800F124010A7000224A70012200
:100A1000EDE711684FF0FF32E9E70000074B70B5D2
:100A20000D467B44FFF7CBFF0446284600F000F953
:100A300010B14FF0FF3070BD204670BD831E0078AE
:100A400030B5B0F10A024FEA900E71F100034EEAA0
:100A5000817EB0EB0E0061EB91014FEA101E4EEA71
:100A6000017E10EB0E0041EB11114FEA102E4EEA01
:100A7000016E10EB0E0041EB11214FEA104E4EEAD1
:100A8000014E10EB0E0041EB1141401841F1000105
:100A90004FEAD00040EA41704FEAD10110EB8005E7
:100AA0004FEA810444EA907444EB01046D1944EB6D
:100AB0000404521BA3414FF0000348BF0A3200D583
:100AC00030BD401C41F1000130BD00002DE9F04176
:100AD0001F46044603260168072A01F4006004DB70
:100AE00008B116A505E016A503E008B115A500E0BC
:100AF00015A521F010002060A069C01EA0610FB1F3
:100B0000401EA0612046AFF300804FB1D4E901211F
:100B100038469047206A401C2062C01C206206E0D4
:100B2000206AFAE7D4E9012115F8010B9047761EF7
:100B3000F8D22046AFF30080BDE8F0814E414E0070
:100B40006E616E00494E4600696E66002DE9F04701
:100B5000814616468AB0354878440DC88DE80D00A8
:100B600032487844801C03AC0DC884E80D0041F67F
:100B70009B300844372190FBF1F290FBF1F5A5F191
:100B8000800501FB12041B3C02D56442012000E0F9
:100B90000020DFF898A080460027FA44AAF1BE0A98
:100BA0000EE0E0070AD03246684607EB4701012312
:100BB0000AEB810100F0D1FA8DE8070064107F1C78
:100BC000002CEED1194F7F44AE3F19E0E80715D055
:100BD00007EB04100DF1180A90E80E008AE80E00E9
:100BE000C068F04201D1981908903246012306A945
:100BF00003A800F0B2FA03AB83E807006D10641C91
:100C0000002DE3D14FF0010332466946B8F1000FE1
:100C100003A802D000F08CFA01E000F09EFAC9E9C6
:100C20000001C9F808200AB0BDE8F087D86C0900B7
:100C3000007B00F0800070475FEA400C08BF91F035
:100C4000000F4FEA8C234FEAC12243EA51514FEA89
:100C50001C5018BF00F5F0404FEA300018BF41F0BB
:100C600000415FEA6C5C00F02980BCF1FF3F08BFE7
:100C700040F080407047130C06BF12044FF0100C78
:100C80004FF0000C130E04BF12020CF1080C130FEE
:100C900004BF12010CF1040C930F04BF92000CF17D
:100CA000020CD30F04BF52000CF1010C11464FF09F
:100CB0000002A0F11F00A0EB0C00704711F0004FE4
:100CC00008BF704731F000413FF4D5AF0B0C06BFB1
:100CD00009044FF0100C4FF0000C0B0E04BF09027A
:100CE0000CF1080C0B0F04BF09010CF1040C8B0F65
:100CF00004BF89000CF1020CCB0F04BF49000CF1BA
:100D0000010CCCF12003A0EB0C0022FA03F302FA51
:100D10000CF241EA030100F10100704720F07F4C22
:100D200080EA030023F07F47ACEB070303F57C5315
:100D300000F0004003F1FF032DE980494FEA154B15
:100D400009B44FEA144325EA0B4E24EA03480FF294
:100D5000042606EB132749083E785FEA320203FBBC
:100D60000667C7F5000707FB06F64FEA54374FEA58
:100D7000D64606F1020607FB066CCCF1005C4FEA92
:100D80001C472CEA074C07FB06F40CFB06F504EBAA
:100D900015464FEA961634BF00204FF000404FEA48
:100DA000D13706FB07FC4FEA1C4C0CFB0BF7D21BA0
:100DB00003FB0CF761EB07010CFB0EF7B0EB0740F0
:100DC00072EB17420CFB08F734BFA2EB0742B2EB01
:100DD000074261EB17414FEA0C444FEA910706FBCB
:100DE00007FC4FEA1C4C0CFB0BF7B0EBC74072EB57
:100DF000573203FB0CF734BFA2EBC742B2EBC7423A
:100E000061EB57310CFB0EF7B0EBC70072EB57727A
:100E10000CFB08F734BFA2EBC702B2EBC70261EBD1
:100E20005771039F4FEA816141EA921104EBCC04B0
:100E30004FEAD1374FEA826206FB07FC42EA901282
:100E40004FEA80604FEA1C4C0CFB0BF7D21B03FBF4
:100E50000CF761EB07010CFB0EF7B0EB074072EBF0
:100E600017420CFB08F734BFA2EB0742B2EB074274
:100E700061EB17414FEA8C554FEA910704EB9C2434
:100E800006FB07FC4FEA1C4C0CFB0BF7B0EBC74012
:100E900072EB573203FB0CF734BFA2EBC742B2EB45
:100EA000C74261EB57310CFB0EF7B0EBC70072EB9A
:100EB00057720CFB08F734BFA2EBC702B2EBC702B4
:100EC00061EB577115EB4C254FEA816141EA9211B4
:100ED0004FEA82624FEAD13742EA901206FB07FCE2
:100EE00044F100044FEA80604FEA1C4C0CFB0BF706
:100EF000D21B03FB0CF761EB07010CFB0EF7B0EB09
:100F0000074072EB17420CFB08F734BFA2EB074215
:100F1000B2EB074261EB174115EB1C154FEA81312B
:100F200041EA92414FEA823242EA90424FEA8030EF
:100F30004FEA0C7644F1000448EA03434EEA0B48BA
:100F40004FF0000EB2EB080C71EB030724BF6246B2
:100F500039464EEB0E0E4FF0000B0018524149413E
:100F60004BEB0B0BB2EB080C71EB03077BF1000BA7
:100F700024BF624639464EEB0E0E4FF0000B0018B0
:100F8000524149414BEB0B0BB2EB080C71EB0307E1
:100F90007BF1000B24BF624639464EEB0E0E51EA40
:100FA000020718BF46F0010616EB0E7655F1000257
:100FB00054F1000103D5BDE88901BDE80088BDE812
:100FC0008901BDE80048B619524141EB0101A3F186
:100FD0000103704780807F7E7D7C7B7A797877768D
:100FE00076757473727171706F6E6E6D6C6C6B6A06
:100FF0006A696868676666656464636362616160A4
:10100000605F5F5E5E5D5D5C5C5B5B5A5A59595820
:10101000585757565655555554545353525252518A
:10102000515050504F4F4F4E4E4D4D4D4C4C4C4BE0
:101030004B4B4A4A4A494949484848474747474627
:101040004646454545444444444343434342424263
:1010500042414141002B9C4630D477002BD01CB537
:101060004FEA370703B44FF010004FF01001BAF108
:10107000000F06D0BCF1000FDCBF40F0080040F0CC
:1010800008014FF000000FBCBDE810400BF1010B50
:10109000BBF1010F08BF5FEA170722BF12F101027F
:1010A00011F101014FF0004143F1000300F0004055
:1010B00043EA00007047F9D35708D0E746EA0646EE
:1010C00013F1400F4FEA16461FDD13F1200FDFBF6B
:1010D00016430A46002120335B42BED0C3F12007ED
:1010E00046EA064602FA07F74FEA164646EA0706B8
:1010F000C3F1200722FA03F201FA07F721FA03F1FC
:101100004FF0000342EA0702A7E746EA020646EA72
:1011100006464FEA164646EA0106BCBF46EA0646C0
:10112000360C4FF000034FF000024FF0000194E73F
:101130002DE9804C9A46934670B491E8380007C870
:1011400031EA400C48BF34EA430C03D5FFF7E6FD13
:10115000FFF780FFF0BCBDE8008C2DE9804C9A467B
:10116000934670B491E8380007C810F0804F08BF6C
:1011700013F0804F03D100F005F8FFF76BFFF0BCD0
:10118000BDE8008C20F07F4780EA030023F07F4C0D
:1011900007EB0C03A3F57C5300F00040A3F1FE0322
:1011A00092F0000F00F0B38095F0000F00F0778010
:1011B0002DE901494FEA11404FEA144621EA00485F
:1011C00000FB06FC24EA064708FB06F607FB08F8C6
:1011D00000FB07F718EB06484CEB164C4FEA124B96
:1011E00018EB07484FEA15464CEB174022EA0B4E26
:1011F0000BFB06FC25EA06470EFB06F607FB0EFE78
:101200000BFB07F71EEB064E4CEB164C4FF000069F
:101210001EEB074E4CEB174B18EB0B0840F1000090
:1012200018EB0E0B58EB000840F100008F1A4FF03E
:1012300000013CBFC943661B14BFB5EB040C002181
:101240003CBFC943F61B4FEA17444EEA8E0E27EA0D
:1012500004454FEA1C4704FB07622CEA074C05FBD8
:1012600007F70CFB05F604FB0CFC16EB074642EBFC
:10127000174216EB0C4642EB1C421BEB060658EBE2
:101280000202414146EA9E0601D5BDE80189B61930
:10129000524141EB0101A3F10103BDE801894FEA8D
:1012A00014454FEA114724EA054621EA074C05FB9D
:1012B00007F406FB07F70CFB06F105FB0CFC11EB32
:1012C000074144EB17444FEA124711EB0C4144EB42
:1012D0001C4422EA074C05FB07F206FB07F70CFB50
:1012E00006F605FB0CFC16EB074642EB174216EB25
:1012F0000C4642EB1C456A1854F1000148BF704788
:10130000B619524141EB0101A3F10103704795F079
:10131000000F37D04FEA11424FEA144721EA024644
:1013200024EA074C02FB07F106FB07F70CFB06F467
:1013300002FB0CFC14EB074441EB17414FEA154745
:1013400014EB0C4441EB1C4125EA074C02FB07F56A
:1013500006FB07F70CFB06F602FB0CFC16EB074638
:1013600045EB174516EB0C4645EB1C42121951F1A3
:10137000000148BF7047B619524141EB0101A3F18A
:10138000010370474FEA14454FEA114724EA054626
:1013900021EA074C05FB07F106FB07F70CFB06F2F9
:1013A0004FF0000605FB0CFC12EB074241EB174126
:1013B00012EB0C4251EB1C4148BF7047921841EBB5
:1013C0000101A3F10103704740F2C14CC0F6000CCB
:1013D000604740F67D0CC0F6000C604740F6094CB3
:1013E000C0F6000C604740F6EF3CC0F6000C6047CA
:1013F00040F2C95CC0F6000C604742F2094CC0F6EE
:10140000000C604740F67B2CC0F6000C604742F6AB
:10141000390CC0F6000C604740F6952CC0F6000C65
:10142000604742F2994CC0F6000C604740F6A94C68
:10143000C0F6000C604740F6CD4CC0F6000C60478B
:1014400040F68D6CC0F6000C604740F2CB3CC0F615
:10145000000C604741F6CD3CC0F6000C604741F6F9
:10146000F13CC0F6000C604742F6710CC0F6000C6F
:10147000604740F66D2CC0F6000C604740F6AD3C6E
:10148000C0F6000C604740F6553CC0F6000C6047C3
:1014900040F6C93CC0F6000C6047000030B5B3F51B
:1014A000804F05D06FF0704140F82210002030BD11
:1014B0008C690B688D6823434C688989240144EA50
:1014C0000524234343EA014150F82230024C2340D3
:1014D000194340F82210E9E70000F0CF30B50A6860
:1014E00050F8223023F0010340F822308B68082B9B
:1014F00028D000224C681C43CB6813430A691C4364
:1015000014434A6914438A691443CA6914430A6A32
:1015100014434A6A14438A6A1443CA6A14430A6B1E
:1015200014434A6B14438A6B14430A6850F8223000
:101530000C4D2B401C4340F822400A6BB2F5801F33
:1015400002D007E04022D5E70A681AB1026842F4E7
:10155000801202600A681AB10268496B0A4302608D
:10156000002030BD8004C0FF30B5D1E900348D8942
:1015700043EA04138C68240244EA054423430C8A9A
:10158000641E43EA04540B7D9B1E44EA03638C698A
:101590002343521C50F8224004F04044234340F8B7
:1015A00022300268D2020BD5426822F47002098A06
:1015B000491E42EA0151426822F470020A43426025
:1015C000002030BD70B504460E461546002C03D0F1
:1015D00094F8450010B107E0012070BD002084F8A8
:1015E0004400204600F024F8206804F10801FFF7C9
:1015F00075FFA26831462068FFF7B6FFE36A294607
:10160000D4E90102FFF74AFFA168206850F82120C1
:1016100042F0010240F821200448016841F00041F5
:101620000160012084F84500002070BD0040005298
:1016300000B587B01948016841F480510160006825
:1016400000F48050019015480C30016841F0080109
:101650000160016801F008010191016841F0100189
:101660000160006800F0100001904CF203700290DD
:101670000220039001200490032005900C20069086
:10168000074802A9FFF7A5FE4FF6807002900548B3
:1016900002A9FFF79EFE07B000BD0000D444025827
:1016A000000C02580010025870477047704710B580
:1016B0000446002C03D094F83D0010B107E001204F
:1016C00010BD002084F83C00204600F00DF80220F8
:1016D00084F83D002068211D00F000FB012084F803
:1016E0003D00002010BD000008B500680B4988428D
:1016F00012D10B48016841F010010160006800F050
:1017000010000090032201213620FFF767FEBDE89C
:1017100008403620FFF767BE08BD000000100040FB
:10172000E84402580168CA6842F00102CA600168D0
:101730008868064A1040062806D0B0F5803F03D0DE
:10174000086840F0010008600020704707000100B1
:10175000704770B50446206801694FF00005C94321
:10176000890716D4C168C943890712D4E91E0161EB
:101770000120207720688069800703D02046FFF78A
:10178000E7FF05E0204600F0AAF8204600F0A8F8A0
:10179000257720680169C943490718D4C168C9433E
:1017A000490714D46FF004010161022020772068FA
:1017B000806910F4407F03D02046FFF7C9FF05E0A1
:1017C000204600F08CF8204600F08AF82577206843
:1017D0000169C943090717D4C168C943090713D46C
:1017E0006FF008010161042020772068C06980073C
:1017F00003D02046FFF7ACFF05E0204600F06FF86D
:10180000204600F06DF8257720680169C943C906B4
:1018100018D4C168C943C90614D46FF0100101611E
:10182000082020772068C06910F4407F03D020464C
:10183000FFF78EFF05E0204600F051F8204600F04B
:101840004FF8257720680169C943C90708D1C168E5
:10185000C943C90704D1891E0161204600F042F83E
:1018600020680169C943090609D4C168C94309064A
:1018700005D46FF0800101612046FFF716FF206854
:101880000169C943C90509D4C168C943090605D41A
:101890006FF4807101612046FFF706FF206801693F
:1018A000C943490609D4C168C943490605D46FF044
:1018B00040010161204600F01FF820680169C9431A
:1018C00089060BD4C168C943890607D46FF020018B
:1018D00001612046BDE87040FFF7E8BE70BD70476B
:1018E000704700000349884202D1012027F09AB8CE
:1018F000704700006C0600247047704770477047BF
:10190000704700002DE9F04104462368D869196842
:101910009A6840F60F050540002D0ED186060CD5BD
:1019200001F0200602F080573E4306D0E16E002908
:101930007ED02046BDE8F0410847002D79D0624DA9
:10194000624E15400E402E4373D0C60709D0CE0517
:1019500007D501261E62D4F8883043F00103C4F88D
:10196000883083070AD5D30708D02668022333625C
:10197000D4F8883043F00403C4F8883043070AD50C
:10198000D30708D0266804233362D4F8883043F0A4
:101990000203C4F8883003070CD501F020032B4361
:1019A00008D0256808232B62D4F8883043F0080358
:1019B000C4F8883003050BD54B0109D525684FF4D1
:1019C00000632B62D4F8883043F02003C4F88830D9
:1019D000D4F88830002B33D0800609D501F02000E0
:1019E00002F08051084303D0E16E09B120468847D8
:1019F000D4F8880021688968490602D410F0280FBD
:101A000024D0204600F068FA20688168490619D57C
:101A1000816821F040018160A06F70B12C4901659F
:101A2000A06FFFF7E5FC00280AD0A06F016D01E070
:101A300006E012E0BDE8F04108472046FFF760FFEE
:101A4000BDE8F0812046FFF75BFFF9E72046FFF78E
:101A500057FF0020C4F88800F2E7C50209D55502F7
:101A600007D54FF4801018622046BDE8F041FFF71B
:101A700046BF03060CD501F0800302F400021343B5
:101A800006D0216F0029DBD02046BDE8F041084791
:101A9000420606D54A0604D52046BDE8F04100F0CE
:101AA0002DBA020206D54A0004D52046BDE8F04111
:101AB000FFF724BFC001C3D50029C1DA2046BDE825
:101AC000F041FFF71ABF00000100001020010004E0
:101AD000C31E009010B50446002C03D0D4F880003B
:101AE00010B107E0012010BD002084F87C002046E2
:101AF000FFF783FC2420C4F880002068016821F0EF
:101B000001010160204600F003FB012818D0A06A03
:101B100010B1204600F042F92068416821F490415C
:101B200041602068816821F02A0181602068016895
:101B300041F0010101602046BDE8104000F092B97B
:101B4000012010BD70B5D0F88430202B01D00220C8
:101B500070BDC9B1C2B190F87C30012B16D0012301
:101B600080F87C308165A0F85C20A0F85E2000231E
:101B7000C366FF2581684FF48054A1420DD10169ED
:101B800031B1A0F860500FE0012070BD022070BD9F
:101B900040F2FF11A0F8601006E07F2699B1B1F184
:101BA000805F18D0A0F86030C0F888302221C0F8DB
:101BB000841001688D6845F001058D60416EB1F1BA
:101BC000005F11D02BE0016911B1A0F86060EBE774
:101BD000A0F86050E8E7016919B13F21A0F8601052
:101BE000E2E7A0F86060DFE7B0F86810914216D82D
:101BF0008168A14201D1016971B11249C16680F8C1
:101C00007C3001680A6842F480720A60006881686A
:101C100041F08051816010E00B49C166EFE78168B7
:101C2000A14201D1016951B10849C16680F87C30F7
:101C30000068016841F490710160002070BD0449A2
:101C4000C166F3E771200090751F00901520009089
:101C5000191F0090704700000F4800224021FFF735
:101C6000D1FB0EA0FEF7DAF94FF47A742046FFF7A5
:101C7000CEFB10A0FEF7D2F92046FFF7C8FBBFF35A
:101C80004F8F11480168114A01F4E061114301606E
:101C9000BFF34F8F00BFFDE7001002584D656D2068
:101CA000416363657373204572726F7221210D0A5F
:101CB00000000000536F6674205265736574696E8E
:101CC000672E2E2E0D0A00000CED00E00400FA0530
:101CD0000148FFF73EBD00006C0600242DE9F04FDF
:101CE00002684FF0804B254DDFF89480DFF8949028
:101CF000A842DFF894A0254B09D0584507D04045AD
:101D000005D0484503D0504501D0984203D122F078
:101D100070044A6822431E4E1E4FA842DFF878C066
:101D20000FD058450DD040450BD0484509D05045FF
:101D300007D0984205D0B04203D0B84201D06045E8
:101D400003D122F44074CA6822434C6922F0800215
:101D5000224302608A68C2620A688262A84207D08F
:101D6000984205D0B04203D0B84201D0604501D1BD
:101D70000969016301214161BDE8F08F0000014064
:101D80000004004000080040000C00400004014036
:101D900000400140004401400048014090F82810F4
:101DA000C90706D001684A68C36A22F400321A43A0
:101DB0004A6090F82810890706D501684A68036BC5
:101DC00022F480321A434A6090F82810490706D559
:101DD00001684A68436B22F480221A434A6090F8F3
:101DE0002810090706D501684A68836B22F400426F
:101DF0001A434A6090F82810C90606D501688A6817
:101E0000C36B22F480521A438A6090F82810890626
:101E100006D501688A68036C22F400521A438A606E
:101E200090F82810490611D501684A68436C22F4DD
:101E300080121A434A60416CB1F5801F06D10168D7
:101E40004A68836C22F4C0021A434A6090F8281052
:101E5000090606D501684A68C06C22F400220243D4
:101E60004A607047F8B504460026C4F88860FFF75A
:101E7000D3FA0746206800686FF07E4500070AD550
:101E800000223B464FF400112046009501F0E0FB94
:101E900008B10320F8BD2068006840070AD5002279
:101EA0003B464FF480012046009501F0D1FB08B17C
:101EB0000320F8BD20207C346060A06026700020E4
:101EC000F8BD10B5806B0021A0F85E10A0F8561088
:101ED000FFF716FD10BD000001680A6822F4907239
:101EE0000A6001688A68044B1A408A602021C0F8A1
:101EF00084100021C1667047FEFFFFEF10B5016836
:101F00000A6822F040020A602021C0F880100021F7
:101F10000167FFF79FFE10BD10B5B0F86020D0F844
:101F200084300168222B04D0886940F00800886161
:101F300010BD496A50F8583F114019800168891C4A
:101F40000160C188491EC180C18858380029EFD17D
:101F500001680A6822F490720A6001688A6822F0B7
:101F600001028A602021C0F884100021C166FFF7B9
:101F700058FA10BD70B50446B4F86060D4F8840017
:101F8000222805D02068816941F00801816170BD77
:101F9000B4F8685023E02068406AA16D30400880A2
:101FA000A06D801CA065B4F85E00401EA4F85E0021
:101FB000B4F85E0088B92068016821F4807101607E
:101FC00020688168114A114081602020C4F8840093
:101FD0000020E0662046FFF724FA6D1EADB2002D0A
:101FE000D9D1B4F85E000028D1D0B4F8681081428D
:101FF000CDD92068816821F0805181600448E06675
:102000002068016841F02001016070BDFEFFFFEF14
:10201000191F009010B5B0F86020D0F88430016826
:10202000222B04D0886940F00800886110BD496AFD
:10203000114050F8582F11700168491C0160C18887
:10204000491EC180C18858380029EFD101680A684B
:1020500022F490720A6001688A6822F001028A60A4
:102060002021C0F884100021C166FFF7DAF910BD05
:1020700070B50446B4F86060D4F88400222805D016
:102080002068816941F00801816170BDB4F8685031
:1020900023E02068406AA16D30400870A06D401CAC
:1020A000A065B4F85E00401EA4F85E00B4F85E00BF
:1020B00088B92068016821F4807101602068816816
:1020C000114A114081602020C4F884000020E0669D
:1020D0002046FFF7A6F96D1EADB2002DD9D1B4F898
:1020E0005E000028D1D0B4F868108142CDD92068B4
:1020F000816821F0805181600448E06620680168B1
:1021000041F02001016070BDFEFFFFEF152000903F
:102110002DE9F04F87B004464FF00008002500205D
:10212000F74B21682669A268E769324366693E4336
:102130003243666E16430A68F24F3A4032430A60F1
:1021400021684A68E66822F4405232434A60A16935
:1021500022689A4201D0266A31439668EA4F3E408F
:102160000E4396602168CA6A666A22F00F02324303
:10217000CA62E64E2168E64AB14224D1126802F0F2
:102180003802182A16D005DC5AB1082A0CD0102AB9
:1021900004D10CE0202A10D0282A11D04FF0800B57
:1021A0002AE14FF0010B27E14FF0040B24E14FF03F
:1021B000080B21E14FF0100B1EE14FF0200B1BE14B
:1021C0004FF0400B18E1D34EB1421ED1126802F01D
:1021D0000702062A16D2DFE802F00306090C0F12E6
:1021E0004FF0000B08E14FF0040B05E14FF0080B36
:1021F00002E14FF0100BFFE04FF0200BFCE04FF03E
:10220000400BF9E04FF0800BF6E0C34EB1421ED117
:10221000126802F00702062A16D2DFE802F003066F
:10222000090C0F124FF0000BE6E04FF0040BE3E057
:102230004FF0080BE0E04FF0100BDDE04FF0200B0B
:10224000DAE04FF0400BD7E04FF0800BD4E0B34E14
:10225000B1421ED1126802F00702062A16D2DFE848
:1022600002F00306090C0F124FF0000BC4E04FF010
:10227000040BC1E04FF0080BBEE04FF0100BBBE0C9
:102280004FF0200BB8E04FF0400BB5E04FF0800B63
:10229000B2E0A34EB1421ED1126802F00702062A34
:1022A00016D2DFE802F00306090C0F124FF0000B04
:1022B000A2E04FF0040B9FE04FF0080B9CE04FF0C2
:1022C000100B99E04FF0200B96E04FF0400B93E09D
:1022D0004FF0800B90E0934EB14224D1126802F08F
:1022E0003802182A16D005DC5AB1082A0CD0102A58
:1022F00004D10CE0202A10D0282A11D04FF0800BF6
:102300007AE04FF0010B77E04FF0040B74E04FF0F0
:10231000080B71E04FF0100B6EE04FF0200B6BE0FC
:102320004FF0400B68E0804EB1421ED1126802F0BF
:102330000702062A16D2DFE802F00306090C0F1284
:102340004FF0000B58E04FF0040B55E04FF0080B36
:1023500052E04FF0100B4FE04FF0200B4CE04FF0ED
:10236000400B49E04FF0800B46E0704EB1421ED169
:10237000126802F00702062A16D2DFE802F003060E
:10238000090C0F124FF0000B36E04FF0040B33E056
:102390004FF0080B30E04FF0100B2DE04FF0200B0A
:1023A0002AE04FF0400B27E04FF0800B24E09942E9
:1023B00020D1574A121D126802F00702062A16D2CF
:1023C000DFE802F00306090C0F124FF0020B13E0D6
:1023D0004FF0040B10E04FF0080B0DE04FF0100B26
:1023E0000AE04FF0200B07E04FF0400B04E04FF005
:1023F000800B01E04FF0800BDFF834A100279942F9
:102400004FF4807977D1BBF1100F75D009DCBBF1A7
:10241000020F19D0BBF1040F4DD0BBF1080F06D14C
:10242000A1E0BBF1200F68D0BBF1400F66D00125C1
:10243000002808D0666806EB4601814202D8B0EB5E
:10244000063F77D90125EEE3FEF7F0FF0146606A0B
:10245000C8B1012819D0022819D0032819D004289E
:1024600019D0052819D0062819D0072819D008280E
:1024700019D0092819D00A2819D00B2819D0012001
:10248000B1FBF0F0D4E70120FAE70220F8E70420DE
:10249000F6E70620F4E70820F2E70A20F0E70C2030
:1024A000EEE71020ECE72020EAE74020E8E7802074
:1024B000E6E74846E4E704A8FEF7BDFF0599606A31
:1024C000E8B1012839D0022839D0032839D00428AE
:1024D00039D0052839D0062839D0072839D008281E
:1024E00039D0092839D00A2839D00B2839D0012011
:1024F000B1FBF0F09CE7AEE36DE0DDE011E11AE046
:10250000000C0058F369FFCFFFF4FF1100100140E9
:10251000544402580044004000480040004C004031
:10252000005000400014014000780040007C004052
:102530000090D0032BE10120DAE70220D8E7042045
:10254000D6E70620D4E70820D2E70A20D0E70C20FF
:10255000CEE71020CCE72020CAE74020C8E7802043
:10256000C6E74846C4E701A8FEF76AFF0299606A19
:10257000C8B1012819D0022819D0032819D004287D
:1025800019D0052819D0062819D0072819D00828ED
:1025900019D0092819D00A2819D00B2819D00120E0
:1025A000B1FBF0F044E70120FAE70220F8E704204D
:1025B000F6E70620F4E70820F2E70A20F0E70C200F
:1025C000EEE71020ECE72020EAE74020E8E7802053
:1025D000E6E74846E4E7F7480168890638D5006829
:1025E000C0F3C1002AFA00F1606AC8B1012819D00D
:1025F000022819D0032819D0042819D0052819D089
:10260000062819D0072819D0082819D0092819D068
:102610000A2819D00B2819D00120B1FBF0F007E7E8
:102620000120FAE70220F8E70420F6E70620F4E7A5
:102630000820F2E70A20F0E70C20EEE71020ECE794
:102640002020EAE74020E8E78020E6E74846E4E784
:10265000606AC8B1012819D0022819D0032819D0FE
:10266000042819D0052819D0062819D0072819D010
:10267000082819D0092819D00A2819D00B2819D0F0
:102680000120BAFBF0F0D3E60120FAE70220F8E7D8
:102690000420F6E70620F4E70820F2E70A20F0E736
:1026A0000C20EEE71020ECE72020EAE74020E8E7E6
:1026B0008020E6E74846E4E7606AD0B101281AD0F6
:1026C00002281AD003281AD004281AD005281AD0B4
:1026D00006281AD007281AD008281AD009281AD094
:1026E0000A281AD00B281AD00120B349B1FBF0F008
:1026F0009EE60120F9E70220F7E70420F5E706202F
:10270000F3E70820F1E70A20EFE70C20EDE71020BF
:10271000EBE72020E9E74020E7E78020E5E74846AF
:10272000E3E7606AD8B101281BD002281BD0032838
:102730001BD004281BD005281BD006281BD0072837
:102740001BD008281BD009281BD00A281BD00B2817
:102750001BD001204FF40041B1FBF0F068E60120EE
:10276000F8E70220F6E70420F4E70620F2E7082065
:10277000F0E70A20EEE70C20ECE71020EAE7202043
:10278000E8E74020E6E78020E4E74846E2E7BBF1DF
:10279000100F7DD009DCBBF1020F16D0BBF1040F86
:1027A00064D0BBF1080F06D1B8E0BBF1200F70D0A8
:1027B000BBF1400F6ED001258049A8F540708842DA
:1027C00069D82068C0F80C802DE2FEF72FFE014684
:1027D000606A50B301282BD002282CD003282DD0BA
:1027E00004282ED005282FD0062830D0072831D035
:1027F000082832D0092833D00A2834D00B2801D039
:102800004FF00109084600234A461946FEF71DFE0F
:1028100062680902030241EA106150081818794100
:102820000023FEF712FE8046C6E74FF00109E9E7F4
:102830004FF00209E6E74FF00409E3E74FF006091D
:10284000E0E74FF00809DDE74FF00A09DAE74FF05B
:102850000C09D7E74FF01009D4E74FF02009D1E772
:102860004FF04009CEE74FF08009CBE704A8FEF710
:10287000E2FD0599606A78B3012831D0022832D090
:10288000032833D0042834D0052835D0062803E0A7
:102890009CE040E18DE1DCE131D0072832D008280E
:1028A00033D0092834D00A2835D00B2801D04FF076
:1028B0000109084600234A461946FEF7C6FD62682C
:1028C0000902030241EA10615008181879410023F7
:1028D000FEF7BBFD80466FE7FFE74FF00109E8E731
:1028E0004FF00209E5E74FF00409E2E74FF006096F
:1028F000DFE74FF00809DCE74FF00A09D9E74FF0AE
:102900000C09D6E74FF01009D3E74FF02009D0E7C4
:102910004FF04009CDE74FF08009CAE701A8FEF764
:102920008FFD0299606A50B301282BD002282CD069
:1029300003282DD004282ED005282FD0062830D0EB
:10294000072831D0082832D0092839D00A283AD0AF
:102950000B2801D04FF00109084600234A461946CA
:10296000FEF773FD62680902030241EA1061500834
:10297000181879410023FEF768FD80461CE74FF0E8
:102980000109E9E74FF00209E6E74FF00409E3E740
:102990004FF00609E0E74FF00809DDE74FF00A09BC
:1029A000DAE74FF00C09D7E74FF01009D4E74FF002
:1029B0002009D1E70044025800093D00FFFC0F0048
:1029C0004FF04009C8E74FF08009C5E7F7480168B4
:1029D000890652D50068C0F3C1002AFA00FA606A7D
:1029E00050B301282BD002282CD003282DD0042846
:1029F0002ED005282FD0062830D0072831D008281F
:102A000032D0092833D00A2834D00B2801D04FF017
:102A10000109504600234A461946FEF716FD0902F1
:102A2000020241EA10617008101832467941002311
:102A3000FEF70BFD8046BFE64FF00109E9E74FF0D6
:102A40000209E6E74FF00409E3E74FF00609E0E783
:102A50004FF00809DDE74FF00A09DAE74FF00C09FB
:102A6000D7E74FF01009D4E74FF02009D1E74FF036
:102A70004009CEE74FF08009CBE7606A50B30128E8
:102A80002BD002282CD003282DD004282ED00528A6
:102A90002FD0062830D0072831D0082832D0092876
:102AA00033D00A2834D00B2801D04FF0010950460A
:102AB00000234A461946FEF7C8FC0902020241EA11
:102AC000106170081018324679410023FEF7BDFCF2
:102AD000804671E64FF00109E9E74FF00209E6E7A9
:102AE0004FF00409E3E74FF00609E0E74FF008096B
:102AF000DDE74FF00A09DAE74FF00C09D7E74FF0AE
:102B00001009D4E74FF02009D1E74FF04009CEE794
:102B10004FF08009CBE7606A50B301282BD0022820
:102B20002CD003282DD004282ED005282FD00628FD
:102B300030D0072831D0082832D0092833D00A28CD
:102B400034D00B2801D04FF00109994800234A46A0
:102B50001946FEF77AFC0902020241EA1061700888
:102B60001018324679410023FEF76FFC804623E6B9
:102B70004FF00109E9E74FF00209E6E74FF00409D9
:102B8000E3E74FF00609E0E74FF00809DDE74FF013
:102B90000A09DAE74FF00C09D7E74FF01009D4E73C
:102BA0004FF02009D1E74FF04009CEE74FF0800900
:102BB000CBE7606A58B301282CD002282DD0032817
:102BC0002ED0042830D0052831D0062832D007284E
:102BD00033D0082834D0092835D00A2836D00B281D
:102BE00001D04FF0010900234A464FF40040194636
:102BF000FEF72BFC0902020241EA1061700810186E
:102C0000324679410023FEF720FC8046D4E54FF0A0
:102C10000109E8E74FF00209E5E74FF00409E2E7B0
:102C20004FF00609DFE797E24FF00809DBE74FF0C6
