:020000040800F2
:10000000C0720724890300084D2D0008492D0008FF
:10001000551E009027060008FD3100080000000072
:100020000000000000000000000000001D00009023
:100030002B06000800000000790000903131000814
:10004000A3030008A3030008A3030008A3030008F8
:10005000A3030008A3030008A3030008A3030008E8
:10006000A3030008A3030008A3030008A3030008D8
:10007000A3030008A3030008A3030008A3030008C8
:10008000A3030008A3030008A3030008A3030008B8
:10009000A3030008A3030008A3030008A3030008A8
:1000A000A3030008A3030008A3030008A303000898
:1000B000A3030008A3030008A3030008A303000888
:1000C000A3030008A3030008A3030008A303000878
:1000D000A3030008ED310008A3030008A3030008F0
:1000E000A3030008A303000800000000A303000806
:1000F000A3030008A3030008A3030008A303000848
:10010000A3030008A3030008A3030008A303000837
:10011000A3030008A3030008F51E0090A303000832
:10012000A3030008A3030008A3030008A303000817
:10013000A3030008A3030008A3030008A303000807
:1001400000000000000000000000000000000000AF
:10015000A3030008A3030008A3030008A3030008E7
:10016000A3030008A3030008A3030008A3030008D7
:10017000A3030008A3030008A3030008A3030008C7
:10018000A3030008A3030008A3030008A3030008B7
:10019000A3030008A3030008A3030008A3030008A7
:1001A000A3030008A3030008A3030008A303000897
:1001B000A3030008A3030008A3030008A303000887
:1001C000A3030008A3030008A3030008A303000877
:1001D000A3030008A3030008A3030008A303000867
:1001E000A3030008A3030008A3030008A303000857
:1001F000A3030008A3030008A3030008A303000847
:10020000A3030008A3030008A3030008A303000836
:10021000A3030008A3030008A3030008A303000826
:10022000A3030008A3030008A303000800000000C4
:10023000A3030008A303000800000000A3030008B4
:10024000A3030008A3030008A3030008A3030008F6
:10025000A3030008A3030008A3030008A3030008E6
:10026000A3030008A3030008A3030008A3030008D6
:10027000A3030008A3030008A30300080000000074
:10028000A3030008A3030008A30300080000000064
:1002900000000000A303000800F002F800F064F87A
:1002A0000AA090E8000C82448344AAF10107DA45D1
:1002B00001D100F059F8AFF2090EBAE80F0013F0BF
:1002C000010F18BFFB1A43F00103184774430000E5
:1002D000944300000A444FF0000C10F8013B13F067
:1002E000070408BF10F8014B1D1108BF10F8015B8F
:1002F000641E05D010F8016B641E01F8016BF9D182
:1003000013F0080F1EBF10F8014BAD1C0C1B09D1D8
:100310006D1E58BF01F801CBFAD505E014F8016B4A
:1003200001F8016B6D1EF9D59142D6D370470000DC
:100330000023002400250026103A28BF78C1FBD8EE
:10034000520728BF30C148BF0B6070471FB504F08B
:1003500069F900F0B5F804000020002104F04CF920
:10036000E0601FBD10B510BD00F0B2F81146FFF7F8
:10037000EDFF02F0BDFF00F0D0F803B4FFF7F2FF8D
:1003800003BC02F059FF00000948804709480047B4
:10039000FEE7FEE7FEE7FEE7FEE7FEE7FEE7FEE735
:1003A000FEE7FEE704480549054A064B7047000092
:1003B0004531000899020008C0680724C07207246C
:1003C000C06A0724C06A0724704753EA020C00F091
:1003D00069802DE9F04B4FF00006002B1FBFB3FAE8
:1003E00083F503FA05F424FA05F65E4012BF1643BE
:1003F000B2FA82F502FA05F4C5F120051EBF22FA11
:1004000005FC44EA0C04203556EA044C4FEA144437
:1004100018BF641C4FF000084FF00009904271EBC8
:10042000030C39D3002919BFB1FA81F701FA07F695
:10043000B0FA80F700FA07F6C7F120071EBF20FACE
:1004400007FC46EA0C062037B6FBF4FCA7EB0507D1
:10045000103F07F01F0BCBF120060CFA0BFB2CFA18
:1004600006F644BFB3460026202FA4BF5E464FF0D9
:10047000000B5BEA060C08BF4FF0010B19EB0B09F0
:10048000ABFB027C48EB0608C01B06FB02CC0BFB57
:1004900003CC71EB0C01C1E70B46024641464846CE
:1004A000BDE8F08B13B54FF000004FF00001AFF343
:1004B0000080BDE81C407047704770477047704728
:1004C000004870477C680724004870475C68072430
:1004D0007546FFF7F9FFAE4605006946534620F022
:1004E0000700854618B020B5FFF75CFFBDE8204047
:1004F0004FF000064FF000074FF000084FF0000BE0
:1005000021F00701AC46ACE8C009ACE8C009ACE892
:10051000C009ACE8C0098D46704710B50446AFF37A
:1005200000802046BDE81040FFF727BF41F6155C6C
:10053000C9F2000C604749F2A12CC9F2030C6047D4
:1005400041F6912CC9F2000C604749F6092CC9F21A
:10055000010C604741F6350CC9F2030C604748F6C0
:10056000C95CC9F2010C604745F6A17CC9F2010CD7
:10057000604741F60D3CC9F2030C604741F2FD0CA7
:10058000C9F2030C604748F60B4CC9F2030C6047F4
:1005900048F6534CC9F2030C604748F6A14CC9F227
:1005A000030C604748F63D5CC9F2030C604748F60F
:1005B000BD5CC9F2030C604740F2F14CC9F2000C7B
:1005C000604740F2E10CC9F2000C604748F64D4C20
:1005D000C9F2030C604743F2615CC9F2030C604747
:1005E00048F6334CC9F2030C604741F69D4CC9F202
:1005F000000C604748F6874CC9F2030C604749F28B
:10060000D95CC9F2030C604749F23D1CC9F2030CE6
:10061000604743F20D3CC9F2030C604740F2515C65
:10062000C9F2000C604700BFFEE7704770B5044692
:100630000CB9012070BD94F83500022803D0802049
:1006400060650120F6E7DC492068884249D0DA4934
:1006500018312068884244D0D74930312068884218
:100660003FD0D5494831206888423AD0D2496031DC
:100670002068884235D0D04978312068884230D00F
:10068000CD499031206888422BD0CB49A8312068D1
:10069000884226D0C9492068884222D0C7491831EB
:1006A000206888421DD0C54930312068884218D062
:1006B000C24948312068884213D0C049603120685F
:1006C00088420ED0BD4978312068884209D0BB49A4
:1006D00090312068884204D0B849A8312068884207
:1006E00001D1012000E00020F0B3042084F835009F
:1006F000B149206888424BD0AF4918312068884200
:1007000046D0AD4930312068884241D0AA494831AD
:10071000206888423CD0A84960312068884237D0A0
:10072000A54978312068884232D0A34990312068A9
:1007300088422DD0A049A8312068884228D09F49FE
:100740002068884224D09D491831206888421FD0F3
:100750009A493031206888421AD098494831206837
:10076000884215D0954900E020E060312068884239
:100770000ED0924978312068884209D08F49903153
:100780002068884204D08D49A8312068884206D16B
:100790002068006820F001002168086009E12068F5
:1007A000006820F001002168086002E1206800680C
:1007B00020F00E00216808607F492068884249D0F7
:1007C0007D4918312068884244D07B493031206807
:1007D00088423FD078494831206888423AD07649EB
:1007E00060312068884235D073497831206888426A
:1007F00030D071499031206888422BD06E49A831A1
:100800002068884226D06D492068884222D06B49F2
:100810001831206888421DD06849303120688842EC
:1008200018D0664948312068884213D06349603146
:10083000206888420ED0614978312068884209D00A
:100840005E4990312068884204D05C49A831206814
:10085000884206D12068006820F001002168086005
:1008600005E02068006820F0010021680860524916
:100870002068884270D050491831206888426BD077
:100880004D4930312068884266D04B494831206854
:10089000884261D048496031206888425CD046492E
:1008A00078312068884257D0434990312068884287
:1008B00052D04149A831206888424DD03F49206834
:1008C000884249D03D4918312068884244D03B498C
:1008D0003031206888423FD038494831206888420A
:1008E0003AD0364960312068884235D03349783172
:1008F0002068884230D031499031206888422BD01E
:100900002E49A8312068884226D02D492068884287
:1009100022D02B491431206888421DD02849283123
:100920002068884218D026493C312068884213D07C
:1009300023495031206888420ED021496431206813
:10094000884209D01E4978312068884204D01C4969
:100950008C312068884201D1012000E00020D8B10C
:10096000206E006820F48070216E0860A56D94F8F8
:100970005C0000F01F01012088406860D4E9191074
:100980004860E06E40B1E06E006820F48070E16E77
:100990000860D4E91C10486000BF002084F83400CF
:1009A00000BF012084F83500206D10B12046216D74
:1009B000884700203EE6000010000240100402407C
:1009C000085402580348006840F0010001490860DB
:1009D0007047000020040058F8B502460023734D0C
:1009E000DEE001279F400E6806EA0704002C71D064
:1009F0004E68022E02D04E68122E13D1DF0802F18B
:100A0000200656F827005E07F70E0F26BE40B043BB
:100A10005F07FF0E0E69BE403043DF0802F120067B
:100A200046F8270010685F000326BE40B0430E79E9
:100A300006F003065F00BE40304310604E68012E92
:100A400008D04E68022E05D04E68112E02D04E6896
:100A5000122E13D190685F000326BE40B0435F00A2
:100A6000CE68BE4030439060506801269E40B0433F
:100A70000E79C6F300169E4030435060D0685F0088
:100A80000326BE40B0435F008E68BE403043D06056
:100A90004E6806F08056B6F1805F1BD100BF444E11
:100AA000366846F00206424F3E603E46366806F023
:100AB0000206009600BF00BF3E4E9F0856F8270072
:100AC0009E07370F0F26BE40B0433B4EB24202D1C5
:100AD00000262EE063E0394EB24201D1012628E023
:100AE000374EB24201D1022623E0364EB24201D146
:100AF00003261EE0344EB24201D1042619E0334EE3
:100B0000B24201D1052614E0314EB24201D106268F
:100B10000FE0304EB24201D107260AE02E4EB2421B
:100B200001D1082605E02D4EB24201D1092600E090
:100B30000A269F073F0FBE4030431E4E9F0846F8CF
:100B400027002868A0434E6806F48036B6F5803F3B
:100B500000D1204328606868A0434E6806F4003640
:100B6000B6F5003F00D1204368604FF0B0463068D2
:100B7000A0434E6806F48016B6F5801F00D12043CE
:100B80004FF0B04630607068A0434E6806F400161F
:100B9000B6F5001F00D120434FF0B04670605B1CDB
:100BA0000E68DE40002E7FF41CAFF8BD80000058B8
:100BB000F444025808040058000002580004025887
:100BC00000080258000C0258001002580014025885
:100BD00000180258001C0258002002580024025835
:100BE000024613690B400BB1012000E00020704762
:100BF00042690A408A4202D10A04826100E08161AE
:100C000070470AB1816101E00B0483617047000005
:100C100001480068000C70470010005C0148006843
:100C20007047000020000024034800680349097849
:100C3000084401490860704720000024280000246F
:100C400010B5032000F00AF901F0CCFA1049096848
:100C5000C1F303210F4A515C01F01F01C8400E4946
:100C600008600B48006800F00F001146085C00F0B7
:100C70001F0109480068C840084908600F2000F0BB
:100C80000FF808B1012010BD00F09AF80020FAE733
:100C9000184402582E4600080000002404000024D6
:100CA00070B504461148007808B9012070BD0F489E
:100CB00000784FF47A71B1FBF0F00D490968B1FB8F
:100CC000F0F5284601F078FF08B10120EEE7102C7E
:100CD00007D200222146501E00F083F80548046028
:100CE00001E00120E2E70020E0E700002800002406
:100CF00000000024240000244178154A1160017886
:100D0000F9B1121D41681160017B0907C27A41EAFD
:100D10000261827A41EAC241427B41EA8241827B9E
:100D200041EA4241C27B41EA0241427A41EA022160
:100D3000027A41EA420102781143054A0832116001
:100D400005E00021024A121D1160121D116070475A
:100D500098ED00E000BF00BF00BFBFF35F8F00BF92
:100D600000BF00BF0548006820F4803003490860D8
:100D700000200249703108607047000024ED00E057
:100D800040F001010D4A11600C497039096841F4C5
:100D900080310A4A703A116000BF00BF00BFBFF344
:100DA0004F8F00BF00BF00BF00BF00BF00BFBFF339
:100DB0006F8F00BF00BF00BF7047000094ED00E0E0
:100DC000704701460846002809DB00F01F03012296
:100DD0009A4043099B0003F1E023C3F8002100BFC0
:100DE00070472DE9F05F80460D46164602F008FA7E
:100DF000074639462A46334601F00700C0F1070A84
:100E0000BAF1040F02D94FF0040A01E0C0F1070A59
:100E1000D14600F1040ABAF1070F02D24FF0000ADE
:100E200001E0A0F1030AD4464FF0010A0AFA09FAD8
:100E3000AAF1010A0AEA020A0AFA0CFA4FF0010BB7
:100E40000BFA0CFBABF1010B0BEA030B4AEA0B04A8
:100E50002146404602F0DCF9BDE8F09F00BF00F0FB
:100E60000702064B19684FF6FF031940044B0B436A
:100E700043EA0221014B196000BF70470CED00E00E
:100E80000000FA050348006840F0807001490860DE
:100E9000704700000C48025810B501F0A3F907494B
:100EA0000968C1F30321064A515C01F01F01C840E3
:100EB000044908600846006810BD00001844025844
:100EC0002E4600080000002410B501F04FF9054936
:100ED0000968C1F30211044A515C01F01F01C840C6
:100EE00010BD0000204402582E46000870B501468F
:100EF000844D2D6805F00303824D2D68C5F3053040
:100F0000804D2D1D2D68C5F300147E4D14352D68C0
:100F1000C5F3CC0515FB04F501EE105AB8EE411AE5
:100F2000F0EE410A00286FD023B1012B4ED0022BE6
:100F30006BD16BE0734D283D2D68C5F340153DB373
:100F4000704D283D2D68C5F3C1066F4D25FA06F298
:100F500001EE102AF8EE411A01EE100AB8EE411A1D
:100F600081EE812A9FED691AC0EE811A654D103518
:100F70002D68C5F3080501EE105AB8EE411A31EE9E
:100F8000811AF7EE001A31EE211A22EE010A1CE056
:100F900001EE100AB8EE411ADFED5D1A81EE812AEA
:100FA0009FED5A1AC0EE811A564D10352D68C5F3C3
:100FB000080501EE105AB8EE411A31EE811AF7EE2B
:100FC000001A31EE211A22EE010A5BE001EE100A4E
:100FD000B8EE411ADFED4F1A81EE812A9FED4B1AD0
:100FE000C0EE811A474D10352D68C5F3080501EE96
:100FF000105AB8EE411A31EE811AF7EE001A31EEAE
:10100000211A22EE010A3DE077E01DE001EE100A10
:10101000B8EE411A9FED402AC2EE011A9FED3B1A2D
:1010200080EE812A374D10352D68C5F3080501EE95
:10103000105AB8EE411A32EE011AB7EE002A31EE1C
:10104000021A21EE810A1DE001EE100AB8EE411AE3
:10105000DFED301A81EE812A9FED2C1AC0EE811A45
:10106000284D10352D68C5F3080501EE105AB8EE6D
:10107000411A31EE811AF7EE001A31EE211A22EEF2
:10108000010A00BF00BF1F4D10352D68C5F346256E
:1010900001EE105AB8EE411AF7EE001A31EE211A9D
:1010A000C0EE011ABCEEE11A81ED001A154D1035A3
:1010B0002D68C5F3064501EE105AB8EE411AF7EE59
:1010C000001A31EE211AC0EE011ABCEEE11A81EDD0
:1010D000011A0C4D10352D68C5F3066501EE105A46
:1010E000B8EE411AF7EE001A31EE211AC0EE011ADD
:1010F000BCEEE11A81ED021A03E000250D604D609F
:101100008D6070BD284402580090D0030000004656
:101110000024744C0024744A0024F44A70B501463B
:10112000844D2D6805F00303824D2D68C5F30550ED
:10113000804D2D1D2D68C5F300247E4D1C352D6876
:10114000C5F3CC0515FB04F501EE105AB8EE411AB3
:10115000F0EE410A00286FD023B1012B4ED0022BB4
:101160006BD16BE0734D283D2D68C5F340153DB341
:10117000704D283D2D68C5F3C1066F4D25FA06F266
:1011800001EE102AF8EE411A01EE100AB8EE411AEB
:1011900081EE812A9FED691AC0EE811A654D1835DE
:1011A0002D68C5F3080501EE105AB8EE411A31EE6C
:1011B000811AF7EE001A31EE211A22EE010A1CE024
:1011C00001EE100AB8EE411ADFED5D1A81EE812AB8
:1011D0009FED5A1AC0EE811A564D18352D68C5F389
:1011E000080501EE105AB8EE411A31EE811AF7EEF9
:1011F000001A31EE211A22EE010A5BE001EE100A1C
:10120000B8EE411ADFED4F1A81EE812A9FED4B1A9D
:10121000C0EE811A474D18352D68C5F3080501EE5B
:10122000105AB8EE411A31EE811AF7EE001A31EE7B
:10123000211A22EE010A3DE077E01DE001EE100ADE
:10124000B8EE411A9FED402AC2EE011A9FED3B1AFB
:1012500080EE812A374D18352D68C5F3080501EE5B
:10126000105AB8EE411A32EE011AB7EE002A31EEEA
:10127000021A21EE810A1DE001EE100AB8EE411AB1
:10128000DFED301A81EE812A9FED2C1AC0EE811A13
:10129000284D18352D68C5F3080501EE105AB8EE33
:1012A000411A31EE811AF7EE001A31EE211A22EEC0
:1012B000010A00BF00BF1F4D18352D68C5F3462534
:1012C00001EE105AB8EE411AF7EE001A31EE211A6B
:1012D000C0EE011ABCEEE11A81ED001A154D183569
:1012E0002D68C5F3064501EE105AB8EE411AF7EE27
:1012F000001A31EE211AC0EE011ABCEEE11A81ED9E
:10130000011A0C4D18352D68C5F3066501EE105A0B
:10131000B8EE411AF7EE001A31EE211AC0EE011AAA
:10132000BCEEE11A81ED021A03E000250D604D606C
:101330008D6070BD284402580090D0030000004624
:101340000024744C0024744A0024F44A2DE9F0412E
:1013500004460025A846206800F00060B0F1006F48
:1013600030D1606E48B1B0F5801F0DD0B0F5001FD0
:1013700010D0B0F5401F15D113E0F948006840F4D3
:101380000030F74908600FE00221201D01F0E0FC69
:10139000054609E0022104F1240001F08BFD054619
:1013A00002E001E0012500BF00BF55B9EC48243040
:1013B000006820F44010616E0843E9492431086058
:1013C00000E0A846208800F48070B0F5807F2DD121
:1013D000606D05281AD2DFE800F0030A1017180024
:1013E000DF48006840F40030DD49086010E000216B
:1013F000201D01F0ADFC05460AE0002104F12400A7
:1014000001F058FD054603E002E001E0012500BFC0
:1014100000BF55B9D2482430006820F00700616D44
:101420000843CF492431086000E0A846208800F432
:101430000070B0F5007F33D1A06D802817D003DC99
:1014400040B140281CD10CE0C02817D0B0F5807FF7
:1014500016D114E0C248006840F40030C04908606A
:1014600010E00021201D01F073FC05460AE0002178
:1014700004F1240001F01EFD054603E002E001E056
:10148000012500BF00BF55B9B5482430006820F4DD
:10149000E070A16D0843B2492431086000E0A8461D
:1014A000208800F48060B0F5806F38D1D4F8A400B3
:1014B000B0F5800F19D004DC50B1B0F5001F1DD17C
:1014C0000DE0B0F5C00F17D0B0F5000F16D114E045
:1014D000A348006840F40030A149086010E00021F2
:1014E000201D01F035FC05460AE0002104F124002E
:1014F00001F0E0FC054603E002E001E0012500BF49
:1015000000BF5DB996482C30006820F46000D4F824
:10151000A410084392492C31086000E0A8462088B6
:1015200000F40060B0F5006F38D1D4F8A800B0F135
:10153000007F19D004DC50B1B0F1807F1DD10DE0E7
:10154000B0F1407F17D0B0F1806F16D114E084481D
:10155000006840F400308249086010E00021201D3E
:1015600001F0F6FB05460AE0002104F1240001F039
:10157000A1FC054603E002E001E0012500BF00BF39
:101580005DB977482C30006820F0E060D4F8A810EE
:10159000084373492C31086000E0A846206800F039
:1015A0000070B0F1007F27D1A06CA0B1102804D04A
:1015B000202809D030280FD10CE06948006840F499
:1015C00000306749086009E00221201D01F0C0FBDE
:1015D000054603E002E001E0012500BF00BF55B968
:1015E0005F482030006820F03000A16C08435C495F
:1015F0002031086000E0A846208800F48050B0F553
:10160000805F36D1E06DB0F5005F19D004DC50B1D9
:10161000B0F5805F1DD10DE0B0F5405F17D0B0F59B
:10162000804F16D114E04E48006840F400304C4919
:10163000086010E00021201D01F08AFB05460AE049
:10164000002104F1240001F035FC054603E002E02E
:1016500001E0012500BF00BF55B9414824300068B2
:1016600020F4E040E16D08433D492431086000E08A
:10167000A846208800F40050B0F5005F34D1206EF9
:10168000B0F5403F1DD007DC68B1B0F5803F0BD00E
:10169000B0F5003F18D10DE0B0F5802F12D0B0F5B5
:1016A000A02F11D10FE011E00121201D01F050FB0E
:1016B00005460BE0012104F1240001F0FBFB054687
:1016C00004E003E002E001E0012500BF00BF55B9DE
:1016D00023482430006820F4E020216E084320498C
:1016E0002431086000E0A846208800F48040B0F56E
:1016F000804F38D1D4F8AC00B0F1405F1DD007DC8A
:1017000068B1B0F1805F0BD0B0F1005F18D10DE08F
:10171000B0F1804F12D0B0F1A04F11D10FE011E025
:101720000121201D01F014FB05460BE0012104F10D
:10173000240001F0BFFB054604E003E002E001E005
:10174000012500BF00BF6DB905482C30006820F0AE
:10175000E040D4F8AC10084301492C31086002E0A5
:101760002C440258A846208800F40040B0F5004FF1
:1017700026D1E06E98B1B0F1805F03D0B0F1005F88
:101780000ED106E0F948006840F40030F7490860DF
:1017900008E00121201D01F0DBFA054602E001E02E
:1017A000012500BF00BF55B9F0482430006820F083
:1017B0004050E16E0843ED492431086000E0A8463E
:1017C000206800F08070B0F1807F27D1606CA0B1FC
:1017D000012804D0022809D003280FD10CE0E348E7
:1017E000006840F40030E149086009E00221201D52
:1017F00001F0AEFA054603E002E001E0012500BF7A
:1018000000BF55B9D9482030006820F00300616C52
:101810000843D6492031086000E0A846206800F45B
:101820008000B0F5800F7DD1D148006840F4807011
:10183000CF490860FFF7F2F9064606E0FFF7EEF938
:10184000801B642801D9032505E0C948006800F41D
:1018500080700028F2D000BF85BBC44844300068C7
:1018600000F44070B4F8B01001F44071884213D015
:10187000BE484430006820F44077BC4844300068DB
:1018800040F48030B949443108600846006820F4CB
:101890008030086008460760D4F8B000B0F5807F5B
:1018A00015D1FFF7BBF9064609E0FFF7B7F9801B32
:1018B00041F28831884202D9032507E038E0AB487D
:1018C00044300068C0F340000028EED000BF55BB94
:1018D00000BFB4F8B00000F44070B0F5407F0ED106
:1018E000A2481C38006820F47C51A24AD4F8B00009
:1018F000104041EA10109D491C39086007E09B48E0
:101900001C38006820F47C5098491C3908609748BE
:1019100044300068B4F8B010C1F30B010843934998
:10192000443101E005E001E0086002E0A84600E083
:10193000A846207800F0010068B3A06F182819D0DD
:1019400005DC48B1082808D0102816D10BE0202863
:1019500011D0282811D10FE011E00121201D01F044
:10196000F7F905460BE0012104F1240001F0A2FA89
:10197000054604E003E002E001E0012500BF00BFEE
:1019800055B97A482830006820F03800A16F084324
:1019900076492831086000E0A846207800F002006F
:1019A000022828D1606F062815D2DFE800F0030472
:1019B0000A11121311E00121201D01F0C9F9054699
:1019C0000BE0012104F1240001F074FA054604E063
:1019D00003E002E001E0012500BF00BF55B9634804
:1019E0002830006820F00700616F08435F49283104
:1019F000086000E0A846207800F0040004282AD1FE
:101A0000D4F89000062815D2DFE800F003040A118C
:101A1000121311E00121201D01F09AF905460BE097
:101A2000012104F1240001F045FA054604E003E039
:101A300002E001E0012500BF00BF5DB94B482C303A
:101A4000006820F00700D4F89010084347492C3173
:101A5000086000E0A846207800F02000202836D159
:101A6000D4F88C00B0F1405F1DD007DC68B1B0F154
:101A7000805F0BD0B0F1005F18D10DE0B0F1804F66
:101A800012D0B0F1A04F11D10FE011E00021201DC4
:101A900001F05EF905460BE0022104F1240001F09B
:101AA00009FA054604E003E002E001E0012500BF79
:101AB00000BF5DB92D482830006820F0E040D4F820
:101AC0008C10084329492831086000E0A846207896
:101AD00000F04000402836D1D4F89800B0F5406FAF
:101AE0001DD007DC68B1B0F5806F0BD0B0F5006F8A
:101AF00018D10DE0B0F5805F12D0B0F5A05F11D124
:101B00000FE011E00021201D01F022F905460BE055
:101B1000022104F1240001F0CDF9054604E003E0C0
:101B200002E001E0012500BF00BF5DB90F482C3085
:101B3000006820F4E050D4F8981008430B492C3189
:101B4000086000E0A846207800F0800080283AD1A4
:101B5000D4F89C00B0F5C04F23D00DDC98B1B0F59F
:101B6000005F11D0B0F5804F1ED113E02C44025815
:101B700000480258FFFCFF0FB0F5004F12D0B0F53F
:101B8000204F11D10FE011E00021201D01F0E0F8FD
:101B900005460BE0022104F1240001F08BF9054613
:101BA00004E003E002E001E0012500BF00BF4DB901
:101BB000AD48006820F46040D4F89C100843AA495E
:101BC000086000E0A846207800F00800082817D137
:101BD000D4F88000B0F5805F07D1022104F1240021
:101BE00001F068F908B14FF001089F48001F006834
:101BF00020F44050D4F8801008439B49091F086026
:101C0000207800F01000102815D1D4F89400B0F519
:101C1000807F07D1022104F1240001F04BF908B1C3
:101C20004FF001089048006820F44070D4F89410F8
:101C300008438D490860206800F40020B0F5002FAB
:101C400026D1D4F8A00030B1B0F5803F09D0B0F56E
:101C5000003F0ED10CE00021201D01F079F805466F
:101C600009E0022104F1240001F024F9054602E014
:101C700001E0012500BF00BF4DB97B48006820F49A
:101C80004030D4F8A01008437749086000E0A84627
:101C9000206800F48020B0F5802F2DD1D4F8840086
:101CA000B0F5801F06D0B0F5001F0CD0B0F5401F76
:101CB00011D10FE06C482C38006840F400306A49BC
:101CC0002C39086009E0012104F1240001F0F2F848
:101CD000054602E001E0012500BF00BF5DB9624892
:101CE000001F006820F44010D4F8841008435E49B7
:101CF000091F086000E0A846206800F48030B0F5B5
:101D0000803F24D1E06C18B1B0F5803F0FD108E0DE
:101D100055482C38006840F4003053492C3908608D
:101D200007E00221201D01F013F8054601E001251E
:101D300000BF00BF55B94C480C38006820F4803013
:101D4000E16C084348490C39086000E0A846206867
:101D500000F00050B0F1005F07D1022104F124002F
:101D600001F0A8F808B14FF00108206800F4003035
:101D7000B0F5003F27D1E06FA0B1B0F5807F06D06D
:101D8000B0F5007F0CD0B0F5407F0CD109E03648AB
:101D90002C38006840F4003033492C39086004E0E6
:101DA00003E002E001E0012500BF00BF55B92E4865
:101DB000001F006820F44070E16F08432A49091FA2
:101DC000086000E0A846206800F48010B0F5801F8D
:101DD00009D125480838006820F00040216F0843E9
:101DE000214908390860206800F40010B0F5001F90
:101DF00009D11D480838006820F08070A16E0843A2
:101E0000194908390860206800F08040B0F1804F1F
:101E100011D100BF14484838006820F4004012492E
:101E20004839086008460068D4F8B81008430E49DD
:101E30004839086000BF206800F00040B0F1004F52
:101E400009D109480C38006820F04050216D084342
:101E500005490C390860B8F1000F02D10020BDE837
:101E6000F0810120FBE70000584402582DE9F041C1
:101E700004460D4614B90120BDE8F081B64800685B
:101E800000F00F00A8420ED2B348006820F00F0007
:101E90002843B14908600846006800F00F00A842D6
:101EA00001D00120E8E7207800F0040004280ED1DA
:101EB000AA492069096801F07001884207D9A7483A
:101EC000006820F0700021690843A4490860207868
:101ED00000F00800082811D1A049091D60690968AF
:101EE00001F07001884209D99C48001D006820F06B
:101EF0007000616908439949091D0860207800F065
:101F00001000102811D19549091DA069096801F434
:101F1000E061884209D99148001D006820F4E06022
:101F2000A16908438D49091D0860207800F0200050
:101F3000202811D189490831E069096801F0700150
:101F4000884209D985480830006820F07000E169AE
:101F50000843824908310860207800F00200022816
:101F60000ED17E49E068096801F00F01884207D967
:101F70007A48006820F00F00E1680843774908605C
:101F8000207800F00100002850D07448006820F448
:101F90007060A1680843714908606068022807D131
:101FA0006E4818380068C0F34040F8B9012063E774
:101FB0006068032807D1694818380068C0F340609A
:101FC000A0B9012058E76068012807D16348183894
:101FD0000068C0F3002048B901204DE75F48183879
:101FE0000068C0F3800008B9012045E75B48083865
:101FF000006820F007006168084358490839086004
:10200000FEF70CFE064608E0FEF708FE801B41F2D4
:102010008831884201D903202EE7504808380068EB
:1020200000F038006168B0EBC10FEDD1207800F00E
:10203000020002280ED14949E068096801F00F0149
:10204000884207D24548006820F00F00E168084345
:10205000424908604048006800F00F00A8420ED9CD
:102060003D48006820F00F0028433B4908600846BF
:10207000006800F00F00A84201D00120FCE62078A3
:1020800000F0040004280ED134492069096801F0E9
:102090007001884207D23148006820F07000216941
:1020A00008432E490860207800F00800082811D164
:1020B0002A49091D6069096801F07001884209D246
:1020C0002648001D006820F070006169084323491C
:1020D000091D0860207800F01000102811D11F4958
:1020E000091DA069096801F4E061884209D21B4812
:1020F000001D006820F4E060A16908431749091D2C
:102100000860207800F02000202811D11349083100
:10211000E069096801F07001884209D20F4808306F
:10212000006820F07000E16908430C49083108603C
:1021300000F058F809490968C1F30321084A515CC5
:1021400001F01F01C8400749086007480068FEF712
:10215000A7FD074638468FE6002000521844025873
:102160002E460008000000242400002410B5FEF7CD
:1021700093FE0749096801F00F01064A515C01F01E
:102180001F01C840044908600846006810BD0000EF
:10219000184402582E4600080400002410B5FFF72A
:1021A000E5FF05490968C1F30211044A515C01F0D9
:1021B0001F01C84010BD00001C4402582E460008F4
:1021C00010B5FFF7D3FF05490968C1F30221044A9E
:1021D000515C01F01F01C84010BD00001C440258B2
:1021E0002E460008F0B5824E366806F0380636B145
:1021F000082E15D0102E15D0182E7DD114E07C4E4F
:10220000103E3668C6F3401646B1794E103E366829
:10221000C6F3C107774E26FA07F000E07548E5E0FF
:102220007548E3E07548E1E0714E1836366806F00F
:1022300003046F4E18363668C6F305116C4E1C3613
:10224000366806F001056A4E24363668C6F3CC06B9
:1022500016FB05F601EE106AB8EE410A002971D0AE
:1022600024B1012C50D0022C6DD16DE0604E103E97
:102270003668C6F340163EB35D4E103E3668C6F370
:10228000C1075C4E26FA07F301EE103AF8EE411A48
:1022900001EE101AB8EE411A81EE812A9FED581A0C
:1022A000C0EE011A524E20363668C6F3080601EE1B
:1022B000106AB8EE411A31EE811AF7EE001A31EECB
:1022C000211A62EE010A1EE001EE101AB8EE411A60
:1022D000DFED4C1A81EE812A9FED491AC0EE011AFA
:1022E000434E20363668C6F3080601EE106AB8EE93
:1022F000411A31EE811A00E076E0F7EE001A31EE75
:10230000211A62EE010A5BE001EE101AB8EE411AE2
:102310009FED3D2AC2EE011A9FED391A80EE012A87
:10232000334E20363668C6F3080601EE106AB8EE62
:10233000411A32EE011AB7EE002A31EE021A61EEAE
:10234000810A3DE04EE01DE001EE101AB8EE411AA0
:10235000DFED2E1A81EE812A9FED291AC0EE011AB7
:10236000234E20363668C6F3080601EE106AB8EE32
:10237000411A31EE811AF7EE001A31EE211A62EE9F
:10238000010A1DE001EE101AB8EE411A9FED1E2A57
:10239000C2EE011A9FED1A1A80EE012A144E203661
:1023A0003668C6F3080601EE106AB8EE411A32EE3E
:1023B000011AB7EE002A31EE021A61EE810A00BF5F
:1023C00000BF0B4E20363668C6F34626721C01EE5F
:1023D000102AB8EE411AC0EE811ABCEEE11A11EED5
:1023E000100A00E0002001E0034800BF00BFF0BD7C
:1023F000104402580090D00300093D0000127A00FA
:10240000000000460024744C0024744A0024F44A5E
:102410002DE9F047044614B90120BDE8F087207883
:1024200000F00100002872D0F948006800F0380878
:10243000F7481830D0F80090B8F1100F06D0B8F176
:10244000180F0FD109F0030002280BD1F048103803
:102450000068C0F3404000286ED0606800286BD14F
:102460000120DAE700BF6068B0F5803F08D1E84896
:102470001038006840F48030E549103908602EE0DB
:10248000606868B9E2481038006820F48030E0499C
:10249000103908600846006820F4802008601EE0BB
:1024A0006068B0F5A02F0DD1D9481038006840F40D
:1024B0008020D749103908600846006840F4803011
:1024C00008600CE0D2481038006820F48030D04911
:1024D000103908600846006820F48020086000BFBA
:1024E0006068A8B1FEF79AFB054608E0FEF796FB88
:1024F000401B41F28831884201D903208DE7C4484E
:1025000010380068C0F340400028EFD014E014E019
:10251000FEF784FB054608E0FEF780FB401B41F216
:102520008831884201D9032077E7B948103800681C
:10253000C0F340400028EFD100BF207800F0020037
:1025400002286BD1B248006800F03808B048183053
:10255000D0F80090B8F1000F05D0B8F1180F2BD1CA
:1025600009F0030040BBAA4810380068C0F380009F
:1025700018B1E06808B901204FE700BFFEF748FB3B
:1025800041F2030188420BD8A1480C38006820F4BE
:102590007C30216940EA01309D490C3908600AE02D
:1025A0009B480C38006820F0FE40217C40EA016026
:1025B00097490C39086058E0E06870B394481038C7
:1025C000006820F01900E16808439149103908605B
:1025D000FEF724FB054606E0FEF720FB401B022821
:1025E00001D9032019E78A4810380068C0F3800039
:1025F0000028F1D000BFFEF70BFB41F20301884237
:102600000DD883480C38006820F47C30216940EAFA
:1026100001307F490C3908600CE00CE026E07C4872
:102620000C38006820F0FE40217C40EA01607849C7
:102630000C39086019E076481038006820F0010075
:10264000734910390860FEF7E9FA054606E0FEF71F
:10265000E5FA401B022801D90320DEE66C48103859
:102660000068C0F380000028F1D100BF207800F09E
:10267000100010286ED16648006800F038086448E1
:102680001830D0F80090B8F1080F06D0B8F1180F44
:102690002FD109F0030001282BD15D4810380068C4
:1026A000C0F3002020B1E069802801D00120B4E609
:1026B00000BFFEF7ADFA41F2030188420CD854483E
:1026C0000C38006820F0F84094F8201040EA81604F
:1026D0004F490C3908600BE04D48001F006820F09E
:1026E0007C5094F8201040EA01604949091F0860B5
:1026F00058E0E06968B346481038006840F0800050
:10270000434910390860FEF789FA054606E0FEF7EE
:1027100085FA401B022801D903207EE63C48103888
:102720000068C0F300200028F1D000BFFEF770FA67
:1027300041F2030188420ED835480C38006820F079
:10274000F84094F8201040EA816031490C39086063
:102750000DE00DE027E02E48001F006820F07C50BF
:1027600094F8201040EA01602949091F086019E027
:1027700027481038006820F080002549103908608B
:10278000FEF74CFA054606E0FEF748FA401B022821
:1027900001D9032041E61E4810380068C0F300202C
:1027A0000028F1D100BF207800F00800082837D1B8
:1027B0006069D0B116486430006840F001001449E7
:1027C00064310860FEF72AFA054606E0FEF726FAAD
:1027D000401B022801D903201FE60D486430006821
:1027E000C0F340000028F1D01AE0094864300068C6
:1027F00020F00100064964310860FEF70FFA054633
:1028000008E0FEF70BFA401B022803D9032004E678
:1028100010440258DC480068C0F340000028F0D1A2
:10282000207800F02000202836D1A069D0B1D64809
:102830007438006840F48050D34974390860FEF75A
:10284000EDF9054606E0FEF7E9F9401B022801D93B
:102850000320E2E5CC4874380068C0F3403000281B
:10286000F1D019E0C8487438006820F48050C64997
:1028700074390860FEF7D2F9054606E0FEF7CEF996
:10288000401B022801D90320C7E5BF4874380068FF
:10289000C0F340300028F1D1207800F00400042873
:1028A0007DD1BA48006840F48070B8490860FEF7EE
:1028B000B5F9054606E0FEF7B1F9401B642801D9D9
:1028C0000320AAE5B148006800F480700028F2D027
:1028D00000BFA068012808D1AB48001F006840F085
:1028E0000100A949091F08602DE0A06868B9A64841
:1028F000001F006820F00100A349091F0860084676
:10290000006820F0040008601DE0A06805280DD1D3
:102910009D48001F006840F004009B49091F0860A3
:102920000846006840F0010008600CE09648001F6F
:10293000006820F001009449091F086008460068FB
:1029400020F00400086000BFA068A0B1FEF766F99F
:10295000054608E0FEF762F9401B41F288318842E3
:1029600001D9032059E58848001F0068C0F34000E2
:102970000028EFD013E0FEF751F9054608E0FEF716
:102980004DF9401B41F28831884201D9032044E5CA
:102990007D48001F0068C0F340000028EFD1606A46
:1029A00000287DD078486438006800F03800182886
:1029B00077D0606A022875D173487438006820F0B7
:1029C0008070714974390860FEF728F9054606E001
:1029D000FEF724F9401B022801D903201DE56A48AF
:1029E00074380068C0F340600028F1D100BFD4E91A
:1029F0000A1041EA001064494C39096840F2F33288
:102A00009143084360494C390860208E401EC0F352
:102A10000800616B491E4FF47E4202EA41210843DF
:102A2000218F491ED20102EA014108433C21095D80
:102A3000491E120202EA0161084353494439086001
:102A400000BF081F006820F00100091F08604E4801
:102A5000403800684FF6F8718843A16C40EAC10025
:102A600049494039086048484838006820F00C005F
:102A7000216C08434449483908600846006820F042
:102A80000200616C08434049483908600846006804
:102A900040F4803008600846006840F4003002E0EE
:102AA0006FE041E025E008600846006840F48020BF
:102AB00008600846006840F0010008603248743839
:102AC000006840F08070304974390860FEF7A6F85D
:102AD000054606E0FEF7A2F8401B022801D90320B4
:102AE0009BE4294874380068C0F340600028F1D0A6
:102AF00047E025487438006820F080702249743916
:102B00000860FEF78BF8054606E0FEF787F8401BE5
:102B1000022801D9032080E41B4874380068C0F300
:102B200040600028F1D12CE017484C38076816485F
:102B300044380668606A012821D007F00301A06AC2
:102B400081421CD1C7F30511E06A884217D1C6F350
:102B50000801206B401E814211D1606B401EC6F3FC
:102B6000462188420BD1A06B401EC6F30641884225
:102B700005D1E06B401EC6F30661884201D00120FA
:102B80004BE4002049E40000744402580048025815
:102B9000042808D14FF0E021096941F004014FF009
:102BA000E022116107E04FF0E021096921F0040102
:102BB0004FF0E0221161704770B504462546681E4B
:102BC000B0F1807F01D301200FE0681E4FF0E021BB
:102BD00048610F214FF0FF3000F01AFB00204FF04A
:102BE000E021886107200861002070BD10B586B023
:102BF00004462B492068884250D100BF00BF2948B5
:102C0000006840F01000274908600846006800F09E
:102C10001000009000BF00BF00BF00BF00BF2148F0
:102C20001038006840F001001E491039086008465D
:102C3000006800F00100009000BF00BF00BF00BFAF
:102C400000BF0846006840F00100086008460068C0
:102C500000F00100009000BF00BF00BF4FF4007003
:102C6000019002200290012003900220049007208E
:102C7000059001A90C48FDF7AFFE4FF4806001906C
:102C80000720059001A90848FDF7A6FE2520FEF7BC
:102C900098F8032211462520FEF7A3F806B010BDD0
:102CA00000100140F04402580000025810B50446DC
:102CB0002049206888423BD11F48008800F400402A
:102CC00088BB1D48008800F4804070B11B48007824
:102CD0000A2803D000201849088024E016480088FC
:102CE00040F40040144908801DE0144800780D2885
:102CF00006D11148008840F480400F49088012E056
:102D00000E4800780C490988C1F30D010C4A505453
:102D100009480088401C0849088008460088C728E0
:102D200001DD00200880012204490648FDF7FEFB72
:102D300010BD0000001001401C0000241E000024F3
:102D4000400300240804002400BFFEE77047000091
:102D50002DE9F04104460E4600275548006800F072
:102D60000300032802D10120BDE8F0815048283833
:102D7000006820F080604E4928390860FDF74EFF5A
:102D8000054606E0FDF74AFF401B022801D9032053
:102D9000EAE7474828380068C0F3C0600028F1D14E
:102DA00000BF4348006820F47C30216840EA0130CD
:102DB0003F490860A088401EC0F30800A168491E72
:102DC0004FF47E4202EA41210843A189491ED20103
:102DD00002EA01410843217C491E120202EA016114
:102DE000084333491031086000BF3148001D0068B6
:102DF00020F0C000616908432D49091D086008469C
:102E0000006820F02000A16908432949091D0860D5
:102E10000846006820F0100008602548143000685B
:102E20004FF6F8718843E16940EAC1002049143146
:102E300008601F48001D006840F010001C49091D73
:102E400008602EB90846006840F40020086012E0CF
:102E5000012E08D11648001D006840F48010144966
:102E6000091D086007E01248001D006840F40010CA
:102E70000F49091D08600E482838006840F080603E
:102E80000B4928390860FDF7C9FE054606E0FDF745
:102E9000C5FE401B022801D9032065E704482838F5
:102EA0000068C0F3C0600028F1D038465CE700003D
:102EB000284402582DE9F04104460E4600275548A3
:102EC000006800F00300032802D10120BDE8F08172
:102ED00050482838006820F080504E492839086052
:102EE000FDF79CFE054606E0FDF798FE401B022814
:102EF00001D90320EAE7474828380068C0F340704A
:102F00000028F1D100BF4348006820F07C70218880
:102F100040EA01503F490860A088401EC0F3080005
:102F2000A168491E4FF47E4202EA41210843A1896B
:102F3000491ED20102EA01410843217C491E1202C6
:102F400002EA0161084333491831086000BF314883
:102F5000001D006820F44060616908432D49091D87
:102F600008600846006820F40070A16908432949F8
:102F7000091D08600846006820F480700860254834
:102F80001C3000684FF6F8718843E16940EAC100DF
:102F900020491C3108601F48001D006840F4807003
:102FA0001C49091D08602EB90846006840F48000DD
:102FB000086012E0012E08D11648001D006840F498
:102FC00000001449091D086007E01248001D006850
:102FD00040F080700F49091D08600E4828380068CD
:102FE00040F080500B4928390860FDF717FE054670
:102FF00006E0FDF713FE401B022801D9032065E718
:10300000044828380068C0F340700028F1D03846E2
:103010005CE700002844025810B50023234C2360CD
:1030200000BF00BF00BFBFF34F8F00BF00BF00BF96
:10303000231F1868C0F34E3100BFC0F3C90200BFA0
:1030400043F6E07303EA41134FF0404404EA82740C
:103050002343174C236000BF00BF131EA2F10102DF
:10306000EED10B1EA1F10101E7D100BF00BF00BFEF
:10307000BFF34F8F00BF00BF00BF0C4B703B1B68FE
:1030800043F48033094C703C236000BF00BF00BF95
:10309000BFF34F8F00BF00BF00BF00BF00BF00BF26
:1030A000BFF36F8F00BF00BF00BF10BD84ED00E015
:1030B00060EF00E000BF00BF00BFBFF34F8F00BF55
:1030C00000BF00BF00BF00BF00BFBFF36F8F00BFD6
:1030D00000BF00BF00201449086000BF00BF00BF50
:1030E000BFF34F8F00BF00BF00BF00BF00BF00BFD6
:1030F000BFF36F8F00BF00BF00BF0C48006840F4F3
:1031000000300A49086000BF00BF00BFBFF34F8F07
:1031100000BF00BF00BF00BF00BF00BFBFF36F8F85
:1031200000BF00BF00BF704750EF00E014ED00E0AB
:1031300010B5FDF779FD00F05FFF012801D0FDF724
:10314000FAF910BD2448006840F470002249086074
:103150002248006840F001002049086000201F4913
:10316000103108601D4800681D4908401B4908606F
:1031700000201A4918310860091D0860091D0860FF
:10318000164928310860091D0860091D0860091DDD
:103190000860091D0860091D0860091D0860091DF7
:1031A00008600E48006820F480200C490860002068
:1031B0000A49603108600B4800686FF30F00B0F1F6
:1031C000005F02D20120084908604FF00060024908
:1031D000803908607047000088ED00E00044025824
:1031E0007FEDF6EA0010005C0881005110B502483E
:1031F000FDF7A6F910BD00000804002400BFFEE79B
:1032000002480068C0F30220704700000CED00E0A7
:1032100010B5002804DB0A07130E054A135406E014
:103220000A07140E034A00F00F031B1FD45410BDED
:1032300000E400E018ED00E000BF704770B5044600
:103240000420FFF7A5FC0A48046025464FF47A7075
:1032500045434FF0E020006940F002004FF0E021CC
:10326000086108464561006940F00100086170BDD1
:103270001400002430B50446002504E04FF47A70B1
:1032800000F004F86D1CA542F8D330BD70B50346BC
:1032900000224FF0E02675690D4E366803FB06F4F8
:1032A0004FF0E026B16910E04FF0E026B0698842A7
:1032B0000BD0884202D20E1A324402E02E1A0E447B
:1032C00032440146A24200D300E0EDE700BF70BDEA
:1032D0001400002400BF054AD26902F04002002A0F
:1032E000F9D0C2B2014B9A62704700000010014051
:1032F00010B500F009FAFDF7A3FC042302221146E1
:10330000F02000F0FBFA4FF4F070FFF797FF4FF456
:10331000E13000F0A7FBFDF718F9FDF71BF9FDF709
:103320001EF9FDF721F90020FDF723F9FDF726F935
:10333000002010BD2DE9F04105460E4629480768DA
:1033400000202949096881F8590027480068001DB4
:10335000FDF719F950B92448006890F82C100120A5
:10336000884022490968814320480160681CD8B917
:10337000D6B11F4948681C49096888601A498268A3
:103380000968CA6018490968091D826851601649B0
:103390000968091D8160164A134909684A61114686
:1033A0000968491C11601AE07C190F4800684460E4
:1033B000BC4207D20C480168091D0E480068FDF7A1
:1033C000E7F80CE008480168091D0B480068FDF7A4
:1033D000DFF80A480068844201D208480460BDE86A
:1033E000F0810000CC000024B8000024D0000024AC
:1033F000D0DD0424C0000024BC000024E800002428
:1034000010B50446FDF7C9F831480068401C304942
:1034100008603048006840B92E48046008460068DB
:1034200001280DD100F024F90AE02B48006838B9D2
:1034300028480068C06AE16A884201D825480460CB
:1034400026480068401C25490860084600686064FA
:1034500094F82C100120884021490968084320492C
:103460000860E16A01EB81011E4A02EB81014868B4
:10347000A0608268E260211D826851608160E16A1B
:1034800001EB8101174A02EB81026261E16A01EB03
:103490008101144A52F82110491CE26A02EB8202AF
:1034A000104B43F82210FDF77DF80B48006868B117
:1034B00008480068C06AE16A884207D24FF080502D
:1034C00009490860BFF34F8FBFF36F8F10BD000035
:1034D000C8000024B8000024D4000024E400002424
:1034E000D000002400DB042404ED00E010B516E059
:1034F000FDF753F80C48C068C468201DFDF743F879
:103500000A480068401E0949086009480068401ED2
:1035100007490860FDF746F8204600F00BF804481C
:1035200000680028E4D110BDBCDD0424C8000024DC
:10353000C400002410B50446206BFDF738F820467F
:10354000FDF735F810BD000000BFFFF7CFFF0648BC
:1035500000680128F9D94FF0805004490860BFF392
:103560004F8FBFF36F8FF0E700DB042404ED00E022
:103570002DE9F05F82460F4690469B460A9E0C9CC2
:103580004FEA8801A522206BFDF716F8A8F101008B
:10359000216B01EB800929F0070909F0070008B940
:1035A000012000E0002028B94FF4587224A12CA07B
:1035B000FDF707F887B1002507E0795D04F13400D5
:1035C0004155785D00B902E06D1C102DF5D300BFA8
:1035D00000214320015502E0002084F83400202E11
:1035E00001D2012000E0002028B940F2973214A156
:1035F0001BA0FCF7E6FF202E00D31F26E662E66440
:1036000000202065201DFCF7E1FF04F11800FCF705
:10361000DDFF2461C6F12000A061646200206065C6
:1036200084F8580084F859005A4651464846FCF739
:10363000D2FF20600B9808B10B980460BDE8F09FA2
:103640002E2E5C4D6964646C6577617265735C46AF
:1036500072656552544F535C7461736B732E6300D3
:103660004572726F723A2025732C2025640D0A0072
:1036700010B5002407E004EB84010F4A02EB81003F
:10368000FCF7AEFF641C202CF5D30C48FCF7A8FF18
:103690000B48FCF7A5FF0B48FCF7A2FF0A48FCF714
:1036A0009FFF0A48FCF79CFF04480949086004484A
:1036B0000849086010BD000000DB042480DD0424FC
:1036C00094DD0424A8DD0424BCDD0424D0DD04241E
:1036D000BC000024C000002409480068006808B944
:1036E000012000E0002020B14FF0FF3005490860C4
:1036F00005E003480068C068006802490860704738
:10370000BC000024E800002410B5FFF7D3FCFFF74D
:1037100083FC0348006840F004000149086010BDC4
:103720009CEF00E030B587B00546002400BF6A4832
:10373000006840F00200684908600846006800F030
:103740000200019000BF00BF00BF0846006840F0C3
:10375000080008600846006800F00800019000BFFB
:1037600000BF00BF0846006840F01000086008462F
:10377000006800F01000019000BF00BF00BF564875
:103780000C38006840F4804053490C390860084602
:10379000006800F48040019000BF00BF402002900C
:1037A0000220039003200590012004900A20069037
:1037B00002A94A48FDF710F904200290092006905A
:1037C00002A94648FDF708F94FF46050029009201D
:1037D000069002A94248FDF7FFF804200290092054
:1037E000069002A93F48FDF7F7F83B4864380068A7
:1037F00040F480403849643908600846006820F485
:103800008040086000BF3848806800F02000002831
:10381000F9D13648344908603548486008460068A0
:1038200040F00100086000BF2F48806800F02000D1
:103830000028F9D14FF483702B49486100BF2A4812
:10384000806800F002000028F9D02748C06840F0E6
:1038500002002549C86000BF2348806800F02000AE
:103860000028F9D12049C861EB2444F4807444F461
:103870004064A81C44EA003444F4404400BF44F4CB
:10388000801444F0407444F0406408464461194890
:10389000006820F4803017490860164870300068CE
:1038A00020F001001349703108600020091D0860F4
:1038B0004FF01040091D08600F48091D08600520E1
:1038C0000C49703108600B48006840F480300949A9
:1038D000086007B030BD0000E04402580004025800
:1038E000000C025800100258005000521003000152
:1038F0000102180024ED00E02D0003032DE9F04142
:10390000CCB080460D4616461F460024514800683C
:1039100020F004004F49086000BF002001904E488D
:10392000006820F001004C4908600846006800F07B
:103930000100019047480C30006840F44040454980
:103940000C3108600846006800F44040019000BF58
:1039500000BF00BF3F480C30006800F40050B0F5D5
:10396000005FF7D1212031904FF480303290002059
:10397000349038900120379002203A90022131A8EB
:103980008162CDF8F480C56246638763002141649B
:103990000821016400218164FEF73AFD04461CB150
:1039A00001204CB0BDE8F0813F20449003204590B9
:1039B00000204690082047904020499000014A90FE
:1039C000402048904B90042144A8FEF74FFA04464B
:1039D0000CB10120E5E721480290082003904FF444
:1039E000DC71049102210591069107910021089153
:1039F00009910A91022013902020149000201F901A
:103A000020904FF44010239002A8FDF79FFC04463D
:103A10000CB10120C5E70020FFF784FEFDF732FA64
:103A20000F48006840F080000D49086000BF0C4856
:103A3000F430006840F002000949F431086008469B
:103A4000006800F00200019000BF00BFFCF7BAFF61
:103A50000020A6E70C4802582C0400580300040379
:103A60000044025810B5044609480A49086008464F
:103A7000446000218160C160016181610C2141616C
:103A8000FCF7B3FD012204490248FCF74FFD10BDCD
:103A900000100140080400241E00002470B50446F4
:103AA0000025ACB10F48006808B9012000E00020F3
:103AB00028B940F249520CA113A0FCF782FD00F096
:103AC000A5F900212046FFF735FC00F0C7FC0546AC
:103AD0003DB94FF0805010490860BFF34F8FBFF3DE
:103AE0006F8F70BDF40000242E2E5C4D6964646CF1
:103AF0006577617265735C4672656552544F535CBD
:103B00007461736B732E63004572726F723A202575
:103B1000732C2025640D0A0004ED00E070B5054605
:103B2000FCF73BFD15B92F48006800E02846044625
:103B3000201DFCF728FD78B9E06A00EB80002A49D7
:103B400051F8200040B994F82C10012088402749F2
:103B50000968814325480160A06A18B104F1180082
:103B6000FCF711FD22480068401C214908601D48EF
:103B70000068844209D1211D1E48FCF73BFD1E4808
:103B80000068401C1C49086006E01C480068401E94
:103B90001A490860FFF7A0FDFCF704FD1148006812
:103BA000844202D02046FFF7C5FC15480068C0B12A
:103BB0000C480068844214D11248006808B90120FA
:103BC00000E0002028B940F2DC420FA116A0FCF76B
:103BD000F8FC4FF0805018490860BFF34F8FBFF3D7
:103BE0006F8F70BDB800002400DB0424D0000024D7
:103BF000E4000024BCDD0424C4000024C800002428
:103C0000D4000024F40000242E2E5C4D6964646C02
:103C10006577617265735C4672656552544F535C9B
:103C20007461736B732E63004572726F723A202554
:103C3000732C2025640D0A0004ED00E00349096897
:103C4000016003490968416070470000E0000024FA
:103C5000CC0000240120014908607047DC000024EA
:103C600070B504460D462CB940F61C4207A10FA0C2
:103C7000FCF7A7FC1148016818312046FCF788FCC6
:103C800001212846FFF756FB70BD00002E2E5C4D2B
:103C90006964646C6577617265735C4672656552D0
:103CA000544F535C7461736B732E63004572726F73
:103CB000723A2025732C2025640D0A00B8000024D8
:103CC00070B504460E4615462CB940F6524211A175
:103CD00018A0FCF776FC60681A490968C8611949A0
:103CE000826809680A621749096818318268516058
:103CF0001449096818318160124909688C62216889
:103D0000491C21600DB14FF0FF3629463046FFF7C0
:103D100011FB70BD2E2E5C4D6964646C6577617219
:103D200065735C4672656552544F535C7461736B86
:103D3000732E63004572726F723A2025732C202512
:103D4000640D0A00B80000241CB51C4800210B4675
:103D50008022CDE900101AA11B4800F01DF904468D
:103D6000012C02D1FCF74BFC0446012C17D100BFFB
:103D7000502072B680F31188BFF34F8FBFF36F8F5F
:103D800062B600BF4FF0FF301049086001201049B3
:103D9000086000200F490860FCF736FC0BE0601C4F
:103DA00008B1012000E0002028B94FF404620AA104
:103DB00011A0FCF706FC144800681CBDEC000024B0
:103DC00049444C450000000049350008E800002443
:103DD000D4000024CC0000242E2E5C4D6964646C59
:103DE0006577617265735C4672656552544F535CCA
:103DF0007461736B732E63004572726F723A202583
:103E0000732C2025640D0A00F0000024024800688D
:103E1000401C014908607047F400002410B51B489D
:103E2000006818B101201A4908602DE000201849E7
:103E3000086018480068B0FA80F0C0F11F0404EB75
:103E40008400154951F8200008B1012000E000204D
:103E500028B940F6024211A118A0FCF7B2FB04EB0E
:103E600084010D4A02EB810041684968416000F11C
:103E7000080142688A4202D141684968416041684C
:103E8000C968124A116000BF10BD0000F400002490
:103E9000DC000024D000002400DB04242E2E5C4D26
:103EA0006964646C6577617265735C4672656552BE
:103EB000544F535C7461736B732E63004572726F61
:103EC000723A2025732C2025640D0A00B8000024C6
:103ED00070B506460C462EB940F6FD421FA127A03C
:103EE000FCF76FFB2CB940F6FE421CA123A0FCF7A7
:103EF00068FBFCF752FB254802687068131A2448D7
:103F0000006890F8590030B100202149096881F813
:103F1000590001251EE02068401C08B9002519E061
:103F20001C4930680968884206D07068904203D8FE
:103F30000125002020600DE02068984207D9206804
:103F4000C01A20603046FFF779FE002502E000200D
:103F500020600125FCF726FB284670BD2E2E5C4D07
:103F60006964646C6577617265735C4672656552FD
:103F7000544F535C7461736B732E63004572726FA0
:103F8000723A2025732C2025640D0A00CC000024F1
:103F9000B8000024E00000242DE9FF4F85B08046E2
:103FA00089461746DDE912ABB800FCF732FB06463E
:103FB00056B15C20FCF72DFB04460CB1266304E0EF
:103FC0003046FCF7F4FA00E000247CB10020CDE993
:103FD00000ABCDE902403A4649464046089BFFF710
:103FE000C7FA2046FFF70CFA012501E04FF0FF3534
:103FF000284609B0BDE8F08F0549096809B90120D4
:1040000005E00449096809B9022000E00020704772
:10401000D4000024F400002401490868704700001F
:10402000CC0000242DE9F0414FF000085F48006803
:1040300000287DD15E480068451C5D480560002D64
:104040001DD15C480068006808B9012000E000202C
:1040500028B940F6C72258A15FA0FCF7B2FA55482C
:10406000076861480068534908605F4807605F4817
:104070000068401C5D490860FFF72EFB00BF5C48EC
:104080000068854277D300BF4A480068006808B9D5
:10409000012000E0002020B14FF0FF3054490860BB
:1040A00068E044480068C068C4686668B54202D2E7
:1040B0004F4806605EE06069D4E902128A60D4E984
:1040C00002214A60211D42688A4201D1E1684160B3
:1040D000002262610168491E0160A06A98B1A06A6D
:1040E000D4E907128A60D4E907214A6004F1180173
:1040F00042688A4201D1216A41600022A2620168BD
:10410000491E016000BF94F82C10012088403949F5
:104110000968084337490860E16A01EB8101364AC2
:1041200002EB81014868A0608268E260211D00E026
:1041300033E0826851608160E16A01EB81012E4ABF
:1041400002EB81026261E16A01EB81012A4A52F8C5
:104150002110491CE26A02EB8202274B43F822102D
:104160002649E06A0968C96A88428DD34FF0010880
:104170008AE700E000BF21480068C06A00EB8000C9
:104180001D4951F82000012801D94FF001081C48B1
:10419000006808B14FF0010804E01A480068401CAC
:1041A000184908604046BDE8F0810000F400002492
:1041B000CC000024BC0000242E2E5C4D6964646C8D
:1041C0006577617265735C4672656552544F535CE6
:1041D0007461736B732E63004572726F723A20259F
:1041E000732C2025640D0A00C0000024E000002488
:1041F000E8000024D000002400DB0424B8000024E0
:10420000DC000024D800002470B505462C460026AA
:10421000002D5ED030480068844201D1012000E0CA
:10422000002028B941F24F022CA134A0FCF7C9F9B3
:10423000206D28B941F2500228A130A0FCF7C1F945
:10424000206D401E2065E16CE06A884241D0206DFF
:1042500000283ED1201DFCF796F940B994F82C10A7
:104260000120884029490968814328480160E06CA1
:10427000E062E06AC0F12000A06194F82C100120F7
:10428000884022490968084320490860E16A01EB37
:1042900081011F4A02EB81014868A0608268E260E8
:1042A000211D826851608160E16A01EB8101184A39
:1042B00002EB81026261E16A01EB8101144A52F86A
:1042C0002110491CE26A02EB8202114B43F82210D2
:1042D0000126304670BD0000B80000242E2E5C4D33
:1042E0006964646C6577617265735C46726565527A
:1042F000544F535C7461736B732E63004572726F1D
:10430000723A2025732C2025640D0A00D000002469
:1043100000DB042470B50646F068C4682CB940F68A
:1043200082423CA143A0FCF74CF9A06AD4E90712F1
:104330008A60D4E907214A6004F1180142688A4280
:1043400001D1216A41600022A2620168491E016018
:104350003C48006800283DD16069D4E902128A60B7
:10436000D4E902214A60211D42688A4201D1E168F4
:104370004160002262610168491E016094F82C10BE
:10438000012088403049096808432F490860E16AE4
:1043900001EB81012D4A02EB81014868A06082682F
:1043A000E260211D826851608160E16A01EB810158
:1043B000264A02EB81026261E16A01EB8101234A34
:1043C00052F82110491CE26A02EB82021F4B43F8AB
:1043D000221010E01E494868E0618268226204F100
:1043E0001801826851608160194AA2621146096809
:1043F000491C116000BF1749E06A0968C96A884210
:1044000004D9012501201449086000E00025284650
:1044100070BD00002E2E5C4D6964646C657761721E
:1044200065735C4672656552544F535C7461736B7F
:10443000732E63004572726F723A2025732C20250B
:10444000640D0A00F4000024D000002400DB0424E2
:10445000A8DD0424B8000024DC00002470B500248A
:1044600000265048006828B940F6B3024EA156A075
:10447000FCF7A7F8FCF791F84A480068401E494944
:1044800008600846006800287ED15348006800286C
:104490007AD05BE05148C068C468A06AD4E90712CA
:1044A0008A60D4E907214A6004F1180142688A420F
:1044B00001D1216A41600022A2620168491E0160A7
:1044C0006069D4E902128A60D4E902214A60211DA0
:1044D00042688A4201D1E16841600022626101685C
:1044E000491E016094F82C10012088403C4909685D
:1044F00008433B490860E16A01EB8101394A02EB5C
:1045000081014868A0608268E260211D8268516074
:104510008160E16A01EB8101324A02EB8102626152
:10452000E16A01EB81012F4A52F82110491CE26A2D
:1045300002EB82022B4B43F822102B49E06A0968F8
:10454000C96A884202D301202849086023480068CC
:1045500008B9012000E0002000289BD00CB1FFF733
:10456000BBF82348056865B100BFFFF75BFD10B1DC
:1045700001201E4908606D1E002DF6D100201C4947
:1045800008601A48006800E008E038B101263007EA
:1045900018490860BFF34F8FBFF36F8FFCF702F825
:1045A000304670BDF40000242E2E5C4D6964646CAE
:1045B0006577617265735C4672656552544F535CF2
:1045C0007461736B732E63004572726F723A2025AB
:1045D000732C2025640D0A00C8000024A8DD0424E3
:1045E000D000002400DB0424B8000024DC000024F8
:1045F000D800002404ED00E010B500290AD00878A6
:10460000002807D005487844FCF708F8002801D0B6
:10461000002010BD0248784410BD00005A00000080
:10462000520000004FF04070E1EE100A70470000A9
:104630000000010203040102030406070809000048
:104640007C4600080000002440030000D40200085B
:104650008847000840030024806F070030030008EB
:104660001C00000043000000F8FFFFFF0C000000EA
:104670000E0000000F0000002E000000113C90D042
:104680000304011B321012011A05043122F823FF22
:10469000FF000D3C45800390D9840390997A0390E4
:1046A0001E0D1B03903D0413400532243230323876
:1046B00042201540B504241CE003307412382CF05D
:1046C00001207C0140023B1F1AAA01011402202D87
:1046D000021E01180A04210490FC20049008081A04
:1046E000F4081AF80411190C1AF0081A64081A6C64
:1046F000041A14041A1C041A58041A0C041A5C0430
:104700001A50041A30041A48041A3C041A24041ECD
:10471000E023049078086112FF1F58E0039058E1ED
:10472000041AE2041AE30429109904411A08201A11
:1047300008201A08201AAC043910990401A406179D
:10474000D4C3B2A16F180A550F0390310C0390D552
:1047500004180AAD0D0390F50E039021081A5D04AC
:104760001A85041E942504909C041AA4041E042493
:104770000490AC081AB4041A9004C11E5426049084
:084780005804691823FFFF0033
:0200000490006A
:10000000662939F04D83642900F0B480782900F026
:10001000ED80732900F06785002070472D4B19682B
:100020000868B0E8F04F80F30988BFF36F8F4FF096
:10003000000080F311887047000000000848006845
:10004000006880F308884FF0000080F3148862B6DF
:1000500061B6BFF34F8FBFF36F8F00DF00BF00BFEC
:1000600008ED00E0DFF80C00016841F47001016068
:10007000704700BF88ED00E0EFF30980BFF36F8F9A
:10008000144B1A681EF0100F08BF20ED108A20E9EB
:10009000F04F106009B44FF0500072B680F3118831
:1000A000BFF34F8FBFF36F8F62B601F019FA4FF0B5
:1000B000000080F3118809BC19680868B0E8F04FA7
:1000C0001EF0100F08BFB0EC108A80F30988BFF350
:1000D0006F8F7047B8000024EFF305807047000071
:1000E0000FB4044910B503AA029800F001FD10BC3A
:1000F0005DF814FB180000240FB41CB5074B06AACA
:100100007B4469460090059800F0C3FC00206946D6
:1001100000F0D2FC1CBC5DF814FB0000B509000027
:1001200070B50C460546012A05D02878800600D512
:10013000EA69002302E0012305E05B1C934202D23E
:10014000E05C0028F9D1A869E618C01AA861286AFD
:10015000184428622846AFF3008004E0D5E9012165
:1001600014F8010B9047B442F8D32846AFF300804F
:1001700070BD00002DE9F041064600241068752985
:10018000314616A510D0AFF30080002802DA4042B5
:1001900013A507E031688A0701D512A502E04907D7
:1001A00004D511A5012401E0AFF3008000210A224B
:1001B00006F1240709E0B0FBF2FCB0FBF2F302FB0E
:1001C0001C00303078541846491C0028F3D12346CF
:1001D0002A463046BDE8F04100F0EEB900000000CC
:1001E0002D0000002B0000002000000070B5044628
:1001F0000D4621461068AFF300802188090502D51D
:100200000F4A7A4402E00E4A7A440E32002104F189
:10021000240305E000F00F060009965D5E54491CBA
:100220000028F7D120780023000704D5702D02D0D4
:1002300009B1022311322046BDE8704000F0BCB97C
:100240009E1D04002DE9F05F894604464FF0000A28
:10025000DFF824B1FB44C0F820A02046E1688847BD
:1002600000287DD0252806D0D4E901219047206AB6
:10027000401C2062F1E700255F462046E168884780
:100280002028064607DB312E05D2B81910F8200CBD
:1002900008B10543F1E7A80701D525F00405C4F826
:1002A0001CA00027C4F818A02A2E09D0304603F05D
:1002B00040FC38B304EB8708303EC8F8186019E0FA
:1002C00059F8041B204604EB87029161E1688847D6
:1002D000012F064618D1E069002820DA25F0200514
:1002E0001DE0D8F8180000EB800006EB4000303825
:1002F000C8F818002046E1688847064603F019FC54
:100300000028EED1012F0AD02E2E08D12046E16818
:1003100088477F1C0646022F45F02005C4DBA069F4
:10032000002803DA404245F00105A061E80701D04A
:1003300025F01005A6B1A6F14100192802D82036F3
:1003400045F400654A463146204625604D46FFF794
:1003500057FE60B1012807D0ED1D25F0070000E031
:1003600007E000F1080978E705F1040975E7304670
:100370007AE7206ABDE8F09F741D040040EA01039B
:10038000024630B59B0710D14FF0013400E008C29F
:1003900008C91D1B9D4315EAC41FF8D013F0FF01C7
:1003A00002F8011B0DD01B0AF8E711F8013B002BE6
:1003B00002F8013B05D011F8013B002B02F8013B8C
:1003C000F3D130BD10B5431C02E010F8011B71B130
:1003D0008107FAD14FF0013202C88C1A8C4314EA1B
:1003E000C211F9D0C01A0A0603D0C01E10BDC01A2F
:1003F00010BD0A0401D0801E10BD0902FCD0401EB1
:1004000010BD032A40F2308010F0030C00F015807C
:1004100011F8013BBCF1020F624498BF11F801CB07
:1004200000F8013B38BF11F8013BA2F1040298BF6C
:1004300000F801CB38BF00F8013B11F0030300F0D6
:100440002580083AC0F0088051F8043B083A51F87A
:1004500004CBA0E80810F5E7121D5CBF51F8043B7F
:1004600040F8043BAFF30080D20724BF11F8013BF2
:1004700011F801CB48BF11F8012B24BF00F8013B54
:1004800000F801CB48BF00F8012B704710B5203AA7
:10049000C0F00B80B1E81850203AA0E81850B1E83D
:1004A0001850A0E81850BFF4F5AF5FEA027C24BFF3
:1004B000B1E81850A0E8185044BF18C918C0BDE8EA
:1004C00010405FEA827C24BF51F8043B40F8043BB3
:1004D00008BF7047D20728BF31F8023B48BF11F868
:1004E000012B28BF20F8023B48BF00F8012B7047C2
:1004F00002F0FF0343EA032242EA024200F00CBB8F
:100500004FF0000200B5134694469646203922BFAC
:10051000A0E80C50A0E80C50B1F12001BFF4F7AFF7
:10052000090728BFA0E80C5048BF0CC05DF804EBD9
:10053000890028BF40F8042B08BF704748BF20F847
:10054000022B11F0804F18BF00F8012B70470000FC
:100550004FF0013C50F8042B51F8043B9A4215D15E
:10056000A2EB0C03934313EACC130BD150F8042BEA
:1005700051F8043B9A4209D1A2EB0C03934313EACE
:10058000CC13E7D04FF00000704700BFD01A01BA7B
:10059000B1FA81F101F0180122FA01F0CB40C1F16A
:1005A0002001DBB2C0B2C01A2CFA01F3D11A914378
:1005B00011EAC311E6D170472DE9F0470D4699467F
:1005C0009246044600F124080168880604D5E069D3
:1005D00021F01001216000E00120A84201DD471B4D
:1005E00000E00027A1697A1902EB0900081AA0614E
:1005F0002078C00602D42046AFF30080002608E031
:10060000D4E901211AF806009047206A401C761CA4
:1006100020624E45F4DB2078C0060AD52046AFF3B1
:10062000008006E0D4E9012130209047206A401C78
:100630002062381EA7F10107F4DC07E0D4E90121AC
:1006400018F805009047206A401C2062281EA5F17A
:100650000105F3DC2046AFF300802078000602D5C8
:100660000220BDE8F0870120FBE770472DE9FF4F2E
:100670000C461E464FF0FF378BB0D2E90001DDF883
:1006800060800A908A46C1F30A5505B93D460021AB
:1006900008464FF00000BAF1000F00F4400005DA00
:1006A00000EB80004FF4400101EA50004FEA9059FE
:1006B000B9F1010F00DDB9460A9850EA4A000ED0A0
:1006C00044F61050A5F2FF3545432F14B8F1000F42
:1006D0001ED07542291E1EDDC9F100021CE0B8F1D2
:1006E000010F4FF0000001D0302103E0F24305E09C
:1006F0002154401CB042FBDB304600220021215433
:100700000B99C1F80880C1E900200FB0BDE8F08F57
:10071000BD1B6D1CDEE74A4600DA694206A800F000
:10072000A1FA06AB93E8070003AB83E80700504645
:100730000A9900F00DFB8DE80700A0F500501F3866
:1007400000900398002D0ADD42F21F014A4608443A
:10075000002303A90390684600F076FD09E0A0F5A8
:1007600000504A461F38002303A90390684600F052
:1007700080FD8DE807000004000C03D04FF0FF302F
:10078000410800E01046B8F1000F03D000220092AB
:1007900015461EE0751E05D400F0DEF930326255B4
:1007A0006D1EF9D5B3460122084302D000227F1CFA
:1007B00004E02078302801D100227F1E002A09970A
:1007C00084D01DE0112D07DA00F0C6F930326255F1
:1007D0006D1C50EA0102F5D1084302D00098C8B15F
:1007E0000EE00021681E05E0235C625C6354225425
:1007F000401E491C8142F7DBAB46A81B401E0990F6
:10080000002004F80B000B98099AC0F80880C0E992
:10081000002B7AE711264FF0000857E72DE9F04F3B
:1008200088460446D21D22F0070191B0D1E90001AB
:10083000CDE90A0103F047F902460B98C00F01D039
:100840002D2007E02068810701D52B2002E0202120
:1008500001EAC000032A099001D0072A05DB0346FC
:100860004146204600F0BEF90BE12078800601D514
:10087000E06900E00620B8F1650F814606D0B8F1C6
:10088000660F18D0B8F1670F70D131E00020B9F1D0
:10089000110F009001DB112301E009F101030AAA05
:1008A00001A90CA8FFF7E2FEDDE90C70002609F1B2
:1008B0000105834647E001204B4600904FF000477A
:1008C0000AAA01A90CA8FFF7D1FEDDE90DB00C9929
:1008D0005D46002610B909F101000D18B9EB0500BD
:1008E00003D4C0F1FF3609F10105A5EB09002BE0A7
:1008F000B9F1010F01DA4FF001090020B9F1110F30
:100900000090484601DD112300E003460AAA01A930
:100910000CA8FFF7ABFEDDE90C704D4600268346C0
:10092000207800070AD4AB4500DA5D4601A8012D06
:1009300004DD411911F8011C302907D04F4502DAB6
:1009400017F1040F04DA012082460FE06D1EEEE776
:10095000002F02DCED1B3E4403E0781CA84200DDC2
:100960007D1CB81B00F1010A4FF0004720780007FA
:1009700003D4AA4501DB4FF0FF3A0021B7F1004F45
:100980000DF143088DF8431024D002202B23002FB3
:1009900001DA7F422D230A21021EA0F1010000DCB2
:1009A0005FB197FBF1FC97FBF1F201FB1C7C174652
:1009B0000CF1300C08F801CDEEE7A8F1010003704E
:1009C0002188090501D5452100E06521A0F1010834
:1009D00000F8011C09980FA9A1EB0807FF1D00B141
:1009E0000120411901EBEA70A1693844081A401E40
:1009F000A0612078C00602D42046AFF30080099899
:100A000028B1D4E901219047206A401C2062207857
:100A1000C00622D52046AFF300801EE0002E04DB86
:100A2000B34502DD01A8805D00E03020D4E901215A
:100A30009047206A401C2062761CAAF101005FEA00
:100A4000000A0AD100F051FDC0680168405CD4E999
:100A500001219047206A401C2062281EA5F1010553
:100A6000DCDC07E0D4E9012118F8010B9047206A8B
:100A7000401C2062381EA7F10107F3DC2046AFF3CB
:100A80000080032011B041E601694A1C0261087828
:100A9000704700B58FB0CDE90131002105910549BE
:100AA0007944CDE9031011466846FFF7CBFB0FB040
:100AB00000BD0000E5FFFFFF0A6802F8010B0A60B5
:100AC000704710B5436913B1AFF3008001E0FFF741
:100AD00027FB012010BD127800F124010A700022CA
:100AE0004A700122EDE711684FF0FF32E9E700009C
:100AF000074B70B50D467B44FFF7CBFF04462846F5
:100B000000F022F910B14FF0FF3070BD204670BDEB
:100B1000DB2700784FF000020429C0F0128010F0AB
:100B2000030C3FF4EFACCCF1040CBCF1020F18BF86
:100B300000F8012BA8BF20F8022BA1EB0C01FFF756
:100B4000E1BC5FEAC17C24BF00F8012B00F8012B57
:100B500048BF00F8012B704730B5B0F10A024FEAE8
:100B6000900E71F100034EEA817EB0EB0E0061EB56
:100B700091014FEA101E4EEA017E10EB0E0041EB90
:100B800011114FEA102E4EEA016E10EB0E0041EBF0
:100B900011214FEA104E4EEA014E10EB0E0041EBD0
:100BA0001141401841F100014FEAD00040EA417084
:100BB0004FEAD10110EB80054FEA810444EA9074BA
:100BC00044EB01046D1944EB0404521BA3414FF0A4
:100BD000000348BF0A3200D530BD401C41F100017E
:100BE00030BD00002DE9F0411F4604460326016890
:100BF000072A01F4006004DB08B116A505E016A57C
:100C000003E008B115A500E015A521F01000206053
:100C1000A069C01EA0610FB1401EA0612046AFF3C5
:100C200000804FB1D4E9012138469047206A401C2A
:100C30002062C01C206206E0206AFAE7D4E90121A4
:100C400015F8010B9047761EF8D22046AFF30080CE
:100C5000BDE8F0814E414E006E616E00494E460087
:100C6000696E66002DE9F047814616468AB0354820
:100C700078440DC88DE80D0032487844801C03ACE0
:100C80000DC884E80D0041F69B300844372190FBE5
:100C9000F1F290FBF1F5A5F1800501FB12041B3C7C
:100CA00002D56442012000E00020DFF898A08046D1
:100CB0000027FA44AAF1BE0A0EE0E0070AD0324645
:100CC000684607EB470101230AEB810100F0D1FAE6
:100CD0008DE8070064107F1C002CEED1194F7F4473
:100CE000AE3F19E0E80715D007EB04100DF1180A24
:100CF00090E80E008AE80E00C068F04201D1981911
:100D000008903246012306A903A800F0B2FA03AB0B
:100D100083E807006D10641C002DE3D14FF0010340
:100D200032466946B8F1000F03A802D000F08CFAF1
:100D300001E000F09EFAC9E90001C9F808200AB0F4
:100D4000BDE8F087E8130400007B00F080007047E6
:100D50005FEA400C08BF91F0000F4FEA8C234FEA86
:100D6000C12243EA51514FEA1C5018BF00F5F04030
:100D70004FEA300018BF41F000415FEA6C5C00F0C0
:100D80002980BCF1FF3F08BF40F080407047130C42
:100D900006BF12044FF0100C4FF0000C130E04BFEE
:100DA00012020CF1080C130F04BF12010CF1040C19
:100DB000930F04BF92000CF1020CD30F04BF52003A
:100DC0000CF1010C11464FF00002A0F11F00A0EB46
:100DD0000C00704711F0004F08BF704731F0004120
:100DE0003FF4D5AF0B0C06BF09044FF0100C4FF0C9
:100DF000000C0B0E04BF09020CF1080C0B0F04BF12
:100E000009010CF1040C8B0F04BF89000CF1020CDA
:100E1000CB0F04BF49000CF1010CCCF12003A0EB77
:100E20000C0022FA03F302FA0CF241EA030100F18A
:100E30000100704720F07F4C80EA030023F07F47D9
:100E4000ACEB070303F57C5300F0004003F1FF0314
:100E50002DE980494FEA154B09B44FEA144325EABE
:100E60000B4E24EA03480FF2042606EB1327490829
:100E70003E785FEA320203FB0667C7F5000707FB0F
:100E800006F64FEA54374FEAD64606F1020607FB4C
:100E9000066CCCF1005C4FEA1C472CEA074C07FBC0
:100EA00006F40CFB06F504EB15464FEA961634BF24
:100EB00000204FF000404FEAD13706FB07FC4FEA15
:100EC0001C4C0CFB0BF7D21B03FB0CF761EB07016F
:100ED0000CFB0EF7B0EB074072EB17420CFB08F768
:100EE00034BFA2EB0742B2EB074261EB17414FEA76
:100EF0000C444FEA910706FB07FC4FEA1C4C0CFB25
:100F00000BF7B0EBC74072EB573203FB0CF734BF63
:100F1000A2EBC742B2EBC74261EB57310CFB0EF7B5
:100F2000B0EBC70072EB57720CFB08F734BFA2EBB3
:100F3000C702B2EBC70261EB5771039F4FEA8161B1
:100F400041EA921104EBCC044FEAD1374FEA8262B6
:100F500006FB07FC42EA90124FEA80604FEA1C4C05
:100F60000CFB0BF7D21B03FB0CF761EB07010CFB2F
:100F70000EF7B0EB074072EB17420CFB08F734BFDB
:100F8000A2EB0742B2EB074261EB17414FEA8C55E7
:100F90004FEA910704EB9C2406FB07FC4FEA1C4C2C
:100FA0000CFB0BF7B0EBC74072EB573203FB0CF7AF
:100FB00034BFA2EBC742B2EBC74261EB57310CFB27
:100FC0000EF7B0EBC70072EB57720CFB08F734BF9B
:100FD000A2EBC702B2EBC70261EB577115EB4C25D0
:100FE0004FEA816141EA92114FEA82624FEAD137BA
:100FF00042EA901206FB07FC44F100044FEA8060CD
:101000004FEA1C4C0CFB0BF7D21B03FB0CF761EBFC
:1010100007010CFB0EF7B0EB074072EB17420CFB1D
:1010200008F734BFA2EB0742B2EB074261EB17416E
:1010300015EB1C154FEA813141EA92414FEA8232A9
:1010400042EA90424FEA80304FEA0C7644F10004C5
:1010500048EA03434EEA0B484FF0000EB2EB080C8F
:1010600071EB030724BF624639464EEB0E0E4FF07C
:10107000000B0018524149414BEB0B0BB2EB080C33
:1010800071EB03077BF1000B24BF624639464EEB40
:101090000E0E4FF0000B0018524149414BEB0B0B69
:1010A000B2EB080C71EB03077BF1000B24BF624627
:1010B00039464EEB0E0E51EA020718BF46F0010604
:1010C00016EB0E7655F1000254F1000103D5BDE890
:1010D0008901BDE80088BDE88901BDE80048B6196E
:1010E000524141EB0101A3F10103704780807F7EF3
:1010F0007D7C7B7A7978777676757473727171708E
:101100006F6E6E6D6C6C6B6A6A696868676666653F
:101110006464636362616160605F5F5E5E5D5D5CCD
:101120005C5B5B5A5A59595858575756565555553E
:101130005454535352525251515050504F4F4F4E9E
:101140004E4D4D4D4C4C4C4B4B4B4A4A4A494949EC
:10115000484848474747474646464545454444442E
:10116000444343434342424242414141002B9C4657
:1011700030D477002BD01CB54FEA370703B44FF0BB
:1011800010004FF01001BAF1000F06D0BCF1000FB3
:10119000DCBF40F0080040F008014FF000000FBC39
:1011A000BDE810400BF1010BBBF1010F08BF5FEA76
:1011B000170722BF12F1010211F101014FF00041A6
:1011C00043F1000300F0004043EA00007047F9D308
:1011D0005708D0E746EA064613F1400F4FEA164695
:1011E0001FDD13F1200FDFBF16430A460021203315
:1011F0005B42BED0C3F1200746EA064602FA07F773
:101200004FEA164646EA0706C3F1200722FA03F220
:1012100001FA07F721FA03F14FF0000342EA07024F
:10122000A7E746EA020646EA06464FEA164646EAB7
:101230000106BCBF46EA0646360C4FF000034FF0ED
:1012400000024FF0000194E72DE9804C9A46934646
:1012500070B491E8380007C831EA400C48BF34EA5E
:10126000430C03D5FFF7E6FDFFF780FFF0BCBDE8B8
:10127000008C2DE9804C9A46934670B491E8380072
:1012800007C810F0804F08BF13F0804F03D100F063
:1012900005F8FFF76BFFF0BCBDE8008C20F07F473E
:1012A00080EA030023F07F4C07EB0C03A3F57C538B
:1012B00000F00040A3F1FE0392F0000F00F0B380B5
:1012C00095F0000F00F077802DE901494FEA1140B9
:1012D0004FEA144621EA004800FB06FC24EA0647D0
:1012E00008FB06F607FB08F800FB07F718EB0648B3
:1012F0004CEB164C4FEA124B18EB07484FEA1546D9
:101300004CEB174022EA0B4E0BFB06FC25EA064786
:101310000EFB06F607FB0EFE0BFB07F71EEB064E59
:101320004CEB164C4FF000061EEB074E4CEB174BE8
:1013300018EB0B0840F1000018EB0E0B58EB0008FF
:1013400040F100008F1A4FF000013CBFC943661BFB
