:020000040800F2
:1000000070850724890300084D3700084937000828
:10001000F129009027060008AD3E0008000000000E
:100020000000000000000000000000001D00009023
:100030002B0600080000000079000090E13D000858
:10004000A3030008A3030008A3030008A3030008F8
:10005000A3030008A3030008A3030008A3030008E8
:10006000A3030008A3030008A3030008A3030008D8
:10007000A3030008A3030008A3030008A3030008C8
:10008000A3030008A3030008A3030008A3030008B8
:10009000A3030008A3030008A3030008A3030008A8
:1000A000A3030008A3030008A3030008A303000898
:1000B000A3030008A3030008A3030008A303000888
:1000C000A3030008A3030008A3030008A303000878
:1000D000A30300089D3E0008A3030008A303000833
:1000E000A3030008A303000800000000A303000806
:1000F000A3030008A3030008A3030008A303000848
:10010000A3030008A3030008A3030008A303000837
:10011000A3030008A303000875380090A303000898
:10012000A3030008A3030008A3030008A303000817
:10013000A3030008A3030008A3030008A303000807
:1001400000000000000000000000000000000000AF
:10015000A3030008A3030008A3030008A3030008E7
:10016000A3030008A3030008A3030008A3030008D7
:10017000A3030008A3030008A3030008A3030008C7
:10018000A3030008A3030008A3030008A3030008B7
:10019000A3030008A3030008A3030008A3030008A7
:1001A000A3030008A3030008A3030008A303000897
:1001B000A3030008A3030008A3030008A303000887
:1001C000A3030008A3030008A3030008A303000877
:1001D000A3030008A3030008A3030008A303000867
:1001E000A3030008A3030008A3030008A303000857
:1001F000A3030008A3030008A3030008A303000847
:10020000A3030008A3030008A3030008A303000836
:10021000A3030008A3030008A3030008A303000826
:10022000A3030008A3030008A303000800000000C4
:10023000A3030008A303000800000000A3030008B4
:10024000A3030008A3030008A3030008A3030008F6
:10025000A3030008A3030008A3030008A3030008E6
:10026000A3030008A3030008A3030008A3030008D6
:10027000A3030008A3030008A30300080000000074
:10028000A3030008A3030008A30300080000000064
:1002900000000000A303000800F002F800F064F87A
:1002A0000AA090E8000C82448344AAF10107DA45D1
:1002B00001D100F059F8AFF2090EBAE80F0013F0BF
:1002C000010F18BFFB1A43F001031847C455000083
:1002D000E45500000A444FF0000C10F8013B13F005
:1002E000070408BF10F8014B1D1108BF10F8015B8F
:1002F000641E05D010F8016B641E01F8016BF9D182
:1003000013F0080F1EBF10F8014BAD1C0C1B09D1D8
:100310006D1E58BF01F801CBFAD505E014F8016B4A
:1003200001F8016B6D1EF9D59142D6D370470000DC
:100330000023002400250026103A28BF78C1FBD8EE
:10034000520728BF30C148BF0B6070471FB505F08A
:1003500091FA00F0B5F804000020002105F074FACD
:10036000E0601FBD10B510BD00F0B2F81146FFF7F8
:10037000EDFF03F015FE00F0D0F803B4FFF7F2FF35
:1003800003BC03F0B1FD000009488047094800475D
:10039000FEE7FEE7FEE7FEE7FEE7FEE7FEE7FEE735
:1003A000FEE7FEE704480549054A064B7047000092
:1003B000F53D000899020008707B0724708507242A
:1003C000707D0724707D0724704753EA020C00F00B
:1003D00069802DE9F04B4FF00006002B1FBFB3FAE8
:1003E00083F503FA05F424FA05F65E4012BF1643BE
:1003F000B2FA82F502FA05F4C5F120051EBF22FA11
:1004000005FC44EA0C04203556EA044C4FEA144437
:1004100018BF641C4FF000084FF00009904271EBC8
:10042000030C39D3002919BFB1FA81F701FA07F695
:10043000B0FA80F700FA07F6C7F120071EBF20FACE
:1004400007FC46EA0C062037B6FBF4FCA7EB0507D1
:10045000103F07F01F0BCBF120060CFA0BFB2CFA18
:1004600006F644BFB3460026202FA4BF5E464FF0D9
:10047000000B5BEA060C08BF4FF0010B19EB0B09F0
:10048000ABFB027C48EB0608C01B06FB02CC0BFB57
:1004900003CC71EB0C01C1E70B46024641464846CE
:1004A000BDE8F08B13B54FF000004FF00001AFF343
:1004B0000080BDE81C407047704770477047704728
:1004C00000487047307B072400487047107B0724A2
:1004D0007546FFF7F9FFAE4605006946534620F022
:1004E0000700854618B020B5FFF75CFFBDE8204047
:1004F0004FF000064FF000074FF000084FF0000BE0
:1005000021F00701AC46ACE8C009ACE8C009ACE892
:10051000C009ACE8C0098D46704710B50446AFF37A
:1005200000802046BDE81040FFF727BF42F6B10C1F
:10053000C9F2000C60474CF6011CC9F2030C60477D
:1005400042F22D6CC9F2000C60474EF2410CC9F228
:10055000010C604745F2312CC9F2030C60474DF2A3
:10056000553CC9F2010C60474AF22D5CC9F2010CFE
:10057000604745F24D5CC9F2030C604744F2A15C50
:10058000C9F2030C60474CF22F2CC9F2030C6047F0
:100590004CF2772CC9F2030C60474CF2C52CC9F21F
:1005A000030C60474CF2613CC9F2030C60474CF20B
:1005B000E13CC9F2030C604740F2415CC9F2000C17
:1005C000604740F2E10CC9F2000C60474CF2712C1C
:1005D000C9F2030C604746F2057CC9F2030C604780
:1005E0004CF2572CC9F2030C604742F6390CC9F2A1
:1005F000000C60474CF2AB2CC9F2030C60474CF680
:10060000394CC9F2030C60474CF29D7CC9F2030CD3
:10061000604746F2B14CC9F2030C604740F2A15C5E
:10062000C9F2000C604700BFFEE7704770B5044692
:100630000CB9012070BD94F83500022803D0802049
:1006400060650120F6E7DC492068884249D0DA4934
:1006500018312068884244D0D74930312068884218
:100660003FD0D5494831206888423AD0D2496031DC
:100670002068884235D0D04978312068884230D00F
:10068000CD499031206888422BD0CB49A8312068D1
:10069000884226D0C9492068884222D0C7491831EB
:1006A000206888421DD0C54930312068884218D062
:1006B000C24948312068884213D0C049603120685F
:1006C00088420ED0BD4978312068884209D0BB49A4
:1006D00090312068884204D0B849A8312068884207
:1006E00001D1012000E00020F0B3042084F835009F
:1006F000B149206888424BD0AF4918312068884200
:1007000046D0AD4930312068884241D0AA494831AD
:10071000206888423CD0A84960312068884237D0A0
:10072000A54978312068884232D0A34990312068A9
:1007300088422DD0A049A8312068884228D09F49FE
:100740002068884224D09D491831206888421FD0F3
:100750009A493031206888421AD098494831206837
:10076000884215D0954900E020E060312068884239
:100770000ED0924978312068884209D08F49903153
:100780002068884204D08D49A8312068884206D16B
:100790002068006820F001002168086009E12068F5
:1007A000006820F001002168086002E1206800680C
:1007B00020F00E00216808607F492068884249D0F7
:1007C0007D4918312068884244D07B493031206807
:1007D00088423FD078494831206888423AD07649EB
:1007E00060312068884235D073497831206888426A
:1007F00030D071499031206888422BD06E49A831A1
:100800002068884226D06D492068884222D06B49F2
:100810001831206888421DD06849303120688842EC
:1008200018D0664948312068884213D06349603146
:10083000206888420ED0614978312068884209D00A
:100840005E4990312068884204D05C49A831206814
:10085000884206D12068006820F001002168086005
:1008600005E02068006820F0010021680860524916
:100870002068884270D050491831206888426BD077
:100880004D4930312068884266D04B494831206854
:10089000884261D048496031206888425CD046492E
:1008A00078312068884257D0434990312068884287
:1008B00052D04149A831206888424DD03F49206834
:1008C000884249D03D4918312068884244D03B498C
:1008D0003031206888423FD038494831206888420A
:1008E0003AD0364960312068884235D03349783172
:1008F0002068884230D031499031206888422BD01E
:100900002E49A8312068884226D02D492068884287
:1009100022D02B491431206888421DD02849283123
:100920002068884218D026493C312068884213D07C
:1009300023495031206888420ED021496431206813
:10094000884209D01E4978312068884204D01C4969
:100950008C312068884201D1012000E00020D8B10C
:10096000206E006820F48070216E0860A56D94F8F8
:100970005C0000F01F01012088406860D4E9191074
:100980004860E06E40B1E06E006820F48070E16E77
:100990000860D4E91C10486000BF002084F83400CF
:1009A00000BF012084F83500206D10B12046216D74
:1009B000884700203EE6000010000240100402407C
:1009C0000854025810B50446A0B203F0ABFA10BDAB
:1009D0000348006840F001000149086070470000CA
:1009E00020040058F8B502460023734DDEE00127CD
:1009F0009F400E6806EA0704002C71D04E68022E54
:100A000002D04E68122E13D1DF0802F1200656F8EC
:100A100027005E07F70E0F26BE40B0435F07FF0EAC
:100A20000E69BE403043DF0802F1200646F8270079
:100A300010685F000326BE40B0430E7906F003063F
:100A40005F00BE40304310604E68012E08D04E68F3
:100A5000022E05D04E68112E02D04E68122E13D1F0
:100A600090685F000326BE40B0435F00CE68BE4082
:100A700030439060506801269E40B0430E79C6F323
:100A800000169E4030435060D0685F000326BE4091
:100A9000B0435F008E68BE403043D0604E6806F0C1
:100AA0008056B6F1805F1BD100BF444E366846F0D9
:100AB0000206424F3E603E46366806F00206009649
:100AC00000BF00BF3E4E9F0856F827009E07370F15
:100AD0000F26BE40B0433B4EB24202D100262EE06C
:100AE00063E0394EB24201D1012628E0374EB242CE
:100AF00001D1022623E0364EB24201D103261EE088
:100B0000344EB24201D1042619E0334EB24201D133
:100B1000052614E0314EB24201D106260FE0304ED8
:100B2000B24201D107260AE02E4EB24201D1082678
:100B300005E02D4EB24201D1092600E00A269F07AA
:100B40003F0FBE4030431E4E9F0846F827002868DE
:100B5000A0434E6806F48036B6F5803F00D12043AE
:100B600028606868A0434E6806F40036B6F5003F7A
:100B700000D1204368604FF0B0463068A0434E6813
:100B800006F48016B6F5801F00D120434FF0B04622
:100B900030607068A0434E6806F40016B6F5001F7A
:100BA00000D120434FF0B04670605B1C0E68DE4001
:100BB000002E7FF41CAFF8BD80000058F4440258AA
:100BC00008040058000002580004025800080258A7
:100BD000000C025800100258001402580018025865
:100BE000001C0258002002580024025802461369D3
:100BF0000B400BB1012000E00020704742690A4021
:100C00008A4202D10A04826100E0816170470AB120
:100C1000816101E00B0483617047000001480068B6
:100C2000000C70470010005C01480068704700002D
:100C3000200000240348006803490978084401495A
:100C400008607047200000242800002410B503200D
:100C500000F00AF901F0C6FF10490968C1F3032149
:100C60000F4A515C01F01F01C8400E4908600B4853
:100C7000006800F00F001146085C00F01F010948F1
:100C80000068C840084908600F2000F00FF808B15C
:100C9000012010BD00F09AF80020FAE7184402582D
:100CA0007E580008000000240400002470B50446AB
:100CB0001148007808B9012070BD0F4800784FF442
:100CC0007A71B1FBF0F00D490968B1FBF0F52846E7
:100CD00002F072FC08B10120EEE7102C07D20022CE
:100CE0002146501E00F083F80548046001E0012011
:100CF000E2E70020E0E700002800002400000024D4
:100D0000240000244178154A11600178F9B1121DC0
:100D100041681160017B0907C27A41EA0261827A67
:100D200041EAC241427B41EA8241827B41EA42413F
:100D3000C27B41EA0241427A41EA0221027A41EA57
:100D4000420102781143054A0832116005E0002192
:100D5000024A121D1160121D1160704798ED00E0EB
:100D600000BF00BF00BFBFF35F8F00BF00BF00BF69
:100D70000548006820F480300349086000200249DB
:100D8000703108607047000024ED00E040F0010180
:100D90000D4A11600C497039096841F480310A4AE2
:100DA000703A116000BF00BF00BFBFF34F8F00BF9C
:100DB00000BF00BF00BF00BF00BFBFF36F8F00BF09
:100DC00000BF00BF7047000094ED00E0704701468F
:100DD0000846002809DB00F01F0301229A4043095E
:100DE0009B0003F1E023C3F8002100BF70472DE909
:100DF000F05F80460D46164603F05AF8074639461E
:100E00002A46334601F00700C0F1070ABAF1040F81
:100E100002D94FF0040A01E0C0F1070AD14600F1FF
:100E2000040ABAF1070F02D24FF0000A01E0A0F164
:100E3000030AD4464FF0010A0AFA09FAAAF1010A94
:100E40000AEA020A0AFA0CFA4FF0010B0BFA0CFB41
:100E5000ABF1010B0BEA030B4AEA0B0421464046B7
:100E600003F02EF8BDE8F09F00BF00F00702064B2C
:100E700019684FF6FF031940044B0B4343EA022164
:100E8000014B196000BF70470CED00E00000FA054F
:100E90000348006840F08070014908607047000016
:100EA0000C4802582DE9F84304460D461746FFF753
:100EB000BBFE8046A86900B100BFE86900B100BF71
:100EC000286A00B100BF00BF94F84000012802D199
:100ED0000220BDE8F883012084F8400000BF94F8A8
:100EE0004100012828D100206064022084F84100DC
:100EF0004346002220212046009702F01CFD0646B2
:100F0000DEB900222946204602F021FC686A78B941
:100F10004346012202212046009702F00CFD0646BE
:100F20005EB902202168C860012084F8410004E015
:100F3000012084F8410000E0022600BF002084F870
:100F4000400000BF3046C4E7F8B50446FFF76CFE2A
:100F500006460CB90120F8BD206A402800D000BF29
:100F600000BF94F84000012801D10220F3E70120DE
:100F700084F8400000BF94F8410050B9002084F884
:100F80004000204600F04CF841F28831204600F045
:100F900035F92068006820F47061A068401E41EABD
:100FA000002021680860A06C3346002220210090B8
:100FB000204602F0C0FC054635BB2179E06840EAD6
:100FC0000160E1690843216A084321680968124AFF
:100FD0001140084321680860208A616941EA0040A5
:100FE000A1690843216849680C4A114008432168F7
:100FF00048602068006840F0010021680860002017
:101000006064012084F8410000BF002084F84000A3
:1010100000BF28469FE700002FFFFF00FEF8E0FF1B
:1010200010B586B0044600BF3748006840F48040E1
:10103000354908600846006800F48040009000BF11
:1010400000BF00BF30480C30006840F002002E495D
:101050000C3108600846006800F00200009000BFF4
:1010600000BF00BF0846006840F00800086008465E
:10107000006800F00800009000BF00BF00BF0846F5
:10108000006840F0100008600846006800F010009A
:10109000009000BF00BF402001900220029001207C
:1010A0000390032004900A20059001A91748FFF738
:1010B00099FC04200190022002900120039003205B
:1010C00004900920059001A91048FFF78BFC4FF40C
:1010D0000060019001A90E48FFF784FC4FF4805096
:1010E000019001A90A48FFF77DFC4FF400500190E0
:1010F00001A90748FFF776FC0420019001A90548E3
:10110000FFF770FC06B010BDD4440258000402582A
:10111000000C0258001002582DE9F84F04460E4604
:1011200017460025FFF780FD80462068D0F818900C
:10113000206800F1200A00BF94F84000012802D185
:101140000220BDE8F88F012084F8400000BF94F829
:10115000410001284AD100206064002E40D02220A6
:1011600084F8410020680069401CA0632068006981
:10117000401C606326632068406920F0406040F0B6
:101180008060216848612068C0F8189013E04346E9
:10119000012206212046009702F0CDFB054605B14D
:1011A0000CE09AF80000216B0870206B401C206353
:1011B000A06B401EA063A06B0028E8D100BF5DB902
:1011C0004346012202212046009702F0B4FB054667
:1011D00015B902202168C860012084F8410006E0AA
:1011E000606C40F008006064012500E0022500BF4B
:1011F000002084F8400000BF2846A2E781647047C1
:101200002DE9F84304460E4617460025FFF70CFD6E
:101210008046206800F1200900BF94F840000128B2
:1012200002D10220BDE8F883012084F8400000BF0D
:1012300094F84100012845D100206064002E3BD085
:10124000122084F8410020680069401CE062206898
:101250000069401CA06266622068406920F040601E
:101260002168486113E0434601220421204600978B
:1012700002F061FB054605B10CE0606A007889F870
:101280000000606A401C6062E06A401EE062E06A42
:101290000028E8D100BF5DB9434601220221204663
:1012A000009702F048FB054615B902202168C86086
:1012B000012084F8410006E0606C40F008006064A2
:1012C000012500E0022500BF002084F8400000BF97
:1012D0002846A7E710B501F085FC07490968C1F366
:1012E0000321064A515C01F01F01C840044908600F
:1012F0000846006810BD0000184402587E580008D7
:101300000000002410B501F031FC05490968C1F363
:101310000211044A515C01F01F01C84010BD0000D9
:10132000204402587E58000870B50146844D2D684F
:1013300005F00303824D2D68C5F30510804D2D1D6A
:101340002D6805F001047E4D0C352D68C5F3CC05E4
:1013500015FB04F501EE105AB8EE411AF0EE410A01
:1013600000286FD023B1012B4ED0022B6BD16BE044
:10137000734D283D2D68C5F340153DB3704D283D94
:101380002D68C5F3C1066F4D25FA06F201EE102A4D
:10139000F8EE411A01EE100AB8EE411A81EE812AE8
:1013A0009FED691AC0EE811A654D08352D68C5F3A9
:1013B000080501EE105AB8EE411A31EE811AF7EE27
:1013C000001A31EE211A22EE010A1CE001EE100A89
:1013D000B8EE411ADFED5D1A81EE812A9FED5A1AAF
:1013E000C0EE811A564D08352D68C5F3080501EE8B
:1013F000105AB8EE411A31EE811AF7EE001A31EEAA
:10140000211A22EE010A5BE001EE100AB8EE411A41
:10141000DFED4F1A81EE812A9FED4B1AC0EE811A43
:10142000474D08352D68C5F3080501EE105AB8EE92
:10143000411A31EE811AF7EE001A31EE211A22EE2E
:10144000010A3DE077E01DE001EE100AB8EE411A16
:101450009FED402AC2EE011A9FED3B1A80EE812AD1
:10146000374D08352D68C5F3080501EE105AB8EE62
:10147000411A32EE011AB7EE002A31EE021A21EEBD
:10148000810A1DE001EE100AB8EE411ADFED301AB4
:1014900081EE812A9FED2C1AC0EE811A284D083565
:1014A0002D68C5F3080501EE105AB8EE411A31EE69
:1014B000811AF7EE001A31EE211A22EE010A00BF5E
:1014C00000BF1F4D08352D68C5F3462501EE105AA3
:1014D000B8EE411AF7EE001A31EE211AC0EE011AE9
:1014E000BCEEE11A81ED001A154D08352D68C5F3E3
:1014F000064501EE105AB8EE411AF7EE001A31EE29
:10150000211AC0EE011ABCEEE11A81ED011A0C4D50
:1015100008352D68C5F3066501EE105AB8EE411A7C
:10152000F7EE001A31EE211AC0EE011ABCEEE11AF4
:1015300081ED021A03E000250D604D608D6070BDE5
:10154000284402580090D003000000460024744C48
:101550000024744A0024F44A70B50146844D2D6875
:1015600005F00303824D2D68C5F30530804D2D1D18
:101570002D68C5F300147E4D14352D68C5F3CC05D8
:1015800015FB04F501EE105AB8EE411AF0EE410ACF
:1015900000286FD023B1012B4ED0022B6BD16BE012
:1015A000734D283D2D68C5F340153DB3704D283D62
:1015B0002D68C5F3C1066F4D25FA06F201EE102A1B
:1015C000F8EE411A01EE100AB8EE411A81EE812AB6
:1015D0009FED691AC0EE811A654D10352D68C5F36F
:1015E000080501EE105AB8EE411A31EE811AF7EEF5
:1015F000001A31EE211A22EE010A1CE001EE100A57
:10160000B8EE411ADFED5D1A81EE812A9FED5A1A7C
:10161000C0EE811A564D10352D68C5F3080501EE50
:10162000105AB8EE411A31EE811AF7EE001A31EE77
:10163000211A22EE010A5BE001EE100AB8EE411A0F
:10164000DFED4F1A81EE812A9FED4B1AC0EE811A11
:10165000474D10352D68C5F3080501EE105AB8EE58
:10166000411A31EE811AF7EE001A31EE211A22EEFC
:10167000010A3DE077E01DE001EE100AB8EE411AE4
:101680009FED402AC2EE011A9FED3B1A80EE812A9F
:10169000374D10352D68C5F3080501EE105AB8EE28
:1016A000411A32EE011AB7EE002A31EE021A21EE8B
:1016B000810A1DE001EE100AB8EE411ADFED301A82
:1016C00081EE812A9FED2C1AC0EE811A284D10352B
:1016D0002D68C5F3080501EE105AB8EE411A31EE37
:1016E000811AF7EE001A31EE211A22EE010A00BF2C
:1016F00000BF1F4D10352D68C5F3462501EE105A69
:10170000B8EE411AF7EE001A31EE211AC0EE011AB6
:10171000BCEEE11A81ED001A154D10352D68C5F3A8
:10172000064501EE105AB8EE411AF7EE001A31EEF6
:10173000211AC0EE011ABCEEE11A81ED011A0C4D1E
:1017400010352D68C5F3066501EE105AB8EE411A42
:10175000F7EE001A31EE211AC0EE011ABCEEE11AC2
:1017600081ED021A03E000250D604D608D6070BDB3
:10177000284402580090D003000000460024744C16
:101780000024744A0024F44A70B50146844D2D6843
:1017900005F00303824D2D68C5F30550804D2D1DC6
:1017A0002D68C5F300247E4D1C352D68C5F3CC058E
:1017B00015FB04F501EE105AB8EE411AF0EE410A9D
:1017C00000286FD023B1012B4ED0022B6BD16BE0E0
:1017D000734D283D2D68C5F340153DB3704D283D30
:1017E0002D68C5F3C1066F4D25FA06F201EE102AE9
:1017F000F8EE411A01EE100AB8EE411A81EE812A84
:101800009FED691AC0EE811A654D18352D68C5F334
:10181000080501EE105AB8EE411A31EE811AF7EEC2
:10182000001A31EE211A22EE010A1CE001EE100A24
:10183000B8EE411ADFED5D1A81EE812A9FED5A1A4A
:10184000C0EE811A564D18352D68C5F3080501EE16
:10185000105AB8EE411A31EE811AF7EE001A31EE45
:10186000211A22EE010A5BE001EE100AB8EE411ADD
:10187000DFED4F1A81EE812A9FED4B1AC0EE811ADF
:10188000474D18352D68C5F3080501EE105AB8EE1E
:10189000411A31EE811AF7EE001A31EE211A22EECA
:1018A000010A3DE077E01DE001EE100AB8EE411AB2
:1018B0009FED402AC2EE011A9FED3B1A80EE812A6D
:1018C000374D18352D68C5F3080501EE105AB8EEEE
:1018D000411A32EE011AB7EE002A31EE021A21EE59
:1018E000810A1DE001EE100AB8EE411ADFED301A50
:1018F00081EE812A9FED2C1AC0EE811A284D1835F1
:101900002D68C5F3080501EE105AB8EE411A31EE04
:10191000811AF7EE001A31EE211A22EE010A00BFF9
:1019200000BF1F4D18352D68C5F3462501EE105A2E
:10193000B8EE411AF7EE001A31EE211AC0EE011A84
:10194000BCEEE11A81ED001A154D18352D68C5F36E
:10195000064501EE105AB8EE411AF7EE001A31EEC4
:10196000211AC0EE011ABCEEE11A81ED011A0C4DEC
:1019700018352D68C5F3066501EE105AB8EE411A08
:10198000F7EE001A31EE211AC0EE011ABCEEE11A90
:1019900081ED021A03E000250D604D608D6070BD81
:1019A000284402580090D003000000460024744CE4
:1019B0000024744A0024F44A2DE9F0418AB0064616
:1019C000B6F5807F32D1DC48006800F00707052FAC
:1019D00029D2DFE807F003080D26120007A8FFF759
:1019E000A3FC089C21E004A8FFF7B6FD049C1CE0C2
:1019F00001A8FFF7C9FE019C17E0CF48001F00684F
:101A000000F040550DB9CD4C0AE0B5F1805F01D131
:101A1000CB4C05E0B5F1005F01D1CA4C00E00024D9
:101A200003E0C94C01E0002400BF80E1B6F5007F6F
:101A300038D1C148006800F4E077802F14D003DC6F
:101A400047B1402F2BD10AE0C02F26D0B7F5807FB9
:101A500025D10EE007A8FFF767FC089C21E004A849
:101A6000FFF77AFD049C1CE001A8FFF78DFE019CA6
:101A700017E0B148001F006800F040550DB9AF4CA9
:101A80000AE0B5F1805F01D1AD4C05E0B5F1005F32
:101A900001D1AC4C00E0002403E0AB4C01E0002499
:101AA00000BF44E1B6F5806F3CD1A3480830006820
:101AB00000F46007B7F5800F16D004DC57B1B7F516
:101AC000001F2CD10BE0B7F5C00F26D0B7F5000FE3
:101AD00025D10EE007A8FFF727FC089C21E004A809
:101AE000FFF73AFD049C1CE001A8FFF74DFE019CA6
:101AF00017E09148001F006800F040550DB98F4C69
:101B00000AE0B5F1805F01D18D4C05E0B5F1005FD1
:101B100001D18C4C00E0002403E08B4C01E0002458
:101B200000BF04E1B6F5006F3CD18348083000687F
:101B300000F0E067B7F1007F16D004DC57B1B7F1D1
:101B4000807F2CD10BE0B7F1407F26D0B7F1806FBA
:101B500025D10EE007A8FFF7E7FB089C21E004A8C9
:101B6000FFF7FAFC049C1CE001A8FFF70DFE019CA6
:101B700017E07148001F006800F040550DB96F4C28
:101B80000AE0B5F1805F01D16D4C05E0B5F1005F71
:101B900001D16C4C00E0002403E06B4C01E0002418
:101BA00000BFC4E0B6F5805F3DD16348006800F433
:101BB000E048B8F5005F18D006DCB8F1000F0AD095
:101BC000B8F5805F2CD10BE0B8F5405F26D0B8F5B2
:101BD000804F25D10EE007A8FFF7A6FB089C21E067
:101BE00004A8FFF7B9FC049C1CE001A8FFF7CCFD9A
:101BF000019C17E05048001F006800F040550DB9E7
:101C00004E4C0AE0B5F1805F01D14D4C05E0B5F1D5
:101C1000005F01D14B4C00E0002403E04A4C01E09E
:101C2000002400BF83E0B6F5002F2FD142480830D2
:101C3000006800F44038B8F1000F06D0B8F5803FD6
:101C400008D0B8F5003F1ED109E004A8FFF784FCD6
:101C5000049C1AE001A8FFF797FD039C15E03648A5
:101C6000001F006800F040550DB9344C0AE0B5F192
:101C7000805F01D1324C05E0B5F1005F01D1314CFC
:101C800000E0002401E0002400BF50E0B6F5803FF2
:101C900018D12948001F006800F48038B8F1000FFF
:101CA00003D0B8F5803F0AD104E007A8FFF73CFB5A
:101CB000089C06E004A8FFF74FFC069C01E0002406
:101CC00000BF34E0B6F5804F30D11B4808300068C3
:101CD00000F0E048B8F1405F1FD009DCB8F1000F18
:101CE0000DD0B8F1805F0ED0B8F1005F1BD10FE0CE
:101CF000B8F1804F13D0B8F1A04F14D111E0FFF725
:101D000001FB044611E004A8FFF726FC059C0CE04B
:101D100001A8FFF739FD029C07E0084C05E0084CDC
:101D200003E0084C01E0002400BF00E0002420464E
:101D30000AB0BDE8F0810000504402580090D00382
:101D400000093D0000127A000080BB002DE9F0413F
:101D500004460025A846206800F00060B0F1006F3E
:101D600030D1606E48B1B0F5801F0DD0B0F5001FC6
:101D700010D0B0F5401F15D113E0F948006840F4C9
:101D80000030F74908600FE00221201D01F0FAFD44
:101D9000054609E0022104F1240001F0A5FE0546F4
:101DA00002E001E0012500BF00BF55B9EC48243036
:101DB000006820F44010616E0843E949243108604E
:101DC00000E0A846208800F48070B0F5807F2DD117
:101DD000606D05281AD2DFE800F0030A101718001A
:101DE000DF48006840F40030DD49086010E0002161
:101DF000201D01F0C7FD05460AE0002104F1240082
:101E000001F072FE054603E002E001E0012500BF9B
:101E100000BF55B9D2482430006820F00700616D3A
:101E20000843CF492431086000E0A846208800F428
:101E30000070B0F5007F33D1A06D802817D003DC8F
:101E400040B140281CD10CE0C02817D0B0F5807FED
:101E500016D114E0C248006840F40030C049086060
:101E600010E00021201D01F08DFD05460AE0002153
:101E700004F1240001F038FE054603E002E001E031
:101E8000012500BF00BF55B9B5482430006820F4D3
:101E9000E070A16D0843B2492431086000E0A84613
:101EA000208800F48060B0F5806F38D1D4F8A400A9
:101EB000B0F5800F19D004DC50B1B0F5001F1DD172
:101EC0000DE0B0F5C00F17D0B0F5000F16D114E03B
:101ED000A348006840F40030A149086010E00021E8
:101EE000201D01F04FFD05460AE0002104F1240009
:101EF00001F0FAFD054603E002E001E0012500BF24
:101F000000BF5DB996482C30006820F46000D4F81A
:101F1000A410084392492C31086000E0A8462088AC
:101F200000F40060B0F5006F38D1D4F8A800B0F12B
:101F3000007F19D004DC50B1B0F1807F1DD10DE0DD
:101F4000B0F1407F17D0B0F1806F16D114E0844813
:101F5000006840F400308249086010E00021201D34
:101F600001F010FD05460AE0002104F1240001F013
:101F7000BBFD054603E002E001E0012500BF00BF14
:101F80005DB977482C30006820F0E060D4F8A810E4
:101F9000084373492C31086000E0A846206800F02F
:101FA0000070B0F1007F27D1A06CA0B1102804D040
:101FB000202809D030280FD10CE06948006840F48F
:101FC00000306749086009E00221201D01F0DAFCB9
:101FD000054603E002E001E0012500BF00BF55B95E
:101FE0005F482030006820F03000A16C08435C4955
:101FF0002031086000E0A846208800F48050B0F549
:10200000805F36D1E06DB0F5005F19D004DC50B1CF
:10201000B0F5805F1DD10DE0B0F5405F17D0B0F591
:10202000804F16D114E04E48006840F400304C490F
:10203000086010E00021201D01F0A4FC05460AE024
:10204000002104F1240001F04FFD054603E002E009
:1020500001E0012500BF00BF55B9414824300068A8
:1020600020F4E040E16D08433D492431086000E080
:10207000A846208800F40050B0F5005F34D1206EEF
:10208000B0F5403F1DD007DC68B1B0F5803F0BD004
:10209000B0F5003F18D10DE0B0F5802F12D0B0F5AB
:1020A000A02F11D10FE011E00121201D01F06AFCE9
:1020B00005460BE0012104F1240001F015FD054661
:1020C00004E003E002E001E0012500BF00BF55B9D4
:1020D00023482430006820F4E020216E0843204982
:1020E0002431086000E0A846208800F48040B0F564
:1020F000804F38D1D4F8AC00B0F1405F1DD007DC80
:1021000068B1B0F1805F0BD0B0F1005F18D10DE085
:10211000B0F1804F12D0B0F1A04F11D10FE011E01B
:102120000121201D01F02EFC05460BE0012104F1E8
:10213000240001F0D9FC054604E003E002E001E0E0
:10214000012500BF00BF6DB905482C30006820F0A4
:10215000E040D4F8AC10084301492C31086002E09B
:102160002C440258A846208800F40040B0F5004FE7
:1021700026D1E06E98B1B0F1805F03D0B0F1005F7E
:102180000ED106E0F948006840F40030F7490860D5
:1021900008E00121201D01F0F5FB054602E001E009
:1021A000012500BF00BF55B9F0482430006820F079
:1021B0004050E16E0843ED492431086000E0A84634
:1021C000206800F08070B0F1807F27D1606CA0B1F2
:1021D000012804D0022809D003280FD10CE0E348DD
:1021E000006840F40030E149086009E00221201D48
:1021F00001F0C8FB054603E002E001E0012500BF55
:1022000000BF55B9D9482030006820F00300616C48
:102210000843D6492031086000E0A846206800F451
:102220008000B0F5800F7DD1D148006840F4807007
:10223000CF490860FEF7F8FC064606E0FEF7F4FC1E
:10224000801B642801D9032505E0C948006800F413
:1022500080700028F2D000BF85BBC44844300068BD
:1022600000F44070B4F8B01001F44071884213D00B
:10227000BE484430006820F44077BC4844300068D1
:1022800040F48030B949443108600846006820F4C1
:102290008030086008460760D4F8B000B0F5807F51
:1022A00015D1FEF7C1FC064609E0FEF7BDFC801B18
:1022B00041F28831884202D9032507E038E0AB4873
:1022C00044300068C0F340000028EED000BF55BB8A
:1022D00000BFB4F8B00000F44070B0F5407F0ED1FC
:1022E000A2481C38006820F47C51A24AD4F8B000FF
:1022F000104041EA10109D491C39086007E09B48D6
:102300001C38006820F47C5098491C3908609748B4
:1023100044300068B4F8B010C1F30B01084393498E
:10232000443101E005E001E0086002E0A84600E079
:10233000A846207800F0010068B3A06F182819D0D3
:1023400005DC48B1082808D0102816D10BE0202859
:1023500011D0282811D10FE011E00121201D01F03A
:1023600011FB05460BE0012104F1240001F0BCFB48
:10237000054604E003E002E001E0012500BF00BFE4
:1023800055B97A482830006820F03800A16F08431A
:1023900076492831086000E0A846207800F0020065
:1023A000022828D1606F062815D2DFE800F0030468
:1023B0000A11121311E00121201D01F0E3FA054674
:1023C0000BE0012104F1240001F08EFB054604E03E
:1023D00003E002E001E0012500BF00BF55B96348FA
:1023E0002830006820F00700616F08435F492831FA
:1023F000086000E0A846207800F0040004282AD1F4
:10240000D4F89000062815D2DFE800F003040A1182
:10241000121311E00121201D01F0B4FA05460BE072
:10242000012104F1240001F05FFB054604E003E014
:1024300002E001E0012500BF00BF5DB94B482C3030
:10244000006820F00700D4F89010084347492C3169
:10245000086000E0A846207800F02000202836D14F
:10246000D4F88C00B0F1405F1DD007DC68B1B0F14A
:10247000805F0BD0B0F1005F18D10DE0B0F1804F5C
:1024800012D0B0F1A04F11D10FE011E00021201DBA
:1024900001F078FA05460BE0022104F1240001F076
:1024A00023FB054604E003E002E001E0012500BF54
:1024B00000BF5DB92D482830006820F0E040D4F816
:1024C0008C10084329492831086000E0A84620788C
:1024D00000F04000402836D1D4F89800B0F5406FA5
:1024E0001DD007DC68B1B0F5806F0BD0B0F5006F80
:1024F00018D10DE0B0F5805F12D0B0F5A05F11D11A
:102500000FE011E00021201D01F03CFA05460BE030
:10251000022104F1240001F0E7FA054604E003E09B
:1025200002E001E0012500BF00BF5DB90F482C307B
:10253000006820F4E050D4F8981008430B492C317F
:10254000086000E0A846207800F0800080283AD19A
:10255000D4F89C00B0F5C04F23D00DDC98B1B0F595
:10256000005F11D0B0F5804F1ED113E02C4402580B
:1025700000480258FFFCFF0FB0F5004F12D0B0F535
:10258000204F11D10FE011E00021201D01F0FAF9D8
:1025900005460BE0022104F1240001F0A5FA0546EE
:1025A00004E003E002E001E0012500BF00BF4DB9F7
:1025B000AD48006820F46040D4F89C100843AA4954
:1025C000086000E0A846207800F00800082817D12D
:1025D000D4F88000B0F5805F07D1022104F1240017
:1025E00001F082FA08B14FF001089F48001F00680F
:1025F00020F44050D4F8801008439B49091F08601C
:10260000207800F01000102815D1D4F89400B0F50F
:10261000807F07D1022104F1240001F065FA08B19E
:102620004FF001089048006820F44070D4F89410EE
:1026300008438D490860206800F40020B0F5002FA1
:1026400026D1D4F8A00030B1B0F5803F09D0B0F564
:10265000003F0ED10CE00021201D01F093F905464A
:1026600009E0022104F1240001F03EFA054602E0EF
:1026700001E0012500BF00BF4DB97B48006820F490
:102680004030D4F8A01008437749086000E0A8461D
:10269000206800F48020B0F5802F2DD1D4F884007C
:1026A000B0F5801F06D0B0F5001F0CD0B0F5401F6C
:1026B00011D10FE06C482C38006840F400306A49B2
:1026C0002C39086009E0012104F1240001F00CFA22
:1026D000054602E001E0012500BF00BF5DB9624888
:1026E000001F006820F44010D4F8841008435E49AD
:1026F000091F086000E0A846206800F48030B0F5AB
:10270000803F24D1E06C18B1B0F5803F0FD108E0D4
:1027100055482C38006840F4003053492C39086083
:1027200007E00221201D01F02DF9054601E00125F9
:1027300000BF00BF55B94C480C38006820F4803009
:10274000E16C084348490C39086000E0A84620685D
:1027500000F00050B0F1005F07D1022104F1240025
:1027600001F0C2F908B14FF00108206800F4003010
:10277000B0F5003F27D1E06FA0B1B0F5807F06D063
:10278000B0F5007F0CD0B0F5407F0CD109E03648A1
:102790002C38006840F4003033492C39086004E0DC
:1027A00003E002E001E0012500BF00BF55B92E485B
:1027B000001F006820F44070E16F08432A49091F98
:1027C000086000E0A846206800F48010B0F5801F83
:1027D00009D125480838006820F00040216F0843DF
:1027E000214908390860206800F40010B0F5001F86
:1027F00009D11D480838006820F08070A16E084398
:10280000194908390860206800F08040B0F1804F15
:1028100011D100BF14484838006820F40040124924
:102820004839086008460068D4F8B81008430E49D3
:102830004839086000BF206800F00040B0F1004F48
:1028400009D109480C38006820F04050216D084338
:1028500005490C390860B8F1000F02D10020BDE82D
:10286000F0810120FBE70000584402582DE9F041B7
:1028700004460D4614B90120BDE8F081B648006851
:1028800000F00F00A8420ED2B348006820F00F00FD
:102890002843B14908600846006800F00F00A842CC
:1028A00001D00120E8E7207800F0040004280ED1D0
:1028B000AA492069096801F07001884207D9A74830
:1028C000006820F0700021690843A449086020785E
:1028D00000F00800082811D1A049091D60690968A5
:1028E00001F07001884209D99C48001D006820F061
:1028F0007000616908439949091D0860207800F05B
:102900001000102811D19549091DA069096801F42A
:10291000E061884209D99148001D006820F4E06018
:10292000A16908438D49091D0860207800F0200046
:10293000202811D189490831E069096801F0700146
:10294000884209D985480830006820F07000E169A4
:102950000843824908310860207800F0020002280C
:102960000ED17E49E068096801F00F01884207D95D
:102970007A48006820F00F00E16808437749086052
:10298000207800F00100002850D07448006820F43E
:102990007060A1680843714908606068022807D127
:1029A0006E4818380068C0F34040F8B9012063E76A
:1029B0006068032807D1694818380068C0F3406090
:1029C000A0B9012058E76068012807D1634818388A
:1029D0000068C0F3002048B901204DE75F4818386F
:1029E0000068C0F3800008B9012045E75B4808385B
:1029F000006820F0070061680843584908390860FA
:102A0000FEF712F9064608E0FEF70EF9801B41F2C8
:102A10008831884201D903202EE7504808380068E1
:102A200000F038006168B0EBC10FEDD1207800F004
:102A3000020002280ED14949E068096801F00F013F
:102A4000884207D24548006820F00F00E16808433B
:102A5000424908604048006800F00F00A8420ED9C3
:102A60003D48006820F00F0028433B4908600846B5
:102A7000006800F00F00A84201D00120FCE6207899
:102A800000F0040004280ED134492069096801F0DF
:102A90007001884207D23148006820F07000216937
:102AA00008432E490860207800F00800082811D15A
:102AB0002A49091D6069096801F07001884209D23C
:102AC0002648001D006820F0700061690843234912
:102AD000091D0860207800F01000102811D11F494E
:102AE000091DA069096801F4E061884209D21B4808
:102AF000001D006820F4E060A16908431749091D22
:102B00000860207800F02000202811D113490831F6
:102B1000E069096801F07001884209D20F48083065
:102B2000006820F07000E16908430C490831086032
:102B300000F058F809490968C1F30321084A515CBB
:102B400001F01F01C8400749086007480068FEF708
:102B5000ADF8074638468FE6002000521844025868
:102B60007E580008000000242400002410B5FEF761
:102B7000B1FB0749096801F00F01064A515C01F0F9
:102B80001F01C840044908600846006810BD0000E5
:102B9000184402587E5800080400002410B5FFF7BE
:102BA000E5FF05490968C1F30211044A515C01F0CF
:102BB0001F01C84010BD00001C4402587E58000888
:102BC00010B5FFF7D3FF05490968C1F30221044A94
:102BD000515C01F01F01C84010BD00001C440258A8
:102BE0007E580008F0B5824E366806F0380636B1D9
:102BF000082E15D0102E15D0182E7DD114E07C4E45
:102C0000103E3668C6F3401646B1794E103E36681F
:102C1000C6F3C107774E26FA07F000E07548E5E0F5
:102C20007548E3E07548E1E0714E1836366806F005
:102C300003046F4E18363668C6F305116C4E1C3609
:102C4000366806F001056A4E24363668C6F3CC06AF
:102C500016FB05F601EE106AB8EE410A002971D0A4
:102C600024B1012C50D0022C6DD16DE0604E103E8D
:102C70003668C6F340163EB35D4E103E3668C6F366
:102C8000C1075C4E26FA07F301EE103AF8EE411A3E
:102C900001EE101AB8EE411A81EE812A9FED581A02
:102CA000C0EE011A524E20363668C6F3080601EE11
:102CB000106AB8EE411A31EE811AF7EE001A31EEC1
:102CC000211A62EE010A1EE001EE101AB8EE411A56
:102CD000DFED4C1A81EE812A9FED491AC0EE011AF0
:102CE000434E20363668C6F3080601EE106AB8EE89
:102CF000411A31EE811A00E076E0F7EE001A31EE6B
:102D0000211A62EE010A5BE001EE101AB8EE411AD8
:102D10009FED3D2AC2EE011A9FED391A80EE012A7D
:102D2000334E20363668C6F3080601EE106AB8EE58
:102D3000411A32EE011AB7EE002A31EE021A61EEA4
:102D4000810A3DE04EE01DE001EE101AB8EE411A96
:102D5000DFED2E1A81EE812A9FED291AC0EE011AAD
:102D6000234E20363668C6F3080601EE106AB8EE28
:102D7000411A31EE811AF7EE001A31EE211A62EE95
:102D8000010A1DE001EE101AB8EE411A9FED1E2A4D
:102D9000C2EE011A9FED1A1A80EE012A144E203657
:102DA0003668C6F3080601EE106AB8EE411A32EE34
:102DB000011AB7EE002A31EE021A61EE810A00BF55
:102DC00000BF0B4E20363668C6F34626721C01EE55
:102DD000102AB8EE411AC0EE811ABCEEE11A11EECB
:102DE000100A00E0002001E0034800BF00BFF0BD72
:102DF000104402580090D00300093D0000127A00F0
:102E0000000000460024744C0024744A0024F44A54
:102E10002DE9F047044614B90120BDE8F087207879
:102E200000F00100002872D0F948006800F038086E
:102E3000F7481830D0F80090B8F1100F06D0B8F16C
:102E4000180F0FD109F0030002280BD1F0481038F9
:102E50000068C0F3404000286ED0606800286BD145
:102E60000120DAE700BF6068B0F5803F08D1E8488C
:102E70001038006840F48030E549103908602EE0D1
:102E8000606868B9E2481038006820F48030E04992
:102E9000103908600846006820F4802008601EE0B1
:102EA0006068B0F5A02F0DD1D9481038006840F403
:102EB0008020D749103908600846006840F4803007
:102EC00008600CE0D2481038006820F48030D04907
:102ED000103908600846006820F48020086000BFB0
:102EE0006068A8B1FDF7A0FE054608E0FDF79CFE6E
:102EF000401B41F28831884201D903208DE7C44844
:102F000010380068C0F340400028EFD014E014E00F
:102F1000FDF78AFE054608E0FDF786FE401B41F2FC
:102F20008831884201D9032077E7B9481038006812
:102F3000C0F340400028EFD100BF207800F002002D
:102F400002286BD1B248006800F03808B048183049
:102F5000D0F80090B8F1000F05D0B8F1180F2BD1C0
:102F600009F0030040BBAA4810380068C0F3800095
:102F700018B1E06808B901204FE700BFFDF74EFE29
:102F800041F2030188420BD8A1480C38006820F4B4
:102F90007C30216940EA01309D490C3908600AE023
:102FA0009B480C38006820F0FE40217C40EA01601C
:102FB00097490C39086058E0E06870B394481038BD
:102FC000006820F01900E168084391491039086051
:102FD000FDF72AFE054606E0FDF726FE401B022807
:102FE00001D9032019E78A4810380068C0F380002F
:102FF0000028F1D000BFFDF711FE41F20301884225
:103000000DD883480C38006820F47C30216940EAF0
:1030100001307F490C3908600CE00CE026E07C4868
:103020000C38006820F0FE40217C40EA01607849BD
:103030000C39086019E076481038006820F001006B
:10304000734910390860FDF7EFFD054606E0FDF70E
:10305000EBFD401B022801D90320DEE66C48103846
:103060000068C0F380000028F1D100BF207800F094
:10307000100010286ED16648006800F038086448D7
:103080001830D0F80090B8F1080F06D0B8F1180F3A
:103090002FD109F0030001282BD15D4810380068BA
:1030A000C0F3002020B1E069802801D00120B4E6FF
:1030B00000BFFDF7B3FD41F2030188420CD854482C
:1030C0000C38006820F0F84094F8201040EA816045
:1030D0004F490C3908600BE04D48001F006820F094
:1030E0007C5094F8201040EA01604949091F0860AB
:1030F00058E0E06968B346481038006840F0800046
:10310000434910390860FDF78FFD054606E0FDF7DD
:103110008BFD401B022801D903207EE63C48103875
:103120000068C0F300200028F1D000BFFDF776FD55
:1031300041F2030188420ED835480C38006820F06F
:10314000F84094F8201040EA816031490C39086059
:103150000DE00DE027E02E48001F006820F07C50B5
:1031600094F8201040EA01602949091F086019E01D
:1031700027481038006820F0800025491039086081
:10318000FDF752FD054606E0FDF74EFD401B022807
:1031900001D9032041E61E4810380068C0F3002022
:1031A0000028F1D100BF207800F00800082837D1AE
:1031B0006069D0B116486430006840F001001449DD
:1031C00064310860FDF730FD054606E0FDF72CFD93
:1031D000401B022801D903201FE60D486430006817
:1031E000C0F340000028F1D01AE0094864300068BC
:1031F00020F00100064964310860FDF715FD054621
:1032000008E0FDF711FD401B022803D9032004E666
:1032100010440258DC480068C0F340000028F0D198
:10322000207800F02000202836D1A069D0B1D648FF
:103230007438006840F48050D34974390860FDF751
:10324000F3FC054606E0FDF7EFFC401B022801D920
:103250000320E2E5CC4874380068C0F34030002811
:10326000F1D019E0C8487438006820F48050C6498D
:1032700074390860FDF7D8FC054606E0FDF7D4FC7C
:10328000401B022801D90320C7E5BF4874380068F5
:10329000C0F340300028F1D1207800F00400042869
:1032A0007DD1BA48006840F48070B8490860FDF7E5
:1032B000BBFC054606E0FDF7B7FC401B642801D9BE
:1032C0000320AAE5B148006800F480700028F2D01D
:1032D00000BFA068012808D1AB48001F006840F07B
:1032E0000100A949091F08602DE0A06868B9A64837
:1032F000001F006820F00100A349091F086008466C
:10330000006820F0040008601DE0A06805280DD1C9
:103310009D48001F006840F004009B49091F086099
:103320000846006840F0010008600CE09648001F65
:10333000006820F001009449091F086008460068F1
:1033400020F00400086000BFA068A0B1FDF76CFC8D
:10335000054608E0FDF768FC401B41F288318842D1
:1033600001D9032059E58848001F0068C0F34000D8
:103370000028EFD013E0FDF757FC054608E0FDF705
:1033800053FC401B41F28831884201D9032044E5B7
:103390007D48001F0068C0F340000028EFD1606A3C
:1033A00000287DD078486438006800F0380018287C
:1033B00077D0606A022875D173487438006820F0AD
:1033C0008070714974390860FDF72EFC054606E0EF
:1033D000FDF72AFC401B022801D903201DE56A489D
:1033E00074380068C0F340600028F1D100BFD4E910
:1033F0000A1041EA001064494C39096840F2F3327E
:103400009143084360494C390860208E401EC0F348
:103410000800616B491E4FF47E4202EA41210843D5
:10342000218F491ED20102EA014108433C21095D76
:10343000491E120202EA01610843534944390860F7
:1034400000BF081F006820F00100091F08604E48F7
:10345000403800684FF6F8718843A16C40EAC1001B
:1034600049494039086048484838006820F00C0055
:10347000216C08434449483908600846006820F038
:103480000200616C084340494839086008460068FA
:1034900040F4803008600846006840F4003002E0E4
:1034A0006FE041E025E008600846006840F48020B5
:1034B00008600846006840F001000860324874382F
:1034C000006840F08070304974390860FDF7ACFB4B
:1034D000054606E0FDF7A8FB401B022801D90320A2
:1034E0009BE4294874380068C0F340600028F1D09C
:1034F00047E025487438006820F08070224974390C
:103500000860FDF791FB054606E0FDF78DFB401BCB
:10351000022801D9032080E41B4874380068C0F3F6
:1035200040600028F1D12CE017484C380768164855
:1035300044380668606A012821D007F00301A06AB8
:1035400081421CD1C7F30511E06A884217D1C6F346
:103550000801206B401E814211D1606B401EC6F3F2
:10356000462188420BD1A06B401EC6F3064188421B
:1035700005D1E06B401EC6F30661884201D00120F0
:103580004BE4002049E4000074440258004802580B
:10359000042808D14FF0E021096941F004014FF0FF
:1035A000E022116107E04FF0E021096921F00401F8
:1035B0004FF0E0221161704770B504462546681E41
:1035C000B0F1807F01D301200FE0681E4FF0E021B1
:1035D00048610F214FF0FF3000F072FC00204FF0E7
:1035E000E021886107200861002070BD10B586B019
:1035F00004462B492068884250D100BF00BF2948AB
:10360000006840F01000274908600846006800F094
:103610001000009000BF00BF00BF00BF00BF2148E6
:103620001038006840F001001E4910390860084653
:10363000006800F00100009000BF00BF00BF00BFA5
:1036400000BF0846006840F00100086008460068B6
:1036500000F00100009000BF00BF00BF4FF40070F9
:103660000190022002900120039002200490072084
:10367000059001A90C48FDF7B5F94FF48060019061
:103680000720059001A90848FDF7ACF92520FDF7B2
:103690009EFB032211462520FDF7A9FB06B010BDB5
:1036A00000100140F04402580000025810B50446D2
:1036B0002049206888423BD11F48008800F4004020
:1036C00088BB1D48008800F4804070B11B4800781A
:1036D0000A2803D000201849088024E016480088F2
:1036E00040F40040144908801DE0144800780D287B
:1036F00006D11148008840F480400F49088012E04C
:103700000E4800780C490988C1F30D010C4A505449
:1037100009480088401C0849088008460088C728D6
:1037200001DD00200880012204490648FCF7FEFE66
:1037300010BD0000001001401C0000241E000024E9
:103740003C0300240404002400BFFEE7704710B5CA
:103750004B6A33B1B2F1406F03D08B6A5B1E0468D1
:1037600023618B69002B76D00B6AE3B38B68046806
:10377000E361CB69FBB1D1E90B3423434C6B2343A9
:103780004C6A23438C8A43EA84430C6923430C6AC2
:103790002343CC682343CC6923438C6923430C68BF
:1037A0002343134304686361B2F1406F02D04B6856
:1037B0000468A361BEE0D1E90B3423434C6B23437F
:1037C0004C6A23438C8A43EA84430C6923430C6A82
:1037D0002343CC6923438C6923430C68234313435D
:1037E00004686361A6E0FFE7CB69EBB1D1E90B3474
:1037F00023434C6B23434C6A23438C8A43EA844320
:103800000C6A2343CC682343CC6923438C6923434C
:103810000C682343134304686361B2F1406FC9D05D
:103820004B680468A36185E0D1E90B3423434C6BFA
:1038300023434C6A23438C8A43EA84430C6A234320
:10384000CC6923438C6923430C68234313430468E6
:1038500063616FE0FFE70B6AC3B38B680468E361E1
:10386000CB69EBB1D1E90B3423434C6B23434C6A56
:1038700023438C8A43EA84430C6923430C6A234321
:10388000CC682343CC6923438C69234313430468E6
:103890006361B2F1406F4DD04B680468A36149E0A9
:1038A000D1E90B3423434C6B23434C6A23438C8A6A
:1038B00043EA84430C6923430C6A2343CC692343C2
:1038C0008C69234313430468636133E0FFE7CB69EA
:1038D000DBB1D1E90B3423434C6B23434C6A2343C4
:1038E0008C8A43EA84430C6A2343CC682343CC6923
:1038F00023438C692343134304686361B2F1406F2F
:1039000018D04B680468A36114E04B6A93B1D1E905
:103910000B3423434C6B23434C6A23438C8A43EA86
:1039200084430C6A2343CC6923438C6923431343A8
:103930000468636110BD2DE9F04104460E46174648
:103940009846069D12E0681C80B1FDF76DF9A0EB6A
:103950000800A84200D84DB9042084F84100606CEA
:1039600040F0010060640120BDE8F08120688068BB
:10397000304008B1012000E00020B842E3D100202F
:10398000F2E700002DE9F04104460E4600275548B5
:10399000006800F00300032802D10120BDE8F08197
:1039A00050482838006820F080604E492839086067
:1039B000FDF73AF9054606E0FDF736F9401B022807
:1039C00001D90320EAE7474828380068C0F3C060FF
:1039D0000028F1D100BF4348006820F47C30216802
:1039E00040EA01303F490860A088401EC0F308004B
:1039F000A168491E4FF47E4202EA41210843A18991
:103A0000491ED20102EA01410843217C491E1202EB
:103A100002EA0161084333491031086000BF3148B0
:103A2000001D006820F0C000616908432D49091D90
:103A300008600846006820F02000A1690843294971
:103A4000091D08600846006820F01000086025483D
:103A5000143000684FF6F8718843E16940EAC1000C
:103A60002049143108601F48001D006840F0100014
:103A70001C49091D08602EB90846006840F4002062
:103A8000086012E0012E08D11648001D006840F4BD
:103A900080101449091D086007E01248001D0068E5
:103AA00040F400100F49091D08600E4828380068CE
:103AB00040F080600B4928390860FDF7B5F80546ED
:103AC00006E0FDF7B1F8401B022801D9032065E7A5
:103AD000044828380068C0F3C0600028F1D0384698
:103AE0005CE70000284402582DE9F04104460E46E8
:103AF00000275548006800F00300032802D1012088
:103B0000BDE8F08150482838006820F080504E49C8
:103B100028390860FDF788F8054606E0FDF784F8C7
:103B2000401B022801D90320EAE7474828380068EB
:103B3000C0F340700028F1D100BF4348006820F076
:103B40007C70218840EA01503F490860A088401EEF
:103B5000C0F30800A168491E4FF47E4202EA4121E9
:103B60000843A189491ED20102EA01410843217C90
:103B7000491E120202EA0161084333491831086004
:103B800000BF3148001D006820F4406061690843AF
:103B90002D49091D08600846006820F40070A169DD
:103BA00008432949091D08600846006820F4807010
:103BB000086025481C3000684FF6F8718843E169B9
:103BC00040EAC10020491C3108601F48001D006800
:103BD00040F480701C49091D08602EB90846006831
:103BE00040F48000086012E0012E08D11648001D44
:103BF000006840F400001449091D086007E01248FD
:103C0000001D006840F080700F49091D08600E48D3
:103C10002838006840F080500B4928390860FDF7CB
:103C200003F8054606E0FCF7FFFF401B022801D918
:103C3000032065E7044828380068C0F34070002876
:103C4000F1D038465CE700002844025810B5002344
:103C5000234C236000BF00BF00BFBFF34F8F00BFE6
:103C600000BF00BF231F1868C0F34E3100BFC0F370
:103C7000C90200BF43F6E07303EA41134FF040442A
:103C800004EA82742343174C236000BF00BF131E55
:103C9000A2F10102EED10B1EA1F10101E7D100BF9B
:103CA00000BF00BFBFF34F8F00BF00BF00BF0C4B72
:103CB000703B1B6843F48033094C703C236000BFA9
:103CC00000BF00BFBFF34F8F00BF00BF00BF00BFEA
:103CD00000BF00BFBFF36F8F00BF00BF00BF10BDAC
:103CE00084ED00E060EF00E000BF00BF00BFBFF365
:103CF0004F8F00BF00BF00BF00BF00BF00BFBFF3BA
:103D00006F8F00BF00BF00BF00201449086000BFD4
:103D100000BF00BFBFF34F8F00BF00BF00BF00BF99
:103D200000BF00BFBFF36F8F00BF00BF00BF0C48D4
:103D3000006840F400300A49086000BF00BF00BFBF
:103D4000BFF34F8F00BF00BF00BF00BF00BF00BF69
:103D5000BFF36F8F00BF00BF00BF704750EF00E0A0
:103D600014ED00E010B500231B4C236000BF00BF22
:103D700000BFBFF34F8F00BF00BF00BF231F1868F5
:103D8000C0F34E3100BFC0F3C90200BF43F6E07379
:103D900003EA41134FF0404404EA827423430F4C7A
:103DA000236000BF00BF131EA2F10102EED10B1E63
:103DB000A1F10101E7D100BF00BF00BFBFF34F8FEA
:103DC00000BF00BF00BF00BF00BF00BFBFF36F8FC9
:103DD00000BF00BF00BF10BD84ED00E060EF00E059
:103DE00010B5FCF727FF01F02FFA012801D0FCF7EE
:103DF000A2FB10BD2448006840F47000224908600E
:103E00002248006840F001002049086000201F4956
:103E1000103108601D4800681D4908401B490860B2
:103E200000201A4918310860091D0860091D086042
:103E3000164928310860091D0860091D0860091D20
:103E40000860091D0860091D0860091D0860091D3A
:103E500008600E48006820F480200C4908600020AB
:103E60000A49603108600B4800686FF30F00B0F139
:103E7000005F02D20120084908604FF0006002494B
:103E8000803908607047000088ED00E00044025867
:103E90007FEDF6EA0010005C0881005110B5024881
:103EA000FCF74EFB10BD00000404002400BFFEE739
:103EB00002480068C0F30220704700000CED00E0EB
:103EC00010B5002804DB0A07130E054A135406E058
:103ED0000A07140E034A00F00F031B1FD45410BD31
:103EE00000E400E018ED00E000BF704770B5044644
:103EF0000420FFF74DFB0A48046025464FF47A7012
:103F000045434FF0E020006940F002004FF0E0210F
:103F1000086108464561006940F00100086170BD14
:103F20001400002430B50446002504E04FF47A70F4
:103F300000F004F86D1CA542F8D330BD70B50346FF
:103F400000224FF0E02675690D4E366803FB06F43B
:103F50004FF0E026B16910E04FF0E026B0698842EA
:103F60000BD0884202D20E1A324402E02E1A0E44BE
:103F700032440146A24200D300E0EDE700BF70BD2D
:103F80001400002400BF054AD26902F04002002A52
:103F9000F9D0C2B2014B9A62704700000010014094
:103FA00010B500F0D5FCFCF751FE042302221146A7
:103FB000F02000F0CBFD4FF4F070FFF797FF4FF4C7
:103FC000E13000F077FEFCF7C0FAFCF7C3FAFCF72B
:103FD000C6FAFCF7C9FA0020FCF7CBFAFCF7CEFAD8
:103FE000002010BD10B50446240300F095F900F040
:103FF0002DF907480078002141EA0010401DC2B2A7
:104000000B462146202000F0F5FB00F01FF910BD03
:104010008200002410B5002400BF1A48806800F018
:1040200020000028F9D14FF483701649486100BF81
:104030001448806800F002000028F9D01148C068D8
:1040400040F002000F49C8604FF6FF7200212020A7
:1040500000F064FC98B9EB2444F4807444F44064A8
:104060000948007844EA003444F4404400BF44F472
:10407000801444F0407444F040640248446100F00D
:1040800077FC10BD005000528200002410B50024BF
:1040900000F06CFC00BF00BF00BF00BF00BFBFF35B
:1040A0004F8F00BF00BF00BF00BF00BF00BFBFF306
:1040B0006F8F00BF00BF00BF00201949086000BF1C
:1040C00000BF00BFBFF34F8F00BF00BF00BF00BFE6
:1040D00000BF00BFBFF36F8F00BF00BF00BF00BFB6
:1040E000FFF740FE0F48006820F001000D4908600E
:1040F0000846006840F0020008604FF6FF72002199
:10410000202000F00BFC04463CB900200549486122
:104110000846006840F001000860204610BD00001D
:1041200050EF00E0005000522DE9F04106460D46E8
:1041300017460024A5F1E04500F018FC00BF03E09D
:10414000285D3055601C84B2BC42F9DB00F010FCE5
:10415000BDE8F08170B500240025FFF797FF044605
:1041600014B900F033F80546FFF754FF284670BD38
:104170002DE9F04105460E4617460024FFF786FF5D
:10418000044624B93A463146284600F069F8FFF75C
:1041900041FF2046BDE8F08170B505460E46144645
:1041A00009480078C02141EA001040F00C00401C92
:1041B000C2B206233146EB2000F01CFB2146284604
:1041C00000F004FB70BD00008200002438B500F050
:1041D000D5FA002365221946902000F00BFB02213E
:1041E000684600F0F3FA9DF801009DF8001040EADF
:1041F00001244EF61870844202D103200149087050
:10420000204638BD8200002438B5044600200090C6
:104210000025012C04D0022C04D0032C06D103E08D
:10422000052505E0352503E0152501E0052500BF3E
:1042300000BF002341221946284600F0DBFA012185
:10424000684600F0C3FA9DF8000038BD10B500BF05
:104250000120FFF7D9FF00F001000028F8D110BDC0
:104260002DE9F05F81460F461646DFF8A8B04FEA09
:104270001738C7F30B0ACAF58054A64200DC34464F
:1042800044E04FEA08314FF480525846FFF784FF6C
:10429000002508E00AEB05001BF80000FF2800D00D
:1042A00003E0681C85B2A542F4DB00BFA54216DA24
:1042B0004046FFF797FE002507E019F8050005EBDB
:1042C0000A010BF80100681C85B2A542F5DB4FEA34
:1042D00008314FF48052584600F026F804E0224698
:1042E0003946484600F020F8A64200D10FE008F118
:1042F00001084FF0000AA1442744301B86B2B6F5EE
:10430000805F02DD4FF4805400E03446B9E700BF1F
:10431000BDE8F09F2A05002410B5002301221946AC
:10432000062000F067FA10BD2DE9F04107460E4661
:104330001446F0B2C0F58075AC4200DC254612E0B0
:104340002A463146384600F013F8AC4200D10BE063
:104350002F442E44601B84B2B4F5807F02DD4FF4FD
:10436000807500E02546EBE700BFBDE8F081000066
:1043700070B505460E461446FFF7CEFF0948007893
:10438000C02141EA0010401DC2B200233146322054
:1043900000F030FA2146284600F0ACFAFFF756FF4D
:1043A00070BD0000820000242DE9F04105460E4654
:1043B0002948076800202949096881F859002748D9
:1043C0000068001DFCF7DFF850B92448006890F839
:1043D0002C1001208840224909688143204801604F
:1043E000681CD8B9D6B11F4948681C49096888605B
:1043F0001A4982680968CA6018490968091D8268F3
:10440000516016490968091D8160164A13490968F7
:104410004A6111460968491C11601AE07C190F486D
:1044200000684460BC4207D20C480168091D0E4870
:104430000068FCF7ADF80CE008480168091D0B485E
:104440000068FCF7A5F80A480068844201D20848D1
:104450000460BDE8F0810000D0000024BC0000240E
:10446000D4000024D0EE0424C4000024C0000024A2
:10447000EC00002410B50446FCF78FF831480068C2
:10448000401C304908603048006840B92E4804603C
:104490000846006801280DD100F024F90AE02B48F5
:1044A000006838B928480068C06AE16A884201D8C3
:1044B0002548046026480068401C254908600846D5
:1044C0000068606494F82C10012088402149096834
:1044D000084320490860E16A01EB81011E4A02EBB2
:1044E00081014868A0608268E260211D8268516095
:1044F0008160E16A01EB8101174A02EB810262618E
:10450000E16A01EB8101144A52F82110491CE26A68
:1045100002EB8202104B43F82210FCF743F80B48E1
:10452000006868B108480068C06AE16A884207D23A
:104530004FF0805009490860BFF34F8FBFF36F8F72
:1045400010BD0000CC000024BC000024D8000024D2
:10455000E8000024D400002400EC042404ED00E072
:1045600010B516E0FCF719F80C48C068C468201DA7
:10457000FCF709F80A480068401E09490860094824
:104580000068401E07490860FCF70CF8204600F060
:104590000BF8044800680028E4D110BDBCEE0424E8
:1045A000CC000024C800002410B50446206BFBF7A3
:1045B000FEFF2046FBF7FBFF10BD000000BFFFF72A
:1045C000CFFF064800680128F9D94FF08050044910
:1045D0000860BFF34F8FBFF36F8FF0E700EC042448
:1045E00004ED00E02DE9F05F82460F4690469B46C1
:1045F0000A9E0C9C4FEA8801A522206BFBF7DCFF8A
:10460000A8F10100216B01EB800929F0070909F0ED
:10461000070008B9012000E0002028B94FF45872C3
:1046200024A12CA0FBF7CDFF87B1002507E0795D21
:1046300004F134004155785D00B902E06D1C102D85
:10464000F5D300BF00214320015502E0002084F88B
:104650003400202E01D2012000E0002028B940F2D1
:10466000973214A11BA0FBF7ACFF202E00D31F260E
:10467000E662E66400202065201DFBF7A7FF04F139
:104680001800FBF7A3FF2461C6F12000A06164625B
:104690000020606584F8580084F859005A46514655
:1046A0004846FBF798FF20600B9808B10B98046010
:1046B000BDE8F09F2E2E5C4D6964646C6577617275
:1046C00065735C4672656552544F535C7461736BDD
:1046D000732E63004572726F723A2025732C202569
:1046E000640D0A0010B5002407E004EB84010F4AB2
:1046F00002EB8100FBF774FF641C202CF5D30C48FF
:10470000FBF76EFF0B48FBF76BFF0B48FBF768FFEF
:104710000A48FBF765FF0A48FBF762FF04480949AE
:10472000086004480849086010BD000000EC04243B
:1047300080EE042494EE0424A8EE0424BCEE0424A9
:10474000D0EE0424C0000024C400002409480068FE
:10475000006808B9012000E0002020B14FF0FF30D0
:104760000549086005E003480068C0680068024920
:1047700008607047C0000024EC00002410B5114808
:10478000114908600120486004210F488160102110
:10479000C160480590FAA0F0B0FA80F0401E0A49C6
:1047A00008614FF4007108484161012181610021D5
:1047B000C1610162FCF7C8FB08B9002010BD0120EF
:1047C000FCE70000005000522C15002470B5044690
:1047D0000D46681E06490968086141F28832214683
:1047E0000348FCF799FC08B9002070BD0120FCE7E4
:1047F0002C150024F0B58FB007460D4614461E4612
:1048000001970295069604F0030010B90020079066
:1048100013E004F00300012802D1000207900CE02D
:1048200004F00300022802D10002079005E004F022
:104830000300032801D100020790C4F3810010B9DE
:104840000020089013E0C4F38100012802D1800207
:1048500008900CE0C4F38100022802D18002089085
:1048600005E0C4F38100032801D180020890C4F35D
:10487000011010B90020049013E0C4F301100128C6
:1048800002D1000304900CE0C4F30110022802D10D
:104890000003049005E0C4F30110032801D10003D4
:1048A0000490A00910B900200A9013E00120B0EB99
:1048B000941F02D100060A900CE00220B0EB941F76
:1048C00002D100060A9005E00320B0EB941F01D14D
:1048D00000060A9000200E9009900C900D9041F275
:1048E000883201A90248FCF7DDFA0FB0F0BD0000E4
:1048F0002C15002470B504460D46681E064909684B
:10490000086141F2883221460348FCF779FC08B976
:10491000002070BD0120FCE72C15002410B50346D3
:1049200000240BE009488068184008B1012000E02D
:10493000002004468C4200D102E0521E002AF1D130
:1049400000BF0AB1002010BD0120FCE7005000525A
:1049500010B5FFF7C9F9FFF779F90348006840F08F
:1049600004000149086010BD9CEF00E072B670477A
:1049700062B6704730B587B00546002400BF6A486C
:10498000006840F00200684908600846006800F0CE
:104990000200019000BF00BF00BF0846006840F061
:1049A000080008600846006800F00800019000BF99
:1049B00000BF00BF0846006840F0100008600846CD
:1049C000006800F01000019000BF00BF00BF564813
:1049D0000C38006840F4804053490C3908600846A0
:1049E000006800F48040019000BF00BF40200290AA
:1049F0000220039003200590012004900A200690D5
:104A000002A94A48FBF7EEFF042002900920069015
:104A100002A94648FBF7E6FF4FF4605002900920D8
:104A2000069002A94248FBF7DDFF0420029009200E
:104A3000069002A93F48FBF7D5FF3B486438006861
:104A400040F480403849643908600846006820F422
:104A50008040086000BF3848806800F020000028CF
:104A6000F9D136483449086035484860084600683E
:104A700040F00100086000BF2F48806800F020006F
:104A80000028F9D14FF483702B49486100BF2A48B0
:104A9000806800F002000028F9D02748C06840F084
:104AA00002002549C86000BF2348806800F020004C
:104AB0000028F9D12049C861EB2444F4807444F4FF
:104AC0004064A81C44EA003444F4404400BF44F469
:104AD000801444F0407444F040640846446119482E
:104AE000006820F48030174908601648703000686C
:104AF00020F001001349703108600020091D086092
:104B00004FF01040091D08600F48091D086005207E
:104B10000C49703108600B48006840F48030094946
:104B2000086007B030BD0000E0440258000402589D
:104B3000000C0258001002580050005210030001EF
:104B40000102180024ED00E02D0003032DE9F041DF
:104B5000CCB080460D4616461F46002451480068DA
:104B600020F004004F49086000BF002001904E482B
:104B7000006820F001004C4908600846006800F019
:104B80000100019047480C30006840F4404045491E
:104B90000C3108600846006800F44040019000BFF6
:104BA00000BF00BF3F480C30006800F40050B0F573
:104BB000005FF7D1212031904FF4803032900020F7
:104BC000349038900120379002203A90022131A889
:104BD0008162CDF8F480C562466387630021416439
:104BE0000821016400218164FEF712F904461CB11A
:104BF00001204CB0BDE8F0813F2044900320459057
:104C000000204690082047904020499000014A909B
:104C1000402048904B90042144A8FDF727FE04460D
:104C20000CB10120E5E721480290082003904FF4E1
:104C3000DC710491022105910691079100210891F0
:104C400009910A91022013902020149000201F90B7
:104C500020904FF44010239002A8FDF777F8044607
:104C60000CB10120C5E70020FFF784FEFCF710F926
:104C70000F48006840F080000D49086000BF0C48F4
:104C8000F430006840F002000949F4310860084639
:104C9000006800F00200019000BF00BFFBF798FE23
:104CA0000020A6E70C4802582C0400580300040317
:104CB0000044025810B5044609480A4908600846ED
:104CC000446000218160C160016181610C2141610A
:104CD000FBF78BFC012204490248FBF727FC10BDBF
:104CE00000100140040400241E00002470B5044696
:104CF0000025ACB10F48006808B9012000E0002091
:104D000028B940F249520CA113A0FBF75AFC00F05D
:104D1000A5F900212046FFF747FB00F0C7FC054638
:104D20003DB94FF0805010490860BFF34F8FBFF37B
:104D30006F8F70BDF80000242E2E5C4D6964646C8A
:104D40006577617265735C4672656552544F535C5A
:104D50007461736B732E63004572726F723A202513
:104D6000732C2025640D0A0004ED00E070B50546A3
:104D7000FBF713FC15B92F48006800E028460446ED
:104D8000201DFBF700FC78B9E06A00EB80002A499F
:104D900051F8200040B994F82C1001208840274990
:104DA0000968814325480160A06A18B104F1180020
:104DB000FBF7E9FB22480068401C214908601D48B8
:104DC0000068844209D1211D1E48FBF713FC1E48D0
:104DD0000068401C1C49086006E01C480068401E32
:104DE0001A490860FFF7B2FCFBF7DCFB11480068CA
:104DF000844202D02046FFF7D7FB15480068C0B1B7
:104E00000C480068844214D11248006808B9012097
:104E100000E0002028B940F2DC420FA116A0FBF709
:104E2000D0FB4FF0805018490860BFF34F8FBFF39D
:104E30006F8F70BDBC00002400EC0424D40000245B
:104E4000E8000024BCEE0424C8000024CC000024A8
:104E5000D8000024F80000242E2E5C4D6964646C98
:104E60006577617265735C4672656552544F535C39
:104E70007461736B732E63004572726F723A2025F2
:104E8000732C2025640D0A0004ED00E00349096835
:104E9000016003490968416070470000E400002494
:104EA000D00000240120014908607047E000002480
:104EB00070B504460D462CB940F61C4207A10FA060
:104EC000FBF77FFB1148016818312046FBF760FBB8
:104ED00001212846FFF768FA70BD00002E2E5C4DB8
:104EE0006964646C6577617265735C46726565526E
:104EF000544F535C7461736B732E63004572726F11
:104F0000723A2025732C2025640D0A00BC00002471
:104F100070B504460E4615462CB940F6524211A112
:104F200018A0FBF74EFB60681A490968C861194967
:104F3000826809680A6217490968183182685160F5
:104F40001449096818318160124909688C62216826
:104F5000491C21600DB14FF0FF3629463046FFF75E
:104F600023FA70BD2E2E5C4D6964646C65776172A6
:104F700065735C4672656552544F535C7461736B24
:104F8000732E63004572726F723A2025732C2025B0
:104F9000640D0A00BC0000241CB51C4800210B460F
:104FA0008022CDE900101AA11B4800F01DF904462B
:104FB000012C02D1FBF723FB0446012C17D100BFC3
:104FC000502072B680F31188BFF34F8FBFF36F8FFD
:104FD00062B600BF4FF0FF30104908600120104951
:104FE000086000200F490860FBF70EFB0BE0601C17
:104FF00008B1012000E0002028B94FF404620AA1A2
:1050000011A0FBF7DEFA144800681CBDF000002474
:1050100049444C4500000000BD450008EC00002458
:10502000D8000024D00000242E2E5C4D6964646CEE
:105030006577617265735C4672656552544F535C67
:105040007461736B732E63004572726F723A202520
:10505000732C2025640D0A00F40000240248006827
:10506000401C014908607047F800002410B51B4837
:10507000006818B101201A4908602DE00020184985
:10508000086018480068B0FA80F0C0F11F0404EB13
:105090008400154951F8200008B1012000E00020EB
:1050A00028B940F6024211A118A0FBF78AFA04EBD6
:1050B00084010D4A02EB810041684968416000F1BA
:1050C000080142688A4202D14168496841604168EA
:1050D000C968124A116000BF10BD0000F80000242A
:1050E000E0000024D400002400EC04242E2E5C4DAB
:1050F0006964646C6577617265735C46726565525C
:10510000544F535C7461736B732E63004572726FFE
:10511000723A2025732C2025640D0A00BC0000245F
:1051200070B506460C462EB940F6FD421FA127A0D9
:10513000FBF747FA2CB940F6FE421CA123A0FBF76F
:1051400040FAFBF72AFA254802687068131A2448C7
:10515000006890F8590030B100202149096881F8B1
:10516000590001251EE02068401C08B9002519E0FF
:105170001C4930680968884206D07068904203D89C
:105180000125002020600DE02068984207D92068A2
:10519000C01A20603046FFF779FE002502E00020AB
:1051A00020600125FBF7FEF9284670BD2E2E5C4DD0
:1051B0006964646C6577617265735C46726565529B
:1051C000544F535C7461736B732E63004572726F3E
:1051D000723A2025732C2025640D0A00D00000248B
:1051E000BC000024E40000242DE9FF4F85B0804678
:1051F00089461746DDE912ABB800FBF70AFA064606
:1052000056B15C20FBF705FA04460CB1266304E0B6
:105210003046FBF7CCF900E000247CB10020CDE95A
:1052200000ABCDE902403A4649464046089BFFF7AD
:10523000D9F92046FFF71EF9012501E04FF0FF35AF
:10524000284609B0BDE8F08F0549096809B9012071
:1052500005E00449096809B9022000E00020704710
:10526000D8000024F80000240149086870470000B5
:10527000D00000242DE9F0414FF000085F4800689D
:1052800000287DD15E480068451C5D480560002D02
:105290001DD15C480068006808B9012000E00020CA
:1052A00028B940F6C72258A15FA0FBF78AF95548F4
:1052B000076861480068534908605F4807605F48B5
:1052C0000068401C5D490860FFF740FA00BF5C4879
:1052D0000068854277D300BF4A480068006808B973
:1052E000012000E0002020B14FF0FF305449086059
:1052F00068E044480068C068C4686668B54202D285
:105300004F4806605EE06069D4E902128A60D4E921
:1053100002214A60211D42688A4201D1E168416050
:10532000002262610168491E0160A06A98B1A06A0A
:10533000D4E907128A60D4E907214A6004F1180110
:1053400042688A4201D1216A41600022A26201685A
:10535000491E016000BF94F82C1001208840394993
:105360000968084337490860E16A01EB8101364A60
:1053700002EB81014868A0608268E260211D00E0C4
:1053800033E0826851608160E16A01EB81012E4A5D
:1053900002EB81026261E16A01EB81012A4A52F863
:1053A0002110491CE26A02EB8202274B43F82210CB
:1053B0002649E06A0968C96A88428DD34FF001081E
:1053C0008AE700E000BF21480068C06A00EB800067
:1053D0001D4951F82000012801D94FF001081C484F
:1053E000006808B14FF0010804E01A480068401C4A
:1053F000184908604046BDE8F0810000F80000242C
:10540000D0000024C00000242E2E5C4D6964646C22
:105410006577617265735C4672656552544F535C83
:105420007461736B732E63004572726F723A20253C
:10543000732C2025640D0A00C4000024E40000241D
:10544000EC000024D400002400EC0424BC00002460
:10545000E0000024DC00002470B505462C46002640
:10546000002D5ED030480068844201D1012000E068
:10547000002028B941F24F022CA134A0FBF7A1F87B
:10548000206D28B941F2500228A130A0FBF799F80D
:10549000206D401E2065E16CE06A884241D0206D9D
:1054A00000283ED1201DFBF76EF840B994F82C106F
:1054B0000120884029490968814328480160E06C3F
:1054C000E062E06AC0F12000A06194F82C10012095
:1054D000884022490968084320490860E16A01EBD5
:1054E00081011F4A02EB81014868A0608268E26086
:1054F000211D826851608160E16A01EB8101184AD7
:1055000002EB81026261E16A01EB8101144A52F807
:105510002110491CE26A02EB8202114B43F822106F
:105520000126304670BD0000BC0000242E2E5C4DCC
:105530006964646C6577617265735C467265655217
:10554000544F535C7461736B732E63004572726FBA
:10555000723A2025732C2025640D0A00D400002403
:1055600000EC042470B50646F068C4682CB940F617
:1055700082423CA143A0FBF724F8A06AD4E90712B9
:105580008A60D4E907214A6004F1180142688A421E
:1055900001D1216A41600022A2620168491E0160B6
:1055A0003C48006800283DD16069D4E902128A6055
:1055B000D4E902214A60211D42688A4201D1E16892
:1055C0004160002262610168491E016094F82C105C
:1055D000012088403049096808432F490860E16A82
:1055E00001EB81012D4A02EB81014868A0608268CD
:1055F000E260211D826851608160E16A01EB8101F6
:10560000264A02EB81026261E16A01EB8101234AD1
:1056100052F82110491CE26A02EB82021F4B43F848
:10562000221010E01E494868E0618268226204F19D
:105630001801826851608160194AA26211460968A6
:10564000491C116000BF1749E06A0968C96A8842AD
:1056500004D9012501201449086000E000252846EE
:1056600070BD00002E2E5C4D6964646C65776172BC
:1056700065735C4672656552544F535C7461736B1D
:10568000732E63004572726F723A2025732C2025A9
:10569000640D0A00F8000024D400002400EC042467
:1056A000A8EE0424BC000024E000002470B500240F
:1056B00000265048006828B940F6B3024EA156A013
:1056C000FAF77FFFFAF769FF4A480068401E494928
:1056D00008600846006800287ED15348006800280A
:1056E0007AD05BE05148C068C468A06AD4E9071268
:1056F0008A60D4E907214A6004F1180142688A42AD
:1057000001D1216A41600022A2620168491E016044
:105710006069D4E902128A60D4E902214A60211D3D
:1057200042688A4201D1E1684160002262610168F9
:10573000491E016094F82C10012088403C490968FA
:1057400008433B490860E16A01EB8101394A02EBF9
:1057500081014868A0608268E260211D8268516012
:105760008160E16A01EB8101324A02EB81026261F0
:10577000E16A01EB81012F4A52F82110491CE26ACB
:1057800002EB82022B4B43F822102B49E06A096896
:10579000C96A884202D3012028490860234800686A
:1057A00008B9012000E0002000289BD00CB1FEF7D2
:1057B000CDFF2348056865B100BFFFF75BFD10B161
:1057C00001201E4908606D1E002DF6D100201C49E5
:1057D00008601A48006800E008E038B10126300788
:1057E00018490860BFF34F8FBFF36F8FFAF7DAFEE7
:1057F000304670BDF80000242E2E5C4D6964646C48
:105800006577617265735C4672656552544F535C8F
:105810007461736B732E63004572726F723A202548
:10582000732C2025640D0A00CC000024A8EE04246B
:10583000D400002400EC0424BC000024E000002478
:10584000DC00002404ED00E010B500290AD008783F
:10585000002807D005487844FAF7E0FE002801D078
:10586000002010BD0248784410BD00005A0000001E
:10587000520000004FF04070E1EE100A7047000047
:1058800000000102030401020304060708090000E6
:10589000CC580008000000243C030000D40200089B
:1058A000D05900083C03002434820700300300086C
:1058B0001C00000043000000F8FFFFFF0C00000088
:1058C0000E0000000F0000002E000000113C90D0E0
:1058D0000304011B321012011A05043122F823FFC0
:1058E000FF000D3C69B60390FDBA0390BDB0039074
:1058F0001417EF02100B4D550390255603904016D8
:1059000032243230323842201540C604241CE003D1
:10591000307812382CF00120800140023B1F1AAA77
:1059200001011402202D021E011EF4030790EC0455
:105930001AF8041AE4041AE8041AF0041AE0041E1F
:10594000540407905C041A04041A0C041A48041A3C
:10595000FC181A4C081A40041A20041A38041A2C8D
:10596000041A14041ED006079068086112FF1F3C39
:105970001704903C18041A19041A1A0429109904DF
:10598000411AEC081AEC241AEC241A9024391099C4
:105990000401A40617D4C3B2A16F1812C144039026
:1059A0009D410390414203901943039061101A8D69
:1059B0000C1AC9041AF1041E840807908C041A9466
:1059C000041EF40607909C081AA4041A8004011807
:0200000490006A
:1000000066293CF0C086642900F0B480782900F0AD
:10001000ED80732900F0D585002070472D4B1968BD
:100020000868B0E8F04F80F30988BFF36F8F4FF096
:10003000000080F311887047000000000848006845
:10004000006880F308884FF0000080F3148862B6DF
:1000500061B6BFF34F8FBFF36F8F00DF00BF00BFEC
:1000600008ED00E0DFF80C00016841F47001016068
:10007000704700BF88ED00E0EFF30980BFF36F8F9A
:10008000144B1A681EF0100F08BF20ED108A20E9EB
:10009000F04F106009B44FF0500072B680F3118831
:1000A000BFF34F8FBFF36F8F62B601F041FA4FF08D
:1000B000000080F3118809BC19680868B0E8F04FA7
:1000C0001EF0100F08BFB0EC108A80F30988BFF350
:1000D0006F8F7047BC000024EFF30580704700006D
:1000E0000FB4044910B503AA029800F06FFD10BCCC
:1000F0005DF814FB180000240FB41CB5074B06AACA
